{
	"data": {
		"bytecode": {
			"linkReferences": {},
			"object": "610160604052348015610010575f80fd5b50604051616c14380380616c14833981810160405281019061003291906109eb565b6040518060400160405280600c81526020017f546f6b656e466163746f727900000000000000000000000000000000000000008152506040518060400160405280600181526020017f310000000000000000000000000000000000000000000000000000000000000081525033868681600390816100b09190610cb0565b5080600490816100c09190610cb0565b5050505f73ffffffffffffffffffffffffffffffffffffffff168173ffffffffffffffffffffffffffffffffffffffff1603610133575f6040517f1e4fbdf700000000000000000000000000000000000000000000000000000000815260040161012a9190610d8e565b60405180910390fd5b610142816103ce60201b60201c565b50600160068190555061015f60078361049160201b90919060201c565b610120818152505061017b60088261049160201b90919060201c565b6101408181525050818051906020012060e08181525050808051906020012061010081815250504660a081815250506101b86104de60201b60201c565b608081815250503073ffffffffffffffffffffffffffffffffffffffff1660c08173ffffffffffffffffffffffffffffffffffffffff16815250505050610211336b033b2e3c9fd0803ce800000061053860201b60201c565b6b033b2e3c9fd0803ce800000060118190555081600a90816102339190610cb0565b5080600b5f6101000a81548173ffffffffffffffffffffffffffffffffffffffff021916908373ffffffffffffffffffffffffffffffffffffffff16021790555042600c819055507310ed43c718714eb63d5aa57b78b54704e256024e600f60405161029e90610dfb565b90815260200160405180910390205f6101000a81548173ffffffffffffffffffffffffffffffffffffffff021916908373ffffffffffffffffffffffffffffffffffffffff160217905550737a250d5630b4cf539739df2c5dacb4c659f2488d600f60405161030c90610e59565b90815260200160405180910390205f6101000a81548173ffffffffffffffffffffffffffffffffffffffff021916908373ffffffffffffffffffffffffffffffffffffffff1602179055505f73ffffffffffffffffffffffffffffffffffffffff168173ffffffffffffffffffffffffffffffffffffffff16036103c5576040517f08c379a00000000000000000000000000000000000000000000000000000000081526004016103bc90610eed565b60405180910390fd5b5050505061111c565b5f60055f9054906101000a900473ffffffffffffffffffffffffffffffffffffffff1690508160055f6101000a81548173ffffffffffffffffffffffffffffffffffffffff021916908373ffffffffffffffffffffffffffffffffffffffff1602179055508173ffffffffffffffffffffffffffffffffffffffff168173ffffffffffffffffffffffffffffffffffffffff167f8be0079c531659141344cd1fd0a4f28419497f9722a3daafe3b4186f6b6457e060405160405180910390a35050565b5f6020835110156104b2576104ab836105bd60201b60201c565b90506104d8565b826104c28361062260201b60201c565b5f0190816104d09190610cb0565b5060ff5f1b90505b92915050565b5f7f8b73c3c69bb8fe3d512ecc4cf759cc79239f7b179b0ffacaa9a75d522b39400f60e05161010051463060405160200161051d959493929190610f32565b60405160208183030381529060405280519060200120905090565b5f73ffffffffffffffffffffffffffffffffffffffff168273ffffffffffffffffffffffffffffffffffffffff16036105a8575f6040517fec442f0500000000000000000000000000000000000000000000000000000000815260040161059f9190610d8e565b60405180910390fd5b6105b95f838361062b60201b60201c565b5050565b5f80829050601f8151111561060957826040517f305a27a90000000000000000000000000000000000000000000000000000000081526004016106009190610fbb565b60405180910390fd5b80518161061590611008565b5f1c175f1b915050919050565b5f819050919050565b5f73ffffffffffffffffffffffffffffffffffffffff168373ffffffffffffffffffffffffffffffffffffffff160361067b578060025f82825461066f919061109b565b92505081905550610749565b5f805f8573ffffffffffffffffffffffffffffffffffffffff1673ffffffffffffffffffffffffffffffffffffffff1681526020019081526020015f2054905081811015610704578381836040517fe450d38c0000000000000000000000000000000000000000000000000000000081526004016106fb939291906110ce565b60405180910390fd5b8181035f808673ffffffffffffffffffffffffffffffffffffffff1673ffffffffffffffffffffffffffffffffffffffff1681526020019081526020015f2081905550505b5f73ffffffffffffffffffffffffffffffffffffffff168273ffffffffffffffffffffffffffffffffffffffff1603610790578060025f82825403925050819055506107da565b805f808473ffffffffffffffffffffffffffffffffffffffff1673ffffffffffffffffffffffffffffffffffffffff1681526020019081526020015f205f82825401925050819055505b8173ffffffffffffffffffffffffffffffffffffffff168373ffffffffffffffffffffffffffffffffffffffff167fddf252ad1be2c89b69c2b068fc378daa952ba7f163c4a11628f55a4df523b3ef836040516108379190611103565b60405180910390a3505050565b5f604051905090565b5f80fd5b5f80fd5b5f80fd5b5f80fd5b5f601f19601f8301169050919050565b7f4e487b71000000000000000000000000000000000000000000000000000000005f52604160045260245ffd5b6108a38261085d565b810181811067ffffffffffffffff821117156108c2576108c161086d565b5b80604052505050565b5f6108d4610844565b90506108e0828261089a565b919050565b5f67ffffffffffffffff8211156108ff576108fe61086d565b5b6109088261085d565b9050602081019050919050565b8281835e5f83830152505050565b5f610935610930846108e5565b6108cb565b90508281526020810184848401111561095157610950610859565b5b61095c848285610915565b509392505050565b5f82601f83011261097857610977610855565b5b8151610988848260208601610923565b91505092915050565b5f73ffffffffffffffffffffffffffffffffffffffff82169050919050565b5f6109ba82610991565b9050919050565b6109ca816109b0565b81146109d4575f80fd5b50565b5f815190506109e5816109c1565b92915050565b5f805f8060808587031215610a0357610a0261084d565b5b5f85015167ffffffffffffffff811115610a2057610a1f610851565b5b610a2c87828801610964565b945050602085015167ffffffffffffffff811115610a4d57610a4c610851565b5b610a5987828801610964565b935050604085015167ffffffffffffffff811115610a7a57610a79610851565b5b610a8687828801610964565b9250506060610a97878288016109d7565b91505092959194509250565b5f81519050919050565b7f4e487b71000000000000000000000000000000000000000000000000000000005f52602260045260245ffd5b5f6002820490506001821680610af157607f821691505b602082108103610b0457610b03610aad565b5b50919050565b5f819050815f5260205f209050919050565b5f6020601f8301049050919050565b5f82821b905092915050565b5f60088302610b667fffffffffffffffffffffffffffffffffffffffffffffffffffffffffffffffff82610b2b565b610b708683610b2b565b95508019841693508086168417925050509392505050565b5f819050919050565b5f819050919050565b5f610bb4610baf610baa84610b88565b610b91565b610b88565b9050919050565b5f819050919050565b610bcd83610b9a565b610be1610bd982610bbb565b848454610b37565b825550505050565b5f90565b610bf5610be9565b610c00818484610bc4565b505050565b5b81811015610c2357610c185f82610bed565b600181019050610c06565b5050565b601f821115610c6857610c3981610b0a565b610c4284610b1c565b81016020851015610c51578190505b610c65610c5d85610b1c565b830182610c05565b50505b505050565b5f82821c905092915050565b5f610c885f1984600802610c6d565b1980831691505092915050565b5f610ca08383610c79565b9150826002028217905092915050565b610cb982610aa3565b67ffffffffffffffff811115610cd257610cd161086d565b5b610cdc8254610ada565b610ce7828285610c27565b5f60209050601f831160018114610d18575f8415610d06578287015190505b610d108582610c95565b865550610d77565b601f198416610d2686610b0a565b5f5b82811015610d4d57848901518255600182019150602085019450602081019050610d28565b86831015610d6a5784890151610d66601f891682610c79565b8355505b6001600288020188555050505b505050505050565b610d88816109b0565b82525050565b5f602082019050610da15f830184610d7f565b92915050565b5f81905092915050565b7f50616e63616b65537761700000000000000000000000000000000000000000005f82015250565b5f610de5600b83610da7565b9150610df082610db1565b600b82019050919050565b5f610e0582610dd9565b9150819050919050565b7f556e6973776170000000000000000000000000000000000000000000000000005f82015250565b5f610e43600783610da7565b9150610e4e82610e0f565b600782019050919050565b5f610e6382610e37565b9150819050919050565b5f82825260208201905092915050565b7fc490e1bb8b61206368e1bb8920726f757465722062616e20c491e1baa775206b5f8201527f68c3b46e672068e1bba370206ce1bb8700000000000000000000000000000000602082015250565b5f610ed7603083610e6d565b9150610ee282610e7d565b604082019050919050565b5f6020820190508181035f830152610f0481610ecb565b9050919050565b5f819050919050565b610f1d81610f0b565b82525050565b610f2c81610b88565b82525050565b5f60a082019050610f455f830188610f14565b610f526020830187610f14565b610f5f6040830186610f14565b610f6c6060830185610f23565b610f796080830184610d7f565b9695505050505050565b5f610f8d82610aa3565b610f978185610e6d565b9350610fa7818560208601610915565b610fb08161085d565b840191505092915050565b5f6020820190508181035f830152610fd38184610f83565b905092915050565b5f81519050919050565b5f819050602082019050919050565b5f610fff8251610f0b565b80915050919050565b5f61101282610fdb565b8261101c84610fe5565b905061102781610ff4565b92506020821015611067576110627fffffffffffffffffffffffffffffffffffffffffffffffffffffffffffffffff83602003600802610b2b565b831692505b5050919050565b7f4e487b71000000000000000000000000000000000000000000000000000000005f52601160045260245ffd5b5f6110a582610b88565b91506110b083610b88565b92508282019050808211156110c8576110c761106e565b5b92915050565b5f6060820190506110e15f830186610d7f565b6110ee6020830185610f23565b6110fb6040830184610f23565b949350505050565b5f6020820190506111165f830184610f23565b92915050565b60805160a05160c05160e051610100516101205161014051615aa761116d5f395f6131dd01525f6131a201525f613a2801525f613a0701525f6135fa01525f61365001525f6136790152615aa75ff3fe6080604052600436106102e7575f3560e01c8063715018a61161018f578063bfc12c05116100db578063e81e982d11610094578063f4624a2f1161006e578063f4624a2f14610afc578063f7e021e414610b26578063f7ee7a4314610b50578063fa9b701814610b7a576102ee565b8063e81e982d14610a82578063f263540114610aaa578063f2fde38b14610ad4576102ee565b8063bfc12c051461098a578063c04fcad8146109b4578063d89135cd146109de578063dd49756e14610a08578063dd62ed3e14610a30578063e6a0a00714610a6c576102ee565b806392887e70116101485780639cd441da116101225780639cd441da146108d2578063a2309ff8146108fa578063a9059cbb14610924578063b55cd04b14610960576102ee565b806392887e701461085457806395d89b411461087e57806396a379d8146108a8576102ee565b8063715018a6146107565780637ecebe001461076c57806384b0196e146107a857806388d695b2146107d85780638da5cb5b146108005780638e80ff5d1461082a576102ee565b80633576a32f1161024e57806348931352116102075780635c975abb116101e15780635c975abb1461068c5780635e7ffa67146106b657806368642e95146106f257806370a082311461071a576102ee565b80634893135214610610578063528627221461063a57806352c7420d14610662576102ee565b80633576a32f1461051c5780633af8e4ab1461054457806340c10f191461056e578063429093cc1461059657806342966c68146105be57806344d90fc0146105e6576102ee565b806323b872dd116102a057806323b872dd146103fe5780632d0335ab1461043a578063313ce56714610476578063315a095d146104a0578063317d9453146104c85780633408e470146104f2576102ee565b806306fdde03146102f2578063095ea7b31461031c5780630ca1c5c914610358578063122fea3b1461038257806316c38b3c146103ac57806318160ddd146103d4576102ee565b366102ee57005b5f80fd5b3480156102fd575f80fd5b50610306610ba4565b6040516103139190613ba8565b60405180910390f35b348015610327575f80fd5b50610342600480360381019061033d9190613c66565b610c34565b60405161034f9190613cbe565b60405180910390f35b348015610363575f80fd5b5061036c610c56565b6040516103799190613ce6565b60405180910390f35b34801561038d575f80fd5b50610396610c5f565b6040516103a39190613d0e565b60405180910390f35b3480156103b7575f80fd5b506103d260048036038101906103cd9190613d51565b610c84565b005b3480156103df575f80fd5b506103e8610cdf565b6040516103f59190613ce6565b60405180910390f35b348015610409575f80fd5b50610424600480360381019061041f9190613d7c565b610ce8565b6040516104319190613cbe565b60405180910390f35b348015610445575f80fd5b50610460600480360381019061045b9190613dcc565b610d16565b60405161046d9190613ce6565b60405180910390f35b348015610481575f80fd5b5061048a610d5c565b6040516104979190613e12565b60405180910390f35b3480156104ab575f80fd5b506104c660048036038101906104c19190613e2b565b610d64565b005b3480156104d3575f80fd5b506104dc610e77565b6040516104e99190613ce6565b60405180910390f35b3480156104fd575f80fd5b50610506610e86565b6040516105139190613ce6565b60405180910390f35b348015610527575f80fd5b50610542600480360381019061053d9190613dcc565b610e8d565b005b34801561054f575f80fd5b50610558610fff565b6040516105659190613d0e565b60405180910390f35b348015610579575f80fd5b50610594600480360381019061058f9190613c66565b611025565b005b3480156105a1575f80fd5b506105bc60048036038101906105b79190613e2b565b611240565b005b3480156105c9575f80fd5b506105e460048036038101906105df9190613e2b565b61140f565b005b3480156105f1575f80fd5b506105fa611523565b6040516106079190613ba8565b60405180910390f35b34801561061b575f80fd5b506106246115b3565b6040516106319190613ce6565b60405180910390f35b348015610645575f80fd5b50610660600480360381019061065b9190613eb3565b6115cf565b005b34801561066d575f80fd5b50610676611a8c565b6040516106839190613f8e565b60405180910390f35b348015610697575f80fd5b506106a0611ac5565b6040516106ad9190613cbe565b60405180910390f35b3480156106c1575f80fd5b506106dc60048036038101906106d791906140da565b611ad7565b6040516106e99190613d0e565b60405180910390f35b3480156106fd575f80fd5b50610718600480360381019061071391906140da565b611b1f565b005b348015610725575f80fd5b50610740600480360381019061073b9190613dcc565b611d4c565b60405161074d9190613ce6565b60405180910390f35b348015610761575f80fd5b5061076a611d91565b005b348015610777575f80fd5b50610792600480360381019061078d9190613dcc565b611da4565b60405161079f9190613ce6565b60405180910390f35b3480156107b3575f80fd5b506107bc611db9565b6040516107cf9796959493929190614221565b60405180910390f35b3480156107e3575f80fd5b506107fe60048036038101906107f99190614355565b611e5e565b005b34801561080b575f80fd5b50610814612194565b6040516108219190613d0e565b60405180910390f35b348015610835575f80fd5b5061083e6121bc565b60405161084b9190613ce6565b60405180910390f35b34801561085f575f80fd5b506108686121c2565b6040516108759190613ce6565b60405180910390f35b348015610889575f80fd5b506108926121c8565b60405161089f9190613ba8565b60405180910390f35b3480156108b3575f80fd5b506108bc612258565b6040516108c99190613ce6565b60405180910390f35b3480156108dd575f80fd5b506108f860048036038101906108f391906143d3565b612261565b005b348015610905575f80fd5b5061090e612564565b60405161091b9190613ce6565b60405180910390f35b34801561092f575f80fd5b5061094a60048036038101906109459190613c66565b61256a565b6040516109579190613cbe565b60405180910390f35b34801561096b575f80fd5b506109746126da565b6040516109819190613ce6565b60405180910390f35b348015610995575f80fd5b5061099e6126e3565b6040516109ab9190613ce6565b60405180910390f35b3480156109bf575f80fd5b506109c86126e9565b6040516109d59190613ce6565b60405180910390f35b3480156109e9575f80fd5b506109f26126f9565b6040516109ff9190613ce6565b60405180910390f35b348015610a13575f80fd5b50610a2e6004803603810190610a299190613e2b565b6126ff565b005b348015610a3b575f80fd5b50610a566004803603810190610a519190614411565b612804565b604051610a639190613ce6565b60405180910390f35b348015610a77575f80fd5b50610a80612886565b005b348015610a8d575f80fd5b50610aa86004803603810190610aa39190613dcc565b612a6b565b005b348015610ab5575f80fd5b50610abe612bc0565b604051610acb9190613ce6565b60405180910390f35b348015610adf575f80fd5b50610afa6004803603810190610af59190613dcc565b612bc6565b005b348015610b07575f80fd5b50610b10612c4a565b604051610b1d9190613d0e565b60405180910390f35b348015610b31575f80fd5b50610b3a612c72565b604051610b479190613ba8565b60405180910390f35b348015610b5b575f80fd5b50610b64612cfe565b604051610b719190613ce6565b60405180910390f35b348015610b85575f80fd5b50610b8e612d05565b604051610b9b9190613ce6565b60405180910390f35b606060038054610bb39061447c565b80601f0160208091040260200160405190810160405280929190818152602001828054610bdf9061447c565b8015610c2a5780601f10610c0157610100808354040283529160200191610c2a565b820191905f5260205f20905b815481529060010190602001808311610c0d57829003601f168201915b5050505050905090565b5f80610c3e612d15565b9050610c4b818585612d1c565b600191505092915050565b5f601154905090565b600b5f9054906101000a900473ffffffffffffffffffffffffffffffffffffffff1681565b610c8c612d2e565b8060095f6101000a81548160ff0219169083151502179055507f0e2fb031ee032dc02d8011dc50b816eb450cf856abd8261680dac74f72165bd281604051610cd49190613cbe565b60405180910390a150565b5f600254905090565b5f80610cf2612d15565b9050610cff858285612db5565b610d0a858585612e48565b60019150509392505050565b5f60105f8373ffffffffffffffffffffffffffffffffffffffff1673ffffffffffffffffffffffffffffffffffffffff1681526020019081526020015f20549050919050565b5f6012905090565b610d6c612d2e565b60095f9054906101000a900460ff1615610dbb576040517f08c379a0000000000000000000000000000000000000000000000000000000008152600401610db2906144f6565b60405180910390fd5b610dc3612f38565b5f610dcd30611d4c565b905080821115610e12576040517f08c379a0000000000000000000000000000000000000000000000000000000008152600401610e0990614584565b60405180910390fd5b610e1d303384612e48565b3373ffffffffffffffffffffffffffffffffffffffff167f6352c5382c4a4578e712449ca65e83cdb392d045dfcf1cad9615189db2da244b83604051610e639190613ce6565b60405180910390a250610e74612f87565b50565b5f610e8130611d4c565b905090565b5f46905090565b610e95612d2e565b5f73ffffffffffffffffffffffffffffffffffffffff168173ffffffffffffffffffffffffffffffffffffffff1603610f03576040517f08c379a0000000000000000000000000000000000000000000000000000000008152600401610efa90614612565b60405180910390fd5b610f0b612194565b73ffffffffffffffffffffffffffffffffffffffff168173ffffffffffffffffffffffffffffffffffffffff1603610f78576040517f08c379a0000000000000000000000000000000000000000000000000000000008152600401610f6f906146a0565b60405180910390fd5b80600960016101000a81548173ffffffffffffffffffffffffffffffffffffffff021916908373ffffffffffffffffffffffffffffffffffffffff1602179055508073ffffffffffffffffffffffffffffffffffffffff167ff8d006f2a6f983036df27764c4afd48aa2622d7a7437809876d762dfc0fdf7a660405160405180910390a250565b600960019054906101000a900473ffffffffffffffffffffffffffffffffffffffff1681565b61102d612d2e565b611035612f38565b62015180600d5461104691906146eb565b421015611088576040517f08c379a000000000000000000000000000000000000000000000000000000000815260040161107f9061478e565b60405180910390fd5b5f73ffffffffffffffffffffffffffffffffffffffff168273ffffffffffffffffffffffffffffffffffffffff16036110f6576040517f08c379a00000000000000000000000000000000000000000000000000000000081526004016110ed9061481c565b60405180910390fd5b5f8111801561111157506b033b2e3c9fd0803ce80000008111155b611150576040517f08c379a0000000000000000000000000000000000000000000000000000000008152600401611147906148aa565b60405180910390fd5b60026b033b2e3c9fd0803ce800000061116991906148c8565b81611172610cdf565b61117c91906146eb565b11156111bd576040517f08c379a00000000000000000000000000000000000000000000000000000000081526004016111b490614979565b60405180910390fd5b8060115f8282546111ce91906146eb565b925050819055506111df8282612f91565b42600d819055508173ffffffffffffffffffffffffffffffffffffffff167f3f2c9d57c068687834f0de942a9babb9e5acab57d516d3480a3c16ee165a42738260405161122c9190613ce6565b60405180910390a261123c612f87565b5050565b611248612d2e565b611250612f38565b611258612194565b73ffffffffffffffffffffffffffffffffffffffff163373ffffffffffffffffffffffffffffffffffffffff16146112c5576040517f08c379a00000000000000000000000000000000000000000000000000000000081526004016112bc90614a07565b60405180910390fd5b5f4790508082111561130c576040517f08c379a000000000000000000000000000000000000000000000000000000000815260040161130390614a6f565b60405180910390fd5b5f3373ffffffffffffffffffffffffffffffffffffffff168360405161133190614aba565b5f6040518083038185875af1925050503d805f811461136b576040519150601f19603f3d011682016040523d82523d5f602084013e611370565b606091505b50509050806113b4576040517f08c379a00000000000000000000000000000000000000000000000000000000081526004016113ab90614b18565b60405180910390fd5b3373ffffffffffffffffffffffffffffffffffffffff167f862e81ffb41a750a66f27bac6fc0399cf0976224a18b9e9bff067f91e1d372bb846040516113fa9190613ce6565b60405180910390a2505061140c612f87565b50565b60095f9054906101000a900460ff161561145e576040517f08c379a0000000000000000000000000000000000000000000000000000000008152600401611455906144f6565b60405180910390fd5b611466612f38565b5f81116114a8576040517f08c379a000000000000000000000000000000000000000000000000000000000815260040161149f90614ba6565b60405180910390fd5b8060125f8282546114b991906146eb565b925050819055506114ca3382613010565b3373ffffffffffffffffffffffffffffffffffffffff167ffd38818f5291bf0bb3a2a48aadc06ba8757865d1dabd804585338aab3009dcb6826040516115109190613ce6565b60405180910390a2611520612f87565b50565b6060600a80546115329061447c565b80601f016020809104026020016040519081016040528092919081815260200182805461155e9061447c565b80156115a95780601f10611580576101008083540402835291602001916115a9565b820191905f5260205f20905b81548152906001019060200180831161158c57829003601f168201915b5050505050905090565b60026b033b2e3c9fd0803ce80000006115cc91906148c8565b81565b6115d7612d2e565b60095f9054906101000a900460ff1615611626576040517f08c379a000000000000000000000000000000000000000000000000000000000815260040161161d906144f6565b60405180910390fd5b61162e612f38565b5f73ffffffffffffffffffffffffffffffffffffffff168673ffffffffffffffffffffffffffffffffffffffff160361169c576040517f08c379a000000000000000000000000000000000000000000000000000000000815260040161169390614c34565b60405180910390fd5b5f85116116de576040517f08c379a00000000000000000000000000000000000000000000000000000000081526004016116d590614ba6565b60405180910390fd5b60105f8773ffffffffffffffffffffffffffffffffffffffff1673ffffffffffffffffffffffffffffffffffffffff1681526020019081526020015f2054841461175d576040517f08c379a000000000000000000000000000000000000000000000000000000000815260040161175490614c9c565b60405180910390fd5b8461176787611d4c565b10156117a8576040517f08c379a000000000000000000000000000000000000000000000000000000000815260040161179f90614d04565b60405180910390fd5b601b8360ff1614806117bd5750601c8360ff16145b6117fc576040517f08c379a00000000000000000000000000000000000000000000000000000000081526004016117f390614d6c565b60405180910390fd5b5f801b821415801561181057505f801b8114155b61184f576040517f08c379a000000000000000000000000000000000000000000000000000000000815260040161184690614dfa565b60405180910390fd5b7fffffffffffffffffffffffffffffffffffffffffffffffffffffffffffffffff60105f8873ffffffffffffffffffffffffffffffffffffffff1673ffffffffffffffffffffffffffffffffffffffff1681526020019081526020015f2054106118ee576040517f08c379a00000000000000000000000000000000000000000000000000000000081526004016118e590614e88565b60405180910390fd5b5f7f8ccf814e85dc7996d2fd4d1257897f2a8ac1d16c31b626d14fe05c0d862cc0958787876040516020016119269493929190614ea6565b6040516020818303038152906040528051906020012090505f6119488261308f565b90505f611957828787876130a8565b90508873ffffffffffffffffffffffffffffffffffffffff168173ffffffffffffffffffffffffffffffffffffffff16146119c7576040517f08c379a00000000000000000000000000000000000000000000000000000000081526004016119be90614f33565b60405180910390fd5b60105f8a73ffffffffffffffffffffffffffffffffffffffff1673ffffffffffffffffffffffffffffffffffffffff1681526020019081526020015f205f815480929190611a1490614f51565b9190505550611a2b89611a25612194565b8a612e48565b8873ffffffffffffffffffffffffffffffffffffffff167fee9ddddb5d196bdae24427887fd4d11aa2db31074b90b5f21a8ce32af756669f89604051611a719190613ce6565b60405180910390a2505050611a84612f87565b505050505050565b60603073ffffffffffffffffffffffffffffffffffffffff16803b806020016040519081016040528181525f908060200190933c905090565b60095f9054906101000a900460ff1681565b600f818051602081018201805184825260208301602085012081835280955050505050505f915054906101000a900473ffffffffffffffffffffffffffffffffffffffff1681565b611b27612d2e565b5f73ffffffffffffffffffffffffffffffffffffffff16600f82604051611b4e9190614fd2565b90815260200160405180910390205f9054906101000a900473ffffffffffffffffffffffffffffffffffffffff1673ffffffffffffffffffffffffffffffffffffffff1603611bd2576040517f08c379a0000000000000000000000000000000000000000000000000000000008152600401611bc990615032565b60405180910390fd5b5f600f82604051611be39190614fd2565b90815260200160405180910390205f9054906101000a900473ffffffffffffffffffffffffffffffffffffffff1673ffffffffffffffffffffffffffffffffffffffff163b11611c68576040517f08c379a0000000000000000000000000000000000000000000000000000000008152600401611c5f906150c0565b60405180910390fd5b600f81604051611c789190614fd2565b90815260200160405180910390205f9054906101000a900473ffffffffffffffffffffffffffffffffffffffff16600b5f6101000a81548173ffffffffffffffffffffffffffffffffffffffff021916908373ffffffffffffffffffffffffffffffffffffffff160217905550600b5f9054906101000a900473ffffffffffffffffffffffffffffffffffffffff1673ffffffffffffffffffffffffffffffffffffffff167f7aed1d3e8155a07ccf395e44ea3109a0e2d6c9b29bbbe9f142d9790596f4dc8060405160405180910390a250565b5f805f8373ffffffffffffffffffffffffffffffffffffffff1673ffffffffffffffffffffffffffffffffffffffff1681526020019081526020015f20549050919050565b611d99612d2e565b611da25f6130d6565b565b6010602052805f5260405f205f915090505481565b5f6060805f805f6060611dca613199565b611dd26131d4565b46305f801b5f67ffffffffffffffff811115611df157611df0613fb6565b5b604051908082528060200260200182016040528015611e1f5781602001602082028036833780820191505090505b507f0f00000000000000000000000000000000000000000000000000000000000000959493929190965096509650965096509650965090919293949596565b611e66612d2e565b611e6e612f38565b610e10600e54611e7e91906146eb565b421015611ec0576040517f08c379a0000000000000000000000000000000000000000000000000000000008152600401611eb79061514e565b60405180910390fd5b818190508484905014611f08576040517f08c379a0000000000000000000000000000000000000000000000000000000008152600401611eff906151dc565b60405180910390fd5b5f84849050118015611f1e575060328484905011155b611f5d576040517f08c379a0000000000000000000000000000000000000000000000000000000008152600401611f549061526a565b60405180910390fd5b5f805b83839050811015611ffa575f848483818110611f7f57611f7e615288565b5b9050602002013511611fc6576040517f08c379a0000000000000000000000000000000000000000000000000000000008152600401611fbd90614ba6565b60405180910390fd5b838382818110611fd957611fd8615288565b5b9050602002013582611feb91906146eb565b91508080600101915050611f60565b508061200533611d4c565b1015612046576040517f08c379a000000000000000000000000000000000000000000000000000000000815260040161203d90615325565b60405180910390fd5b5f5b85859050811015612140575f73ffffffffffffffffffffffffffffffffffffffff1686868381811061207d5761207c615288565b5b90506020020160208101906120929190613dcc565b73ffffffffffffffffffffffffffffffffffffffff16036120e8576040517f08c379a00000000000000000000000000000000000000000000000000000000081526004016120df9061481c565b60405180910390fd5b612133338787848181106120ff576120fe615288565b5b90506020020160208101906121149190613dcc565b86868581811061212757612126615288565b5b90506020020135612e48565b8080600101915050612048565b5042600e819055507f2a8b481c4fd6b79532b02dcb3d102185cbfaf1fe525ae1283184c2fb15cbca1d8585858560405161217d9493929190615467565b60405180910390a15061218e612f87565b50505050565b5f60055f9054906101000a900473ffffffffffffffffffffffffffffffffffffffff16905090565b600d5481565b610e1081565b6060600480546121d79061447c565b80601f01602080910402602001604051908101604052809291908181526020018280546122039061447c565b801561224e5780601f106122255761010080835404028352916020019161224e565b820191905f5260205f20905b81548152906001019060200180831161223157829003601f168201915b5050505050905090565b5f600c54905090565b612269612d2e565b612271612f38565b5f8211801561227f57505f81115b6122be576040517f08c379a00000000000000000000000000000000000000000000000000000000081526004016122b590615510565b60405180910390fd5b816122c830611d4c565b1015612309576040517f08c379a000000000000000000000000000000000000000000000000000000000815260040161230090615578565b60405180910390fd5b8047101561234c576040517f08c379a000000000000000000000000000000000000000000000000000000000815260040161234390614a6f565b60405180910390fd5b5f600b5f9054906101000a900473ffffffffffffffffffffffffffffffffffffffff1673ffffffffffffffffffffffffffffffffffffffff163b116123c6576040517f08c379a00000000000000000000000000000000000000000000000000000000081526004016123bd906150c0565b60405180910390fd5b6123f230600b5f9054906101000a900473ffffffffffffffffffffffffffffffffffffffff1684612d1c565b5f600b5f9054906101000a900473ffffffffffffffffffffffffffffffffffffffff1673ffffffffffffffffffffffffffffffffffffffff1663f305d7198330865f8061243d612194565b426040518863ffffffff1660e01b815260040161245f969594939291906155d8565b60606040518083038185885af115801561247b573d5f803e3d5ffd5b50505050506040513d601f19601f820116820180604052508101906124a0919061564b565b925050505f81116124e6576040517f08c379a00000000000000000000000000000000000000000000000000000000081526004016124dd9061570b565b60405180910390fd5b600b5f9054906101000a900473ffffffffffffffffffffffffffffffffffffffff1673ffffffffffffffffffffffffffffffffffffffff167f0351f600ef1e31e5e13b4dc27bff4cbde3e9269f0ffc666629ae6cac573eb220848460405161254f929190615729565b60405180910390a250612560612f87565b5050565b60115481565b5f60095f9054906101000a900460ff16156125ba576040517f08c379a00000000000000000000000000000000000000000000000000000000081526004016125b1906144f6565b60405180910390fd5b6125c2612f38565b5f73ffffffffffffffffffffffffffffffffffffffff168373ffffffffffffffffffffffffffffffffffffffff1603612630576040517f08c379a00000000000000000000000000000000000000000000000000000000081526004016126279061481c565b60405180910390fd5b5f8211612672576040517f08c379a000000000000000000000000000000000000000000000000000000000815260040161266990614ba6565b60405180910390fd5b8161267c33611d4c565b10156126bd576040517f08c379a00000000000000000000000000000000000000000000000000000000081526004016126b490614d04565b60405180910390fd5b6126c8338484612e48565b600190506126d4612f87565b92915050565b5f601254905090565b600c5481565b6b033b2e3c9fd0803ce800000081565b60125481565b612707612d2e565b60095f9054906101000a900460ff1615612756576040517f08c379a000000000000000000000000000000000000000000000000000000000815260040161274d906144f6565b60405180910390fd5b61275e612f38565b5f81116127a0576040517f08c379a000000000000000000000000000000000000000000000000000000000815260040161279790614ba6565b60405180910390fd5b6127ab333083612e48565b3373ffffffffffffffffffffffffffffffffffffffff167f59062170a285eb80e8c6b8ced60428442a51910635005233fc4ce084a475845e826040516127f19190613ce6565b60405180910390a2612801612f87565b50565b5f60015f8473ffffffffffffffffffffffffffffffffffffffff1673ffffffffffffffffffffffffffffffffffffffff1681526020019081526020015f205f8373ffffffffffffffffffffffffffffffffffffffff1673ffffffffffffffffffffffffffffffffffffffff1681526020019081526020015f2054905092915050565b61288e612f38565b600960019054906101000a900473ffffffffffffffffffffffffffffffffffffffff1673ffffffffffffffffffffffffffffffffffffffff163373ffffffffffffffffffffffffffffffffffffffff161461291e576040517f08c379a0000000000000000000000000000000000000000000000000000000008152600401612915906157c0565b60405180910390fd5b5f73ffffffffffffffffffffffffffffffffffffffff16600960019054906101000a900473ffffffffffffffffffffffffffffffffffffffff1673ffffffffffffffffffffffffffffffffffffffff16036129ae576040517f08c379a00000000000000000000000000000000000000000000000000000000081526004016129a59061584e565b60405180910390fd5b5f6129b7612194565b90506129e4600960019054906101000a900473ffffffffffffffffffffffffffffffffffffffff16612bc6565b600960019054906101000a900473ffffffffffffffffffffffffffffffffffffffff1673ffffffffffffffffffffffffffffffffffffffff168173ffffffffffffffffffffffffffffffffffffffff167fcc386e9f3a11ade96a1ec3bbc09aa98992d655f545feaa1f9b1d5f0e5649b85b60405160405180910390a350612a69612f87565b565b612a73612d2e565b5f73ffffffffffffffffffffffffffffffffffffffff168173ffffffffffffffffffffffffffffffffffffffff1603612ae1576040517f08c379a0000000000000000000000000000000000000000000000000000000008152600401612ad8906158dc565b60405180910390fd5b5f8173ffffffffffffffffffffffffffffffffffffffff163b11612b3a576040517f08c379a0000000000000000000000000000000000000000000000000000000008152600401612b31906150c0565b60405180910390fd5b80600b5f6101000a81548173ffffffffffffffffffffffffffffffffffffffff021916908373ffffffffffffffffffffffffffffffffffffffff1602179055508073ffffffffffffffffffffffffffffffffffffffff167f7aed1d3e8155a07ccf395e44ea3109a0e2d6c9b29bbbe9f142d9790596f4dc8060405160405180910390a250565b600e5481565b612bce612d2e565b5f73ffffffffffffffffffffffffffffffffffffffff168173ffffffffffffffffffffffffffffffffffffffff1603612c3e575f6040517f1e4fbdf7000000000000000000000000000000000000000000000000000000008152600401612c359190613d0e565b60405180910390fd5b612c47816130d6565b50565b5f600b5f9054906101000a900473ffffffffffffffffffffffffffffffffffffffff16905090565b600a8054612c7f9061447c565b80601f0160208091040260200160405190810160405280929190818152602001828054612cab9061447c565b8015612cf65780601f10612ccd57610100808354040283529160200191612cf6565b820191905f5260205f20905b815481529060010190602001808311612cd957829003601f168201915b505050505081565b6201518081565b6b033b2e3c9fd0803ce800000081565b5f33905090565b612d29838383600161320f565b505050565b612d36612d15565b73ffffffffffffffffffffffffffffffffffffffff16612d54612194565b73ffffffffffffffffffffffffffffffffffffffff1614612db357612d77612d15565b6040517f118cdaa7000000000000000000000000000000000000000000000000000000008152600401612daa9190613d0e565b60405180910390fd5b565b5f612dc08484612804565b90507fffffffffffffffffffffffffffffffffffffffffffffffffffffffffffffffff811015612e425781811015612e33578281836040517ffb8f41b2000000000000000000000000000000000000000000000000000000008152600401612e2a939291906158fa565b60405180910390fd5b612e4184848484035f61320f565b5b50505050565b5f73ffffffffffffffffffffffffffffffffffffffff168373ffffffffffffffffffffffffffffffffffffffff1603612eb8575f6040517f96c6fd1e000000000000000000000000000000000000000000000000000000008152600401612eaf9190613d0e565b60405180910390fd5b5f73ffffffffffffffffffffffffffffffffffffffff168273ffffffffffffffffffffffffffffffffffffffff1603612f28575f6040517fec442f05000000000000000000000000000000000000000000000000000000008152600401612f1f9190613d0e565b60405180910390fd5b612f338383836133de565b505050565b600260065403612f7d576040517f08c379a0000000000000000000000000000000000000000000000000000000008152600401612f7490615979565b60405180910390fd5b6002600681905550565b6001600681905550565b5f73ffffffffffffffffffffffffffffffffffffffff168273ffffffffffffffffffffffffffffffffffffffff1603613001575f6040517fec442f05000000000000000000000000000000000000000000000000000000008152600401612ff89190613d0e565b60405180910390fd5b61300c5f83836133de565b5050565b5f73ffffffffffffffffffffffffffffffffffffffff168273ffffffffffffffffffffffffffffffffffffffff1603613080575f6040517f96c6fd1e0000000000000000000000000000000000000000000000000000000081526004016130779190613d0e565b60405180910390fd5b61308b825f836133de565b5050565b5f6130a161309b6135f7565b836136ad565b9050919050565b5f805f806130b8888888886136ed565b9250925092506130c882826137d4565b829350505050949350505050565b5f60055f9054906101000a900473ffffffffffffffffffffffffffffffffffffffff1690508160055f6101000a81548173ffffffffffffffffffffffffffffffffffffffff021916908373ffffffffffffffffffffffffffffffffffffffff1602179055508173ffffffffffffffffffffffffffffffffffffffff168173ffffffffffffffffffffffffffffffffffffffff167f8be0079c531659141344cd1fd0a4f28419497f9722a3daafe3b4186f6b6457e060405160405180910390a35050565b60606131cf60077f000000000000000000000000000000000000000000000000000000000000000061393690919063ffffffff16565b905090565b606061320a60087f000000000000000000000000000000000000000000000000000000000000000061393690919063ffffffff16565b905090565b5f73ffffffffffffffffffffffffffffffffffffffff168473ffffffffffffffffffffffffffffffffffffffff160361327f575f6040517fe602df050000000000000000000000000000000000000000000000000000000081526004016132769190613d0e565b60405180910390fd5b5f73ffffffffffffffffffffffffffffffffffffffff168373ffffffffffffffffffffffffffffffffffffffff16036132ef575f6040517f94280d620000000000000000000000000000000000000000000000000000000081526004016132e69190613d0e565b60405180910390fd5b8160015f8673ffffffffffffffffffffffffffffffffffffffff1673ffffffffffffffffffffffffffffffffffffffff1681526020019081526020015f205f8573ffffffffffffffffffffffffffffffffffffffff1673ffffffffffffffffffffffffffffffffffffffff1681526020019081526020015f208190555080156133d8578273ffffffffffffffffffffffffffffffffffffffff168473ffffffffffffffffffffffffffffffffffffffff167f8c5be1e5ebec7d5bd14f71427d1e84f3dd0314c0f7b2291e5b200ac8c7c3b925846040516133cf9190613ce6565b60405180910390a35b50505050565b5f73ffffffffffffffffffffffffffffffffffffffff168373ffffffffffffffffffffffffffffffffffffffff160361342e578060025f82825461342291906146eb565b925050819055506134fc565b5f805f8573ffffffffffffffffffffffffffffffffffffffff1673ffffffffffffffffffffffffffffffffffffffff1681526020019081526020015f20549050818110156134b7578381836040517fe450d38c0000000000000000000000000000000000000000000000000000000081526004016134ae939291906158fa565b60405180910390fd5b8181035f808673ffffffffffffffffffffffffffffffffffffffff1673ffffffffffffffffffffffffffffffffffffffff1681526020019081526020015f2081905550505b5f73ffffffffffffffffffffffffffffffffffffffff168273ffffffffffffffffffffffffffffffffffffffff1603613543578060025f828254039250508190555061358d565b805f808473ffffffffffffffffffffffffffffffffffffffff1673ffffffffffffffffffffffffffffffffffffffff1681526020019081526020015f205f82825401925050819055505b8173ffffffffffffffffffffffffffffffffffffffff168373ffffffffffffffffffffffffffffffffffffffff167fddf252ad1be2c89b69c2b068fc378daa952ba7f163c4a11628f55a4df523b3ef836040516135ea9190613ce6565b60405180910390a3505050565b5f7f000000000000000000000000000000000000000000000000000000000000000073ffffffffffffffffffffffffffffffffffffffff163073ffffffffffffffffffffffffffffffffffffffff1614801561367257507f000000000000000000000000000000000000000000000000000000000000000046145b1561369f577f000000000000000000000000000000000000000000000000000000000000000090506136aa565b6136a76139e3565b90505b90565b5f6040517f190100000000000000000000000000000000000000000000000000000000000081528360028201528260228201526042812091505092915050565b5f805f7f7fffffffffffffffffffffffffffffff5d576e7357a4501ddfe92f46681b20a0845f1c1115613729575f6003859250925092506137ca565b5f6001888888886040515f815260200160405260405161374c9493929190615997565b6020604051602081039080840390855afa15801561376c573d5f803e3d5ffd5b5050506020604051035190505f73ffffffffffffffffffffffffffffffffffffffff168173ffffffffffffffffffffffffffffffffffffffff16036137bd575f60015f801b935093509350506137ca565b805f805f1b935093509350505b9450945094915050565b5f60038111156137e7576137e66159da565b5b8260038111156137fa576137f96159da565b5b03156139325760016003811115613814576138136159da565b5b826003811115613827576138266159da565b5b0361385e576040517ff645eedf00000000000000000000000000000000000000000000000000000000815260040160405180910390fd5b60026003811115613872576138716159da565b5b826003811115613885576138846159da565b5b036138c957805f1c6040517ffce698f70000000000000000000000000000000000000000000000000000000081526004016138c09190613ce6565b60405180910390fd5b6003808111156138dc576138db6159da565b5b8260038111156138ef576138ee6159da565b5b0361393157806040517fd78bce0c0000000000000000000000000000000000000000000000000000000081526004016139289190615a07565b60405180910390fd5b5b5050565b606060ff5f1b83146139525761394b83613a78565b90506139dd565b81805461395e9061447c565b80601f016020809104026020016040519081016040528092919081815260200182805461398a9061447c565b80156139d55780601f106139ac576101008083540402835291602001916139d5565b820191905f5260205f20905b8154815290600101906020018083116139b857829003601f168201915b505050505090505b92915050565b5f7f8b73c3c69bb8fe3d512ecc4cf759cc79239f7b179b0ffacaa9a75d522b39400f7f00000000000000000000000000000000000000000000000000000000000000007f00000000000000000000000000000000000000000000000000000000000000004630604051602001613a5d959493929190615a20565b60405160208183030381529060405280519060200120905090565b60605f613a8483613aea565b90505f602067ffffffffffffffff811115613aa257613aa1613fb6565b5b6040519080825280601f01601f191660200182016040528015613ad45781602001600182028036833780820191505090505b5090508181528360208201528092505050919050565b5f8060ff835f1c169050601f811115613b2f576040517fb3512b0c00000000000000000000000000000000000000000000000000000000815260040160405180910390fd5b80915050919050565b5f81519050919050565b5f82825260208201905092915050565b8281835e5f83830152505050565b5f601f19601f8301169050919050565b5f613b7a82613b38565b613b848185613b42565b9350613b94818560208601613b52565b613b9d81613b60565b840191505092915050565b5f6020820190508181035f830152613bc08184613b70565b905092915050565b5f604051905090565b5f80fd5b5f80fd5b5f73ffffffffffffffffffffffffffffffffffffffff82169050919050565b5f613c0282613bd9565b9050919050565b613c1281613bf8565b8114613c1c575f80fd5b50565b5f81359050613c2d81613c09565b92915050565b5f819050919050565b613c4581613c33565b8114613c4f575f80fd5b50565b5f81359050613c6081613c3c565b92915050565b5f8060408385031215613c7c57613c7b613bd1565b5b5f613c8985828601613c1f565b9250506020613c9a85828601613c52565b9150509250929050565b5f8115159050919050565b613cb881613ca4565b82525050565b5f602082019050613cd15f830184613caf565b92915050565b613ce081613c33565b82525050565b5f602082019050613cf95f830184613cd7565b92915050565b613d0881613bf8565b82525050565b5f602082019050613d215f830184613cff565b92915050565b613d3081613ca4565b8114613d3a575f80fd5b50565b5f81359050613d4b81613d27565b92915050565b5f60208284031215613d6657613d65613bd1565b5b5f613d7384828501613d3d565b91505092915050565b5f805f60608486031215613d9357613d92613bd1565b5b5f613da086828701613c1f565b9350506020613db186828701613c1f565b9250506040613dc286828701613c52565b9150509250925092565b5f60208284031215613de157613de0613bd1565b5b5f613dee84828501613c1f565b91505092915050565b5f60ff82169050919050565b613e0c81613df7565b82525050565b5f602082019050613e255f830184613e03565b92915050565b5f60208284031215613e4057613e3f613bd1565b5b5f613e4d84828501613c52565b91505092915050565b613e5f81613df7565b8114613e69575f80fd5b50565b5f81359050613e7a81613e56565b92915050565b5f819050919050565b613e9281613e80565b8114613e9c575f80fd5b50565b5f81359050613ead81613e89565b92915050565b5f805f805f8060c08789031215613ecd57613ecc613bd1565b5b5f613eda89828a01613c1f565b9650506020613eeb89828a01613c52565b9550506040613efc89828a01613c52565b9450506060613f0d89828a01613e6c565b9350506080613f1e89828a01613e9f565b92505060a0613f2f89828a01613e9f565b9150509295509295509295565b5f81519050919050565b5f82825260208201905092915050565b5f613f6082613f3c565b613f6a8185613f46565b9350613f7a818560208601613b52565b613f8381613b60565b840191505092915050565b5f6020820190508181035f830152613fa68184613f56565b905092915050565b5f80fd5b5f80fd5b7f4e487b71000000000000000000000000000000000000000000000000000000005f52604160045260245ffd5b613fec82613b60565b810181811067ffffffffffffffff8211171561400b5761400a613fb6565b5b80604052505050565b5f61401d613bc8565b90506140298282613fe3565b919050565b5f67ffffffffffffffff82111561404857614047613fb6565b5b61405182613b60565b9050602081019050919050565b828183375f83830152505050565b5f61407e6140798461402e565b614014565b90508281526020810184848401111561409a57614099613fb2565b5b6140a584828561405e565b509392505050565b5f82601f8301126140c1576140c0613fae565b5b81356140d184826020860161406c565b91505092915050565b5f602082840312156140ef576140ee613bd1565b5b5f82013567ffffffffffffffff81111561410c5761410b613bd5565b5b614118848285016140ad565b91505092915050565b5f7fff0000000000000000000000000000000000000000000000000000000000000082169050919050565b61415581614121565b82525050565b61416481613e80565b82525050565b5f81519050919050565b5f82825260208201905092915050565b5f819050602082019050919050565b61419c81613c33565b82525050565b5f6141ad8383614193565b60208301905092915050565b5f602082019050919050565b5f6141cf8261416a565b6141d98185614174565b93506141e483614184565b805f5b838110156142145781516141fb88826141a2565b9750614206836141b9565b9250506001810190506141e7565b5085935050505092915050565b5f60e0820190506142345f83018a61414c565b81810360208301526142468189613b70565b9050818103604083015261425a8188613b70565b90506142696060830187613cd7565b6142766080830186613cff565b61428360a083018561415b565b81810360c083015261429581846141c5565b905098975050505050505050565b5f80fd5b5f80fd5b5f8083601f8401126142c0576142bf613fae565b5b8235905067ffffffffffffffff8111156142dd576142dc6142a3565b5b6020830191508360208202830111156142f9576142f86142a7565b5b9250929050565b5f8083601f84011261431557614314613fae565b5b8235905067ffffffffffffffff811115614332576143316142a3565b5b60208301915083602082028301111561434e5761434d6142a7565b5b9250929050565b5f805f806040858703121561436d5761436c613bd1565b5b5f85013567ffffffffffffffff81111561438a57614389613bd5565b5b614396878288016142ab565b9450945050602085013567ffffffffffffffff8111156143b9576143b8613bd5565b5b6143c587828801614300565b925092505092959194509250565b5f80604083850312156143e9576143e8613bd1565b5b5f6143f685828601613c52565b925050602061440785828601613c52565b9150509250929050565b5f806040838503121561442757614426613bd1565b5b5f61443485828601613c1f565b925050602061444585828601613c1f565b9150509250929050565b7f4e487b71000000000000000000000000000000000000000000000000000000005f52602260045260245ffd5b5f600282049050600182168061449357607f821691505b6020821081036144a6576144a561444f565b5b50919050565b7f48e1bba37020c491e1bb936e6720c491616e672074e1baa16d2064e1bbab6e675f82015250565b5f6144e0602083613b42565b91506144eb826144ac565b602082019050919050565b5f6020820190508181035f83015261450d816144d4565b9050919050565b7f53e1bb91206cc6b0e1bba36e672076c6b0e1bba374207175c3a12073e1bb91205f8201527f64c6b02068e1bba37020c491e1bb936e67000000000000000000000000000000602082015250565b5f61456e603183613b42565b915061457982614514565b604082019050919050565b5f6020820190508181035f83015261459b81614562565b9050919050565b7fc490e1bb8b61206368e1bb892076c3ad2064e1bbb1207068c3b26e67206b68c35f8201527fb46e672068e1bba370206ce1bb87000000000000000000000000000000000000602082015250565b5f6145fc602e83613b42565b9150614607826145a2565b604082019050919050565b5f6020820190508181035f830152614629816145f0565b9050919050565b7f56c3ad2064e1bbb1207068c3b26e67206b68c3b46e6720c491c6b0e1bba363205f8201527f7472c3b96e672076e1bb9b69206f776e65720000000000000000000000000000602082015250565b5f61468a603283613b42565b915061469582614630565b604082019050919050565b5f6020820190508181035f8301526146b78161467e565b9050919050565b7f4e487b71000000000000000000000000000000000000000000000000000000005f52601160045260245ffd5b5f6146f582613c33565b915061470083613c33565b9250828201905080821115614718576147176146be565b5b92915050565b7f4368c6b0612068e1babf74207468e1bb9d69206769616e206b68c3b361206d695f8201527f6e74000000000000000000000000000000000000000000000000000000000000602082015250565b5f614778602283613b42565b91506147838261471e565b604082019050919050565b5f6020820190508181035f8301526147a58161476c565b9050919050565b7fc490e1bb8b61206368e1bb89206e68e1baad6e206b68c3b46e672068e1bba3705f8201527f206ce1bb87000000000000000000000000000000000000000000000000000000602082015250565b5f614806602583613b42565b9150614811826147ac565b604082019050919050565b5f6020820190508181035f830152614833816147fa565b9050919050565b7f53e1bb91206cc6b0e1bba36e67206d696e74206b68c3b46e672068e1bba370205f8201527f6ce1bb8700000000000000000000000000000000000000000000000000000000602082015250565b5f614894602483613b42565b915061489f8261483a565b604082019050919050565b5f6020820190508181035f8301526148c181614888565b9050919050565b5f6148d282613c33565b91506148dd83613c33565b92508282026148eb81613c33565b91508282048414831517614902576149016146be565b5b5092915050565b7f56c6b0e1bba374207175c3a12074e1bb956e672063756e672074e1bb916920c45f8201527f9161000000000000000000000000000000000000000000000000000000000000602082015250565b5f614963602283613b42565b915061496e82614909565b604082019050919050565b5f6020820190508181035f83015261499081614957565b9050919050565b7f4368e1bb89206f776e6572206de1bb9b692063c3b3207468e1bb832072c3ba745f8201527f2045544800000000000000000000000000000000000000000000000000000000602082015250565b5f6149f1602483613b42565b91506149fc82614997565b604082019050919050565b5f6020820190508181035f830152614a1e816149e5565b9050919050565b7f53e1bb912064c6b020455448206b68c3b46e6720c491e1bba7000000000000005f82015250565b5f614a59601983613b42565b9150614a6482614a25565b602082019050919050565b5f6020820190508181035f830152614a8681614a4d565b9050919050565b5f81905092915050565b50565b5f614aa55f83614a8d565b9150614ab082614a97565b5f82019050919050565b5f614ac482614a9a565b9150819050919050565b7f4b68c3b46e672067e1bbad6920c491c6b0e1bba36320455448000000000000005f82015250565b5f614b02601983613b42565b9150614b0d82614ace565b602082019050919050565b5f6020820190508181035f830152614b2f81614af6565b9050919050565b7f53e1bb91206cc6b0e1bba36e67207068e1baa369206ce1bb9b6e2068c6a16e205f8201527f3000000000000000000000000000000000000000000000000000000000000000602082015250565b5f614b90602183613b42565b9150614b9b82614b36565b604082019050919050565b5f6020820190508181035f830152614bbd81614b84565b9050919050565b7fc490e1bb8b61206368e1bb89206e67c6b0e1bb9d692067e1bbad69206b68c3b45f8201527f6e672068e1bba370206ce1bb8700000000000000000000000000000000000000602082015250565b5f614c1e602d83613b42565b9150614c2982614bc4565b604082019050919050565b5f6020820190508181035f830152614c4b81614c12565b9050919050565b7f4e6f6e6365206b68c3b46e67206b68e1bb9b70000000000000000000000000005f82015250565b5f614c86601383613b42565b9150614c9182614c52565b602082019050919050565b5f6020820190508181035f830152614cb381614c7a565b9050919050565b7f53e1bb912064c6b0206b68c3b46e6720c491e1bba700000000000000000000005f82015250565b5f614cee601583613b42565b9150614cf982614cba565b602082019050919050565b5f6020820190508181035f830152614d1b81614ce2565b9050919050565b7f4769c3a1207472e1bb8b2076206b68c3b46e672068e1bba370206ce1bb8700005f82015250565b5f614d56601e83613b42565b9150614d6182614d22565b602082019050919050565b5f6020820190508181035f830152614d8381614d4a565b9050919050565b7f4368e1bbaf206bc3bd207220686fe1bab7632073206b68c3b46e672068e1bba35f8201527f70206ce1bb870000000000000000000000000000000000000000000000000000602082015250565b5f614de4602683613b42565b9150614def82614d8a565b604082019050919050565b5f6020820190508181035f830152614e1181614dd8565b9050919050565b7f4e6f6e636520c491c3a320c491e1baa174206769e1bb9b692068e1baa16e20745f8201527fe1bb916920c49161000000000000000000000000000000000000000000000000602082015250565b5f614e72602883613b42565b9150614e7d82614e18565b604082019050919050565b5f6020820190508181035f830152614e9f81614e66565b9050919050565b5f608082019050614eb95f83018761415b565b614ec66020830186613cff565b614ed36040830185613cd7565b614ee06060830184613cd7565b95945050505050565b7f4368e1bbaf206bc3bd206b68c3b46e672068e1bba370206ce1bb8700000000005f82015250565b5f614f1d601b83613b42565b9150614f2882614ee9565b602082019050919050565b5f6020820190508181035f830152614f4a81614f11565b9050919050565b5f614f5b82613c33565b91507fffffffffffffffffffffffffffffffffffffffffffffffffffffffffffffffff8203614f8d57614f8c6146be565b5b600182019050919050565b5f81905092915050565b5f614fac82613b38565b614fb68185614f98565b9350614fc6818560208601613b52565b80840191505092915050565b5f614fdd8284614fa2565b915081905092915050565b7f54c3aa6e20444558206b68c3b46e672068e1bba370206ce1bb870000000000005f82015250565b5f61501c601a83613b42565b915061502782614fe8565b602082019050919050565b5f6020820190508181035f83015261504981615010565b9050919050565b7f526f75746572206b68c3b46e67207068e1baa369206cc3a02068e1bba37020c45f8201527f91e1bb936e670000000000000000000000000000000000000000000000000000602082015250565b5f6150aa602683613b42565b91506150b582615050565b604082019050919050565b5f6020820190508181035f8301526150d78161509e565b9050919050565b7f4368c6b0612068e1babf74207468e1bb9d69206769616e206b68c3b3612062615f8201527f746368207472616e736665720000000000000000000000000000000000000000602082015250565b5f615138602c83613b42565b9150615143826150de565b604082019050919050565b5f6020820190508181035f8301526151658161512c565b9050919050565b7f53e1bb91206cc6b0e1bba36e6720c491e1bb8b61206368e1bb892076c3a020735f8201527fe1bb9120746f6b656e206b68c3b46e67206b68e1bb9b70000000000000000000602082015250565b5f6151c6603783613b42565b91506151d18261516c565b604082019050919050565b5f6020820190508181035f8301526151f3816151ba565b9050919050565b7fc490e1bb992064c3a069206de1baa36e67206b68c3b46e672068e1bba370206c5f8201527fe1bb870000000000000000000000000000000000000000000000000000000000602082015250565b5f615254602383613b42565b915061525f826151fa565b604082019050919050565b5f6020820190508181035f83015261528181615248565b9050919050565b7f4e487b71000000000000000000000000000000000000000000000000000000005f52603260045260245ffd5b7f53e1bb912064c6b0206b68c3b46e6720c491e1bba720c491e1bb83207468e1bb5f8201527fb163206869e1bb876e206261746368207472616e736665720000000000000000602082015250565b5f61530f603883613b42565b915061531a826152b5565b604082019050919050565b5f6020820190508181035f83015261533c81615303565b9050919050565b5f82825260208201905092915050565b5f819050919050565b61536581613bf8565b82525050565b5f615376838361535c565b60208301905092915050565b5f6153906020840184613c1f565b905092915050565b5f602082019050919050565b5f6153af8385615343565b93506153ba82615353565b805f5b858110156153f2576153cf8284615382565b6153d9888261536b565b97506153e483615398565b9250506001810190506153bd565b5085925050509392505050565b5f80fd5b82818337505050565b5f6154178385614174565b93507f07ffffffffffffffffffffffffffffffffffffffffffffffffffffffffffffff83111561544a576154496153ff565b5b60208302925061545b838584615403565b82840190509392505050565b5f6040820190508181035f8301526154808186886153a4565b9050818103602083015261549581848661540c565b905095945050505050565b7f53e1bb91206cc6b0e1bba36e67207468616e68206b686fe1baa36e206b68c3b45f8201527f6e672068e1bba370206ce1bb8700000000000000000000000000000000000000602082015250565b5f6154fa602d83613b42565b9150615505826154a0565b604082019050919050565b5f6020820190508181035f830152615527816154ee565b9050919050565b7f53e1bb912064c6b020746f6b656e206b68c3b46e6720c491e1bba700000000005f82015250565b5f615562601b83613b42565b915061556d8261552e565b602082019050919050565b5f6020820190508181035f83015261558f81615556565b9050919050565b5f819050919050565b5f819050919050565b5f6155c26155bd6155b884615596565b61559f565b613c33565b9050919050565b6155d2816155a8565b82525050565b5f60c0820190506155eb5f830189613cff565b6155f86020830188613cd7565b61560560408301876155c9565b61561260608301866155c9565b61561f6080830185613cff565b61562c60a0830184613cd7565b979650505050505050565b5f8151905061564581613c3c565b92915050565b5f805f6060848603121561566257615661613bd1565b5b5f61566f86828701615637565b935050602061568086828701615637565b925050604061569186828701615637565b9150509250925092565b7f4b68c3b46e672074e1baa16f20c491c6b0e1bba363207468616e68206b686fe15f8201527fbaa36e0000000000000000000000000000000000000000000000000000000000602082015250565b5f6156f5602383613b42565b91506157008261569b565b604082019050919050565b5f6020820190508181035f830152615722816156e9565b9050919050565b5f60408201905061573c5f830185613cd7565b6157496020830184613cd7565b9392505050565b7f4368e1bb892076c3ad2064e1bbb1207068c3b26e67206de1bb9b692067e1bb8d5f8201527f6920c491c6b0e1bba3632068c3a06d206ec3a079000000000000000000000000602082015250565b5f6157aa603483613b42565b91506157b582615750565b604082019050919050565b5f6020820190508181035f8301526157d78161579e565b9050919050565b7f56c3ad2064e1bbb1207068c3b26e67206368c6b06120c491c6b0e1bba36320c45f8201527f91e1bab774000000000000000000000000000000000000000000000000000000602082015250565b5f615838602583613b42565b9150615843826157de565b604082019050919050565b5f6020820190508181035f8301526158658161582c565b9050919050565b7fc490e1bb8b61206368e1bb8920726f75746572206b68c3b46e672068e1bba3705f8201527f206ce1bb87000000000000000000000000000000000000000000000000000000602082015250565b5f6158c6602583613b42565b91506158d18261586c565b604082019050919050565b5f6020820190508181035f8301526158f3816158ba565b9050919050565b5f60608201905061590d5f830186613cff565b61591a6020830185613cd7565b6159276040830184613cd7565b949350505050565b7f5265656e7472616e637947756172643a207265656e7472616e742063616c6c005f82015250565b5f615963601f83613b42565b915061596e8261592f565b602082019050919050565b5f6020820190508181035f83015261599081615957565b9050919050565b5f6080820190506159aa5f83018761415b565b6159b76020830186613e03565b6159c4604083018561415b565b6159d1606083018461415b565b95945050505050565b7f4e487b71000000000000000000000000000000000000000000000000000000005f52602160045260245ffd5b5f602082019050615a1a5f83018461415b565b92915050565b5f60a082019050615a335f83018861415b565b615a40602083018761415b565b615a4d604083018661415b565b615a5a6060830185613cd7565b615a676080830184613cff565b969550505050505056fea2646970667358221220152fc964e7d52134e1fe8f364cd25e0619a1b5be4f46c7956aff08c7be352b2364736f6c634300081a0033",
			"opcodes": "PUSH2 0x160 PUSH1 0x40 MSTORE CALLVALUE DUP1 ISZERO PUSH2 0x10 JUMPI PUSH0 DUP1 REVERT JUMPDEST POP PUSH1 0x40 MLOAD PUSH2 0x6C14 CODESIZE SUB DUP1 PUSH2 0x6C14 DUP4 CODECOPY DUP2 DUP2 ADD PUSH1 0x40 MSTORE DUP2 ADD SWAP1 PUSH2 0x32 SWAP2 SWAP1 PUSH2 0x9EB JUMP JUMPDEST PUSH1 0x40 MLOAD DUP1 PUSH1 0x40 ADD PUSH1 0x40 MSTORE DUP1 PUSH1 0xC DUP2 MSTORE PUSH1 0x20 ADD PUSH32 0x546F6B656E466163746F72790000000000000000000000000000000000000000 DUP2 MSTORE POP PUSH1 0x40 MLOAD DUP1 PUSH1 0x40 ADD PUSH1 0x40 MSTORE DUP1 PUSH1 0x1 DUP2 MSTORE PUSH1 0x20 ADD PUSH32 0x3100000000000000000000000000000000000000000000000000000000000000 DUP2 MSTORE POP CALLER DUP7 DUP7 DUP2 PUSH1 0x3 SWAP1 DUP2 PUSH2 0xB0 SWAP2 SWAP1 PUSH2 0xCB0 JUMP JUMPDEST POP DUP1 PUSH1 0x4 SWAP1 DUP2 PUSH2 0xC0 SWAP2 SWAP1 PUSH2 0xCB0 JUMP JUMPDEST POP POP POP PUSH0 PUSH20 0xFFFFFFFFFFFFFFFFFFFFFFFFFFFFFFFFFFFFFFFF AND DUP2 PUSH20 0xFFFFFFFFFFFFFFFFFFFFFFFFFFFFFFFFFFFFFFFF AND SUB PUSH2 0x133 JUMPI PUSH0 PUSH1 0x40 MLOAD PUSH32 0x1E4FBDF700000000000000000000000000000000000000000000000000000000 DUP2 MSTORE PUSH1 0x4 ADD PUSH2 0x12A SWAP2 SWAP1 PUSH2 0xD8E JUMP JUMPDEST PUSH1 0x40 MLOAD DUP1 SWAP2 SUB SWAP1 REVERT JUMPDEST PUSH2 0x142 DUP2 PUSH2 0x3CE PUSH1 0x20 SHL PUSH1 0x20 SHR JUMP JUMPDEST POP PUSH1 0x1 PUSH1 0x6 DUP2 SWAP1 SSTORE POP PUSH2 0x15F PUSH1 0x7 DUP4 PUSH2 0x491 PUSH1 0x20 SHL SWAP1 SWAP2 SWAP1 PUSH1 0x20 SHR JUMP JUMPDEST PUSH2 0x120 DUP2 DUP2 MSTORE POP POP PUSH2 0x17B PUSH1 0x8 DUP3 PUSH2 0x491 PUSH1 0x20 SHL SWAP1 SWAP2 SWAP1 PUSH1 0x20 SHR JUMP JUMPDEST PUSH2 0x140 DUP2 DUP2 MSTORE POP POP DUP2 DUP1 MLOAD SWAP1 PUSH1 0x20 ADD KECCAK256 PUSH1 0xE0 DUP2 DUP2 MSTORE POP POP DUP1 DUP1 MLOAD SWAP1 PUSH1 0x20 ADD KECCAK256 PUSH2 0x100 DUP2 DUP2 MSTORE POP POP CHAINID PUSH1 0xA0 DUP2 DUP2 MSTORE POP POP PUSH2 0x1B8 PUSH2 0x4DE PUSH1 0x20 SHL PUSH1 0x20 SHR JUMP JUMPDEST PUSH1 0x80 DUP2 DUP2 MSTORE POP POP ADDRESS PUSH20 0xFFFFFFFFFFFFFFFFFFFFFFFFFFFFFFFFFFFFFFFF AND PUSH1 0xC0 DUP2 PUSH20 0xFFFFFFFFFFFFFFFFFFFFFFFFFFFFFFFFFFFFFFFF AND DUP2 MSTORE POP POP POP POP PUSH2 0x211 CALLER PUSH12 0x33B2E3C9FD0803CE8000000 PUSH2 0x538 PUSH1 0x20 SHL PUSH1 0x20 SHR JUMP JUMPDEST PUSH12 0x33B2E3C9FD0803CE8000000 PUSH1 0x11 DUP2 SWAP1 SSTORE POP DUP2 PUSH1 0xA SWAP1 DUP2 PUSH2 0x233 SWAP2 SWAP1 PUSH2 0xCB0 JUMP JUMPDEST POP DUP1 PUSH1 0xB PUSH0 PUSH2 0x100 EXP DUP2 SLOAD DUP2 PUSH20 0xFFFFFFFFFFFFFFFFFFFFFFFFFFFFFFFFFFFFFFFF MUL NOT AND SWAP1 DUP4 PUSH20 0xFFFFFFFFFFFFFFFFFFFFFFFFFFFFFFFFFFFFFFFF AND MUL OR SWAP1 SSTORE POP TIMESTAMP PUSH1 0xC DUP2 SWAP1 SSTORE POP PUSH20 0x10ED43C718714EB63D5AA57B78B54704E256024E PUSH1 0xF PUSH1 0x40 MLOAD PUSH2 0x29E SWAP1 PUSH2 0xDFB JUMP JUMPDEST SWAP1 DUP2 MSTORE PUSH1 0x20 ADD PUSH1 0x40 MLOAD DUP1 SWAP2 SUB SWAP1 KECCAK256 PUSH0 PUSH2 0x100 EXP DUP2 SLOAD DUP2 PUSH20 0xFFFFFFFFFFFFFFFFFFFFFFFFFFFFFFFFFFFFFFFF MUL NOT AND SWAP1 DUP4 PUSH20 0xFFFFFFFFFFFFFFFFFFFFFFFFFFFFFFFFFFFFFFFF AND MUL OR SWAP1 SSTORE POP PUSH20 0x7A250D5630B4CF539739DF2C5DACB4C659F2488D PUSH1 0xF PUSH1 0x40 MLOAD PUSH2 0x30C SWAP1 PUSH2 0xE59 JUMP JUMPDEST SWAP1 DUP2 MSTORE PUSH1 0x20 ADD PUSH1 0x40 MLOAD DUP1 SWAP2 SUB SWAP1 KECCAK256 PUSH0 PUSH2 0x100 EXP DUP2 SLOAD DUP2 PUSH20 0xFFFFFFFFFFFFFFFFFFFFFFFFFFFFFFFFFFFFFFFF MUL NOT AND SWAP1 DUP4 PUSH20 0xFFFFFFFFFFFFFFFFFFFFFFFFFFFFFFFFFFFFFFFF AND MUL OR SWAP1 SSTORE POP PUSH0 PUSH20 0xFFFFFFFFFFFFFFFFFFFFFFFFFFFFFFFFFFFFFFFF AND DUP2 PUSH20 0xFFFFFFFFFFFFFFFFFFFFFFFFFFFFFFFFFFFFFFFF AND SUB PUSH2 0x3C5 JUMPI PUSH1 0x40 MLOAD PUSH32 0x8C379A000000000000000000000000000000000000000000000000000000000 DUP2 MSTORE PUSH1 0x4 ADD PUSH2 0x3BC SWAP1 PUSH2 0xEED JUMP JUMPDEST PUSH1 0x40 MLOAD DUP1 SWAP2 SUB SWAP1 REVERT JUMPDEST POP POP POP POP PUSH2 0x111C JUMP JUMPDEST PUSH0 PUSH1 0x5 PUSH0 SWAP1 SLOAD SWAP1 PUSH2 0x100 EXP SWAP1 DIV PUSH20 0xFFFFFFFFFFFFFFFFFFFFFFFFFFFFFFFFFFFFFFFF AND SWAP1 POP DUP2 PUSH1 0x5 PUSH0 PUSH2 0x100 EXP DUP2 SLOAD DUP2 PUSH20 0xFFFFFFFFFFFFFFFFFFFFFFFFFFFFFFFFFFFFFFFF MUL NOT AND SWAP1 DUP4 PUSH20 0xFFFFFFFFFFFFFFFFFFFFFFFFFFFFFFFFFFFFFFFF AND MUL OR SWAP1 SSTORE POP DUP2 PUSH20 0xFFFFFFFFFFFFFFFFFFFFFFFFFFFFFFFFFFFFFFFF AND DUP2 PUSH20 0xFFFFFFFFFFFFFFFFFFFFFFFFFFFFFFFFFFFFFFFF AND PUSH32 0x8BE0079C531659141344CD1FD0A4F28419497F9722A3DAAFE3B4186F6B6457E0 PUSH1 0x40 MLOAD PUSH1 0x40 MLOAD DUP1 SWAP2 SUB SWAP1 LOG3 POP POP JUMP JUMPDEST PUSH0 PUSH1 0x20 DUP4 MLOAD LT ISZERO PUSH2 0x4B2 JUMPI PUSH2 0x4AB DUP4 PUSH2 0x5BD PUSH1 0x20 SHL PUSH1 0x20 SHR JUMP JUMPDEST SWAP1 POP PUSH2 0x4D8 JUMP JUMPDEST DUP3 PUSH2 0x4C2 DUP4 PUSH2 0x622 PUSH1 0x20 SHL PUSH1 0x20 SHR JUMP JUMPDEST PUSH0 ADD SWAP1 DUP2 PUSH2 0x4D0 SWAP2 SWAP1 PUSH2 0xCB0 JUMP JUMPDEST POP PUSH1 0xFF PUSH0 SHL SWAP1 POP JUMPDEST SWAP3 SWAP2 POP POP JUMP JUMPDEST PUSH0 PUSH32 0x8B73C3C69BB8FE3D512ECC4CF759CC79239F7B179B0FFACAA9A75D522B39400F PUSH1 0xE0 MLOAD PUSH2 0x100 MLOAD CHAINID ADDRESS PUSH1 0x40 MLOAD PUSH1 0x20 ADD PUSH2 0x51D SWAP6 SWAP5 SWAP4 SWAP3 SWAP2 SWAP1 PUSH2 0xF32 JUMP JUMPDEST PUSH1 0x40 MLOAD PUSH1 0x20 DUP2 DUP4 SUB SUB DUP2 MSTORE SWAP1 PUSH1 0x40 MSTORE DUP1 MLOAD SWAP1 PUSH1 0x20 ADD KECCAK256 SWAP1 POP SWAP1 JUMP JUMPDEST PUSH0 PUSH20 0xFFFFFFFFFFFFFFFFFFFFFFFFFFFFFFFFFFFFFFFF AND DUP3 PUSH20 0xFFFFFFFFFFFFFFFFFFFFFFFFFFFFFFFFFFFFFFFF AND SUB PUSH2 0x5A8 JUMPI PUSH0 PUSH1 0x40 MLOAD PUSH32 0xEC442F0500000000000000000000000000000000000000000000000000000000 DUP2 MSTORE PUSH1 0x4 ADD PUSH2 0x59F SWAP2 SWAP1 PUSH2 0xD8E JUMP JUMPDEST PUSH1 0x40 MLOAD DUP1 SWAP2 SUB SWAP1 REVERT JUMPDEST PUSH2 0x5B9 PUSH0 DUP4 DUP4 PUSH2 0x62B PUSH1 0x20 SHL PUSH1 0x20 SHR JUMP JUMPDEST POP POP JUMP JUMPDEST PUSH0 DUP1 DUP3 SWAP1 POP PUSH1 0x1F DUP2 MLOAD GT ISZERO PUSH2 0x609 JUMPI DUP3 PUSH1 0x40 MLOAD PUSH32 0x305A27A900000000000000000000000000000000000000000000000000000000 DUP2 MSTORE PUSH1 0x4 ADD PUSH2 0x600 SWAP2 SWAP1 PUSH2 0xFBB JUMP JUMPDEST PUSH1 0x40 MLOAD DUP1 SWAP2 SUB SWAP1 REVERT JUMPDEST DUP1 MLOAD DUP2 PUSH2 0x615 SWAP1 PUSH2 0x1008 JUMP JUMPDEST PUSH0 SHR OR PUSH0 SHL SWAP2 POP POP SWAP2 SWAP1 POP JUMP JUMPDEST PUSH0 DUP2 SWAP1 POP SWAP2 SWAP1 POP JUMP JUMPDEST PUSH0 PUSH20 0xFFFFFFFFFFFFFFFFFFFFFFFFFFFFFFFFFFFFFFFF AND DUP4 PUSH20 0xFFFFFFFFFFFFFFFFFFFFFFFFFFFFFFFFFFFFFFFF AND SUB PUSH2 0x67B JUMPI DUP1 PUSH1 0x2 PUSH0 DUP3 DUP3 SLOAD PUSH2 0x66F SWAP2 SWAP1 PUSH2 0x109B JUMP JUMPDEST SWAP3 POP POP DUP2 SWAP1 SSTORE POP PUSH2 0x749 JUMP JUMPDEST PUSH0 DUP1 PUSH0 DUP6 PUSH20 0xFFFFFFFFFFFFFFFFFFFFFFFFFFFFFFFFFFFFFFFF AND PUSH20 0xFFFFFFFFFFFFFFFFFFFFFFFFFFFFFFFFFFFFFFFF AND DUP2 MSTORE PUSH1 0x20 ADD SWAP1 DUP2 MSTORE PUSH1 0x20 ADD PUSH0 KECCAK256 SLOAD SWAP1 POP DUP2 DUP2 LT ISZERO PUSH2 0x704 JUMPI DUP4 DUP2 DUP4 PUSH1 0x40 MLOAD PUSH32 0xE450D38C00000000000000000000000000000000000000000000000000000000 DUP2 MSTORE PUSH1 0x4 ADD PUSH2 0x6FB SWAP4 SWAP3 SWAP2 SWAP1 PUSH2 0x10CE JUMP JUMPDEST PUSH1 0x40 MLOAD DUP1 SWAP2 SUB SWAP1 REVERT JUMPDEST DUP2 DUP2 SUB PUSH0 DUP1 DUP7 PUSH20 0xFFFFFFFFFFFFFFFFFFFFFFFFFFFFFFFFFFFFFFFF AND PUSH20 0xFFFFFFFFFFFFFFFFFFFFFFFFFFFFFFFFFFFFFFFF AND DUP2 MSTORE PUSH1 0x20 ADD SWAP1 DUP2 MSTORE PUSH1 0x20 ADD PUSH0 KECCAK256 DUP2 SWAP1 SSTORE POP POP JUMPDEST PUSH0 PUSH20 0xFFFFFFFFFFFFFFFFFFFFFFFFFFFFFFFFFFFFFFFF AND DUP3 PUSH20 0xFFFFFFFFFFFFFFFFFFFFFFFFFFFFFFFFFFFFFFFF AND SUB PUSH2 0x790 JUMPI DUP1 PUSH1 0x2 PUSH0 DUP3 DUP3 SLOAD SUB SWAP3 POP POP DUP2 SWAP1 SSTORE POP PUSH2 0x7DA JUMP JUMPDEST DUP1 PUSH0 DUP1 DUP5 PUSH20 0xFFFFFFFFFFFFFFFFFFFFFFFFFFFFFFFFFFFFFFFF AND PUSH20 0xFFFFFFFFFFFFFFFFFFFFFFFFFFFFFFFFFFFFFFFF AND DUP2 MSTORE PUSH1 0x20 ADD SWAP1 DUP2 MSTORE PUSH1 0x20 ADD PUSH0 KECCAK256 PUSH0 DUP3 DUP3 SLOAD ADD SWAP3 POP POP DUP2 SWAP1 SSTORE POP JUMPDEST DUP2 PUSH20 0xFFFFFFFFFFFFFFFFFFFFFFFFFFFFFFFFFFFFFFFF AND DUP4 PUSH20 0xFFFFFFFFFFFFFFFFFFFFFFFFFFFFFFFFFFFFFFFF AND PUSH32 0xDDF252AD1BE2C89B69C2B068FC378DAA952BA7F163C4A11628F55A4DF523B3EF DUP4 PUSH1 0x40 MLOAD PUSH2 0x837 SWAP2 SWAP1 PUSH2 0x1103 JUMP JUMPDEST PUSH1 0x40 MLOAD DUP1 SWAP2 SUB SWAP1 LOG3 POP POP POP JUMP JUMPDEST PUSH0 PUSH1 0x40 MLOAD SWAP1 POP SWAP1 JUMP JUMPDEST PUSH0 DUP1 REVERT JUMPDEST PUSH0 DUP1 REVERT JUMPDEST PUSH0 DUP1 REVERT JUMPDEST PUSH0 DUP1 REVERT JUMPDEST PUSH0 PUSH1 0x1F NOT PUSH1 0x1F DUP4 ADD AND SWAP1 POP SWAP2 SWAP1 POP JUMP JUMPDEST PUSH32 0x4E487B7100000000000000000000000000000000000000000000000000000000 PUSH0 MSTORE PUSH1 0x41 PUSH1 0x4 MSTORE PUSH1 0x24 PUSH0 REVERT JUMPDEST PUSH2 0x8A3 DUP3 PUSH2 0x85D JUMP JUMPDEST DUP2 ADD DUP2 DUP2 LT PUSH8 0xFFFFFFFFFFFFFFFF DUP3 GT OR ISZERO PUSH2 0x8C2 JUMPI PUSH2 0x8C1 PUSH2 0x86D JUMP JUMPDEST JUMPDEST DUP1 PUSH1 0x40 MSTORE POP POP POP JUMP JUMPDEST PUSH0 PUSH2 0x8D4 PUSH2 0x844 JUMP JUMPDEST SWAP1 POP PUSH2 0x8E0 DUP3 DUP3 PUSH2 0x89A JUMP JUMPDEST SWAP2 SWAP1 POP JUMP JUMPDEST PUSH0 PUSH8 0xFFFFFFFFFFFFFFFF DUP3 GT ISZERO PUSH2 0x8FF JUMPI PUSH2 0x8FE PUSH2 0x86D JUMP JUMPDEST JUMPDEST PUSH2 0x908 DUP3 PUSH2 0x85D JUMP JUMPDEST SWAP1 POP PUSH1 0x20 DUP2 ADD SWAP1 POP SWAP2 SWAP1 POP JUMP JUMPDEST DUP3 DUP2 DUP4 MCOPY PUSH0 DUP4 DUP4 ADD MSTORE POP POP POP JUMP JUMPDEST PUSH0 PUSH2 0x935 PUSH2 0x930 DUP5 PUSH2 0x8E5 JUMP JUMPDEST PUSH2 0x8CB JUMP JUMPDEST SWAP1 POP DUP3 DUP2 MSTORE PUSH1 0x20 DUP2 ADD DUP5 DUP5 DUP5 ADD GT ISZERO PUSH2 0x951 JUMPI PUSH2 0x950 PUSH2 0x859 JUMP JUMPDEST JUMPDEST PUSH2 0x95C DUP5 DUP3 DUP6 PUSH2 0x915 JUMP JUMPDEST POP SWAP4 SWAP3 POP POP POP JUMP JUMPDEST PUSH0 DUP3 PUSH1 0x1F DUP4 ADD SLT PUSH2 0x978 JUMPI PUSH2 0x977 PUSH2 0x855 JUMP JUMPDEST JUMPDEST DUP2 MLOAD PUSH2 0x988 DUP5 DUP3 PUSH1 0x20 DUP7 ADD PUSH2 0x923 JUMP JUMPDEST SWAP2 POP POP SWAP3 SWAP2 POP POP JUMP JUMPDEST PUSH0 PUSH20 0xFFFFFFFFFFFFFFFFFFFFFFFFFFFFFFFFFFFFFFFF DUP3 AND SWAP1 POP SWAP2 SWAP1 POP JUMP JUMPDEST PUSH0 PUSH2 0x9BA DUP3 PUSH2 0x991 JUMP JUMPDEST SWAP1 POP SWAP2 SWAP1 POP JUMP JUMPDEST PUSH2 0x9CA DUP2 PUSH2 0x9B0 JUMP JUMPDEST DUP2 EQ PUSH2 0x9D4 JUMPI PUSH0 DUP1 REVERT JUMPDEST POP JUMP JUMPDEST PUSH0 DUP2 MLOAD SWAP1 POP PUSH2 0x9E5 DUP2 PUSH2 0x9C1 JUMP JUMPDEST SWAP3 SWAP2 POP POP JUMP JUMPDEST PUSH0 DUP1 PUSH0 DUP1 PUSH1 0x80 DUP6 DUP8 SUB SLT ISZERO PUSH2 0xA03 JUMPI PUSH2 0xA02 PUSH2 0x84D JUMP JUMPDEST JUMPDEST PUSH0 DUP6 ADD MLOAD PUSH8 0xFFFFFFFFFFFFFFFF DUP2 GT ISZERO PUSH2 0xA20 JUMPI PUSH2 0xA1F PUSH2 0x851 JUMP JUMPDEST JUMPDEST PUSH2 0xA2C DUP8 DUP3 DUP9 ADD PUSH2 0x964 JUMP JUMPDEST SWAP5 POP POP PUSH1 0x20 DUP6 ADD MLOAD PUSH8 0xFFFFFFFFFFFFFFFF DUP2 GT ISZERO PUSH2 0xA4D JUMPI PUSH2 0xA4C PUSH2 0x851 JUMP JUMPDEST JUMPDEST PUSH2 0xA59 DUP8 DUP3 DUP9 ADD PUSH2 0x964 JUMP JUMPDEST SWAP4 POP POP PUSH1 0x40 DUP6 ADD MLOAD PUSH8 0xFFFFFFFFFFFFFFFF DUP2 GT ISZERO PUSH2 0xA7A JUMPI PUSH2 0xA79 PUSH2 0x851 JUMP JUMPDEST JUMPDEST PUSH2 0xA86 DUP8 DUP3 DUP9 ADD PUSH2 0x964 JUMP JUMPDEST SWAP3 POP POP PUSH1 0x60 PUSH2 0xA97 DUP8 DUP3 DUP9 ADD PUSH2 0x9D7 JUMP JUMPDEST SWAP2 POP POP SWAP3 SWAP6 SWAP2 SWAP5 POP SWAP3 POP JUMP JUMPDEST PUSH0 DUP2 MLOAD SWAP1 POP SWAP2 SWAP1 POP JUMP JUMPDEST PUSH32 0x4E487B7100000000000000000000000000000000000000000000000000000000 PUSH0 MSTORE PUSH1 0x22 PUSH1 0x4 MSTORE PUSH1 0x24 PUSH0 REVERT JUMPDEST PUSH0 PUSH1 0x2 DUP3 DIV SWAP1 POP PUSH1 0x1 DUP3 AND DUP1 PUSH2 0xAF1 JUMPI PUSH1 0x7F DUP3 AND SWAP2 POP JUMPDEST PUSH1 0x20 DUP3 LT DUP2 SUB PUSH2 0xB04 JUMPI PUSH2 0xB03 PUSH2 0xAAD JUMP JUMPDEST JUMPDEST POP SWAP2 SWAP1 POP JUMP JUMPDEST PUSH0 DUP2 SWAP1 POP DUP2 PUSH0 MSTORE PUSH1 0x20 PUSH0 KECCAK256 SWAP1 POP SWAP2 SWAP1 POP JUMP JUMPDEST PUSH0 PUSH1 0x20 PUSH1 0x1F DUP4 ADD DIV SWAP1 POP SWAP2 SWAP1 POP JUMP JUMPDEST PUSH0 DUP3 DUP3 SHL SWAP1 POP SWAP3 SWAP2 POP POP JUMP JUMPDEST PUSH0 PUSH1 0x8 DUP4 MUL PUSH2 0xB66 PUSH32 0xFFFFFFFFFFFFFFFFFFFFFFFFFFFFFFFFFFFFFFFFFFFFFFFFFFFFFFFFFFFFFFFF DUP3 PUSH2 0xB2B JUMP JUMPDEST PUSH2 0xB70 DUP7 DUP4 PUSH2 0xB2B JUMP JUMPDEST SWAP6 POP DUP1 NOT DUP5 AND SWAP4 POP DUP1 DUP7 AND DUP5 OR SWAP3 POP POP POP SWAP4 SWAP3 POP POP POP JUMP JUMPDEST PUSH0 DUP2 SWAP1 POP SWAP2 SWAP1 POP JUMP JUMPDEST PUSH0 DUP2 SWAP1 POP SWAP2 SWAP1 POP JUMP JUMPDEST PUSH0 PUSH2 0xBB4 PUSH2 0xBAF PUSH2 0xBAA DUP5 PUSH2 0xB88 JUMP JUMPDEST PUSH2 0xB91 JUMP JUMPDEST PUSH2 0xB88 JUMP JUMPDEST SWAP1 POP SWAP2 SWAP1 POP JUMP JUMPDEST PUSH0 DUP2 SWAP1 POP SWAP2 SWAP1 POP JUMP JUMPDEST PUSH2 0xBCD DUP4 PUSH2 0xB9A JUMP JUMPDEST PUSH2 0xBE1 PUSH2 0xBD9 DUP3 PUSH2 0xBBB JUMP JUMPDEST DUP5 DUP5 SLOAD PUSH2 0xB37 JUMP JUMPDEST DUP3 SSTORE POP POP POP POP JUMP JUMPDEST PUSH0 SWAP1 JUMP JUMPDEST PUSH2 0xBF5 PUSH2 0xBE9 JUMP JUMPDEST PUSH2 0xC00 DUP2 DUP5 DUP5 PUSH2 0xBC4 JUMP JUMPDEST POP POP POP JUMP JUMPDEST JUMPDEST DUP2 DUP2 LT ISZERO PUSH2 0xC23 JUMPI PUSH2 0xC18 PUSH0 DUP3 PUSH2 0xBED JUMP JUMPDEST PUSH1 0x1 DUP2 ADD SWAP1 POP PUSH2 0xC06 JUMP JUMPDEST POP POP JUMP JUMPDEST PUSH1 0x1F DUP3 GT ISZERO PUSH2 0xC68 JUMPI PUSH2 0xC39 DUP2 PUSH2 0xB0A JUMP JUMPDEST PUSH2 0xC42 DUP5 PUSH2 0xB1C JUMP JUMPDEST DUP2 ADD PUSH1 0x20 DUP6 LT ISZERO PUSH2 0xC51 JUMPI DUP2 SWAP1 POP JUMPDEST PUSH2 0xC65 PUSH2 0xC5D DUP6 PUSH2 0xB1C JUMP JUMPDEST DUP4 ADD DUP3 PUSH2 0xC05 JUMP JUMPDEST POP POP JUMPDEST POP POP POP JUMP JUMPDEST PUSH0 DUP3 DUP3 SHR SWAP1 POP SWAP3 SWAP2 POP POP JUMP JUMPDEST PUSH0 PUSH2 0xC88 PUSH0 NOT DUP5 PUSH1 0x8 MUL PUSH2 0xC6D JUMP JUMPDEST NOT DUP1 DUP4 AND SWAP2 POP POP SWAP3 SWAP2 POP POP JUMP JUMPDEST PUSH0 PUSH2 0xCA0 DUP4 DUP4 PUSH2 0xC79 JUMP JUMPDEST SWAP2 POP DUP3 PUSH1 0x2 MUL DUP3 OR SWAP1 POP SWAP3 SWAP2 POP POP JUMP JUMPDEST PUSH2 0xCB9 DUP3 PUSH2 0xAA3 JUMP JUMPDEST PUSH8 0xFFFFFFFFFFFFFFFF DUP2 GT ISZERO PUSH2 0xCD2 JUMPI PUSH2 0xCD1 PUSH2 0x86D JUMP JUMPDEST JUMPDEST PUSH2 0xCDC DUP3 SLOAD PUSH2 0xADA JUMP JUMPDEST PUSH2 0xCE7 DUP3 DUP3 DUP6 PUSH2 0xC27 JUMP JUMPDEST PUSH0 PUSH1 0x20 SWAP1 POP PUSH1 0x1F DUP4 GT PUSH1 0x1 DUP2 EQ PUSH2 0xD18 JUMPI PUSH0 DUP5 ISZERO PUSH2 0xD06 JUMPI DUP3 DUP8 ADD MLOAD SWAP1 POP JUMPDEST PUSH2 0xD10 DUP6 DUP3 PUSH2 0xC95 JUMP JUMPDEST DUP7 SSTORE POP PUSH2 0xD77 JUMP JUMPDEST PUSH1 0x1F NOT DUP5 AND PUSH2 0xD26 DUP7 PUSH2 0xB0A JUMP JUMPDEST PUSH0 JUMPDEST DUP3 DUP2 LT ISZERO PUSH2 0xD4D JUMPI DUP5 DUP10 ADD MLOAD DUP3 SSTORE PUSH1 0x1 DUP3 ADD SWAP2 POP PUSH1 0x20 DUP6 ADD SWAP5 POP PUSH1 0x20 DUP2 ADD SWAP1 POP PUSH2 0xD28 JUMP JUMPDEST DUP7 DUP4 LT ISZERO PUSH2 0xD6A JUMPI DUP5 DUP10 ADD MLOAD PUSH2 0xD66 PUSH1 0x1F DUP10 AND DUP3 PUSH2 0xC79 JUMP JUMPDEST DUP4 SSTORE POP JUMPDEST PUSH1 0x1 PUSH1 0x2 DUP9 MUL ADD DUP9 SSTORE POP POP POP JUMPDEST POP POP POP POP POP POP JUMP JUMPDEST PUSH2 0xD88 DUP2 PUSH2 0x9B0 JUMP JUMPDEST DUP3 MSTORE POP POP JUMP JUMPDEST PUSH0 PUSH1 0x20 DUP3 ADD SWAP1 POP PUSH2 0xDA1 PUSH0 DUP4 ADD DUP5 PUSH2 0xD7F JUMP JUMPDEST SWAP3 SWAP2 POP POP JUMP JUMPDEST PUSH0 DUP2 SWAP1 POP SWAP3 SWAP2 POP POP JUMP JUMPDEST PUSH32 0x50616E63616B6553776170000000000000000000000000000000000000000000 PUSH0 DUP3 ADD MSTORE POP JUMP JUMPDEST PUSH0 PUSH2 0xDE5 PUSH1 0xB DUP4 PUSH2 0xDA7 JUMP JUMPDEST SWAP2 POP PUSH2 0xDF0 DUP3 PUSH2 0xDB1 JUMP JUMPDEST PUSH1 0xB DUP3 ADD SWAP1 POP SWAP2 SWAP1 POP JUMP JUMPDEST PUSH0 PUSH2 0xE05 DUP3 PUSH2 0xDD9 JUMP JUMPDEST SWAP2 POP DUP2 SWAP1 POP SWAP2 SWAP1 POP JUMP JUMPDEST PUSH32 0x556E697377617000000000000000000000000000000000000000000000000000 PUSH0 DUP3 ADD MSTORE POP JUMP JUMPDEST PUSH0 PUSH2 0xE43 PUSH1 0x7 DUP4 PUSH2 0xDA7 JUMP JUMPDEST SWAP2 POP PUSH2 0xE4E DUP3 PUSH2 0xE0F JUMP JUMPDEST PUSH1 0x7 DUP3 ADD SWAP1 POP SWAP2 SWAP1 POP JUMP JUMPDEST PUSH0 PUSH2 0xE63 DUP3 PUSH2 0xE37 JUMP JUMPDEST SWAP2 POP DUP2 SWAP1 POP SWAP2 SWAP1 POP JUMP JUMPDEST PUSH0 DUP3 DUP3 MSTORE PUSH1 0x20 DUP3 ADD SWAP1 POP SWAP3 SWAP2 POP POP JUMP JUMPDEST PUSH32 0xC490E1BB8B61206368E1BB8920726F757465722062616E20C491E1BAA775206B PUSH0 DUP3 ADD MSTORE PUSH32 0x68C3B46E672068E1BBA370206CE1BB8700000000000000000000000000000000 PUSH1 0x20 DUP3 ADD MSTORE POP JUMP JUMPDEST PUSH0 PUSH2 0xED7 PUSH1 0x30 DUP4 PUSH2 0xE6D JUMP JUMPDEST SWAP2 POP PUSH2 0xEE2 DUP3 PUSH2 0xE7D JUMP JUMPDEST PUSH1 0x40 DUP3 ADD SWAP1 POP SWAP2 SWAP1 POP JUMP JUMPDEST PUSH0 PUSH1 0x20 DUP3 ADD SWAP1 POP DUP2 DUP2 SUB PUSH0 DUP4 ADD MSTORE PUSH2 0xF04 DUP2 PUSH2 0xECB JUMP JUMPDEST SWAP1 POP SWAP2 SWAP1 POP JUMP JUMPDEST PUSH0 DUP2 SWAP1 POP SWAP2 SWAP1 POP JUMP JUMPDEST PUSH2 0xF1D DUP2 PUSH2 0xF0B JUMP JUMPDEST DUP3 MSTORE POP POP JUMP JUMPDEST PUSH2 0xF2C DUP2 PUSH2 0xB88 JUMP JUMPDEST DUP3 MSTORE POP POP JUMP JUMPDEST PUSH0 PUSH1 0xA0 DUP3 ADD SWAP1 POP PUSH2 0xF45 PUSH0 DUP4 ADD DUP9 PUSH2 0xF14 JUMP JUMPDEST PUSH2 0xF52 PUSH1 0x20 DUP4 ADD DUP8 PUSH2 0xF14 JUMP JUMPDEST PUSH2 0xF5F PUSH1 0x40 DUP4 ADD DUP7 PUSH2 0xF14 JUMP JUMPDEST PUSH2 0xF6C PUSH1 0x60 DUP4 ADD DUP6 PUSH2 0xF23 JUMP JUMPDEST PUSH2 0xF79 PUSH1 0x80 DUP4 ADD DUP5 PUSH2 0xD7F JUMP JUMPDEST SWAP7 SWAP6 POP POP POP POP POP POP JUMP JUMPDEST PUSH0 PUSH2 0xF8D DUP3 PUSH2 0xAA3 JUMP JUMPDEST PUSH2 0xF97 DUP2 DUP6 PUSH2 0xE6D JUMP JUMPDEST SWAP4 POP PUSH2 0xFA7 DUP2 DUP6 PUSH1 0x20 DUP7 ADD PUSH2 0x915 JUMP JUMPDEST PUSH2 0xFB0 DUP2 PUSH2 0x85D JUMP JUMPDEST DUP5 ADD SWAP2 POP POP SWAP3 SWAP2 POP POP JUMP JUMPDEST PUSH0 PUSH1 0x20 DUP3 ADD SWAP1 POP DUP2 DUP2 SUB PUSH0 DUP4 ADD MSTORE PUSH2 0xFD3 DUP2 DUP5 PUSH2 0xF83 JUMP JUMPDEST SWAP1 POP SWAP3 SWAP2 POP POP JUMP JUMPDEST PUSH0 DUP2 MLOAD SWAP1 POP SWAP2 SWAP1 POP JUMP JUMPDEST PUSH0 DUP2 SWAP1 POP PUSH1 0x20 DUP3 ADD SWAP1 POP SWAP2 SWAP1 POP JUMP JUMPDEST PUSH0 PUSH2 0xFFF DUP3 MLOAD PUSH2 0xF0B JUMP JUMPDEST DUP1 SWAP2 POP POP SWAP2 SWAP1 POP JUMP JUMPDEST PUSH0 PUSH2 0x1012 DUP3 PUSH2 0xFDB JUMP JUMPDEST DUP3 PUSH2 0x101C DUP5 PUSH2 0xFE5 JUMP JUMPDEST SWAP1 POP PUSH2 0x1027 DUP2 PUSH2 0xFF4 JUMP JUMPDEST SWAP3 POP PUSH1 0x20 DUP3 LT ISZERO PUSH2 0x1067 JUMPI PUSH2 0x1062 PUSH32 0xFFFFFFFFFFFFFFFFFFFFFFFFFFFFFFFFFFFFFFFFFFFFFFFFFFFFFFFFFFFFFFFF DUP4 PUSH1 0x20 SUB PUSH1 0x8 MUL PUSH2 0xB2B JUMP JUMPDEST DUP4 AND SWAP3 POP JUMPDEST POP POP SWAP2 SWAP1 POP JUMP JUMPDEST PUSH32 0x4E487B7100000000000000000000000000000000000000000000000000000000 PUSH0 MSTORE PUSH1 0x11 PUSH1 0x4 MSTORE PUSH1 0x24 PUSH0 REVERT JUMPDEST PUSH0 PUSH2 0x10A5 DUP3 PUSH2 0xB88 JUMP JUMPDEST SWAP2 POP PUSH2 0x10B0 DUP4 PUSH2 0xB88 JUMP JUMPDEST SWAP3 POP DUP3 DUP3 ADD SWAP1 POP DUP1 DUP3 GT ISZERO PUSH2 0x10C8 JUMPI PUSH2 0x10C7 PUSH2 0x106E JUMP JUMPDEST JUMPDEST SWAP3 SWAP2 POP POP JUMP JUMPDEST PUSH0 PUSH1 0x60 DUP3 ADD SWAP1 POP PUSH2 0x10E1 PUSH0 DUP4 ADD DUP7 PUSH2 0xD7F JUMP JUMPDEST PUSH2 0x10EE PUSH1 0x20 DUP4 ADD DUP6 PUSH2 0xF23 JUMP JUMPDEST PUSH2 0x10FB PUSH1 0x40 DUP4 ADD DUP5 PUSH2 0xF23 JUMP JUMPDEST SWAP5 SWAP4 POP POP POP POP JUMP JUMPDEST PUSH0 PUSH1 0x20 DUP3 ADD SWAP1 POP PUSH2 0x1116 PUSH0 DUP4 ADD DUP5 PUSH2 0xF23 JUMP JUMPDEST SWAP3 SWAP2 POP POP JUMP JUMPDEST PUSH1 0x80 MLOAD PUSH1 0xA0 MLOAD PUSH1 0xC0 MLOAD PUSH1 0xE0 MLOAD PUSH2 0x100 MLOAD PUSH2 0x120 MLOAD PUSH2 0x140 MLOAD PUSH2 0x5AA7 PUSH2 0x116D PUSH0 CODECOPY PUSH0 PUSH2 0x31DD ADD MSTORE PUSH0 PUSH2 0x31A2 ADD MSTORE PUSH0 PUSH2 0x3A28 ADD MSTORE PUSH0 PUSH2 0x3A07 ADD MSTORE PUSH0 PUSH2 0x35FA ADD MSTORE PUSH0 PUSH2 0x3650 ADD MSTORE PUSH0 PUSH2 0x3679 ADD MSTORE PUSH2 0x5AA7 PUSH0 RETURN INVALID PUSH1 0x80 PUSH1 0x40 MSTORE PUSH1 0x4 CALLDATASIZE LT PUSH2 0x2E7 JUMPI PUSH0 CALLDATALOAD PUSH1 0xE0 SHR DUP1 PUSH4 0x715018A6 GT PUSH2 0x18F JUMPI DUP1 PUSH4 0xBFC12C05 GT PUSH2 0xDB JUMPI DUP1 PUSH4 0xE81E982D GT PUSH2 0x94 JUMPI DUP1 PUSH4 0xF4624A2F GT PUSH2 0x6E JUMPI DUP1 PUSH4 0xF4624A2F EQ PUSH2 0xAFC JUMPI DUP1 PUSH4 0xF7E021E4 EQ PUSH2 0xB26 JUMPI DUP1 PUSH4 0xF7EE7A43 EQ PUSH2 0xB50 JUMPI DUP1 PUSH4 0xFA9B7018 EQ PUSH2 0xB7A JUMPI PUSH2 0x2EE JUMP JUMPDEST DUP1 PUSH4 0xE81E982D EQ PUSH2 0xA82 JUMPI DUP1 PUSH4 0xF2635401 EQ PUSH2 0xAAA JUMPI DUP1 PUSH4 0xF2FDE38B EQ PUSH2 0xAD4 JUMPI PUSH2 0x2EE JUMP JUMPDEST DUP1 PUSH4 0xBFC12C05 EQ PUSH2 0x98A JUMPI DUP1 PUSH4 0xC04FCAD8 EQ PUSH2 0x9B4 JUMPI DUP1 PUSH4 0xD89135CD EQ PUSH2 0x9DE JUMPI DUP1 PUSH4 0xDD49756E EQ PUSH2 0xA08 JUMPI DUP1 PUSH4 0xDD62ED3E EQ PUSH2 0xA30 JUMPI DUP1 PUSH4 0xE6A0A007 EQ PUSH2 0xA6C JUMPI PUSH2 0x2EE JUMP JUMPDEST DUP1 PUSH4 0x92887E70 GT PUSH2 0x148 JUMPI DUP1 PUSH4 0x9CD441DA GT PUSH2 0x122 JUMPI DUP1 PUSH4 0x9CD441DA EQ PUSH2 0x8D2 JUMPI DUP1 PUSH4 0xA2309FF8 EQ PUSH2 0x8FA JUMPI DUP1 PUSH4 0xA9059CBB EQ PUSH2 0x924 JUMPI DUP1 PUSH4 0xB55CD04B EQ PUSH2 0x960 JUMPI PUSH2 0x2EE JUMP JUMPDEST DUP1 PUSH4 0x92887E70 EQ PUSH2 0x854 JUMPI DUP1 PUSH4 0x95D89B41 EQ PUSH2 0x87E JUMPI DUP1 PUSH4 0x96A379D8 EQ PUSH2 0x8A8 JUMPI PUSH2 0x2EE JUMP JUMPDEST DUP1 PUSH4 0x715018A6 EQ PUSH2 0x756 JUMPI DUP1 PUSH4 0x7ECEBE00 EQ PUSH2 0x76C JUMPI DUP1 PUSH4 0x84B0196E EQ PUSH2 0x7A8 JUMPI DUP1 PUSH4 0x88D695B2 EQ PUSH2 0x7D8 JUMPI DUP1 PUSH4 0x8DA5CB5B EQ PUSH2 0x800 JUMPI DUP1 PUSH4 0x8E80FF5D EQ PUSH2 0x82A JUMPI PUSH2 0x2EE JUMP JUMPDEST DUP1 PUSH4 0x3576A32F GT PUSH2 0x24E JUMPI DUP1 PUSH4 0x48931352 GT PUSH2 0x207 JUMPI DUP1 PUSH4 0x5C975ABB GT PUSH2 0x1E1 JUMPI DUP1 PUSH4 0x5C975ABB EQ PUSH2 0x68C JUMPI DUP1 PUSH4 0x5E7FFA67 EQ PUSH2 0x6B6 JUMPI DUP1 PUSH4 0x68642E95 EQ PUSH2 0x6F2 JUMPI DUP1 PUSH4 0x70A08231 EQ PUSH2 0x71A JUMPI PUSH2 0x2EE JUMP JUMPDEST DUP1 PUSH4 0x48931352 EQ PUSH2 0x610 JUMPI DUP1 PUSH4 0x52862722 EQ PUSH2 0x63A JUMPI DUP1 PUSH4 0x52C7420D EQ PUSH2 0x662 JUMPI PUSH2 0x2EE JUMP JUMPDEST DUP1 PUSH4 0x3576A32F EQ PUSH2 0x51C JUMPI DUP1 PUSH4 0x3AF8E4AB EQ PUSH2 0x544 JUMPI DUP1 PUSH4 0x40C10F19 EQ PUSH2 0x56E JUMPI DUP1 PUSH4 0x429093CC EQ PUSH2 0x596 JUMPI DUP1 PUSH4 0x42966C68 EQ PUSH2 0x5BE JUMPI DUP1 PUSH4 0x44D90FC0 EQ PUSH2 0x5E6 JUMPI PUSH2 0x2EE JUMP JUMPDEST DUP1 PUSH4 0x23B872DD GT PUSH2 0x2A0 JUMPI DUP1 PUSH4 0x23B872DD EQ PUSH2 0x3FE JUMPI DUP1 PUSH4 0x2D0335AB EQ PUSH2 0x43A JUMPI DUP1 PUSH4 0x313CE567 EQ PUSH2 0x476 JUMPI DUP1 PUSH4 0x315A095D EQ PUSH2 0x4A0 JUMPI DUP1 PUSH4 0x317D9453 EQ PUSH2 0x4C8 JUMPI DUP1 PUSH4 0x3408E470 EQ PUSH2 0x4F2 JUMPI PUSH2 0x2EE JUMP JUMPDEST DUP1 PUSH4 0x6FDDE03 EQ PUSH2 0x2F2 JUMPI DUP1 PUSH4 0x95EA7B3 EQ PUSH2 0x31C JUMPI DUP1 PUSH4 0xCA1C5C9 EQ PUSH2 0x358 JUMPI DUP1 PUSH4 0x122FEA3B EQ PUSH2 0x382 JUMPI DUP1 PUSH4 0x16C38B3C EQ PUSH2 0x3AC JUMPI DUP1 PUSH4 0x18160DDD EQ PUSH2 0x3D4 JUMPI PUSH2 0x2EE JUMP JUMPDEST CALLDATASIZE PUSH2 0x2EE JUMPI STOP JUMPDEST PUSH0 DUP1 REVERT JUMPDEST CALLVALUE DUP1 ISZERO PUSH2 0x2FD JUMPI PUSH0 DUP1 REVERT JUMPDEST POP PUSH2 0x306 PUSH2 0xBA4 JUMP JUMPDEST PUSH1 0x40 MLOAD PUSH2 0x313 SWAP2 SWAP1 PUSH2 0x3BA8 JUMP JUMPDEST PUSH1 0x40 MLOAD DUP1 SWAP2 SUB SWAP1 RETURN JUMPDEST CALLVALUE DUP1 ISZERO PUSH2 0x327 JUMPI PUSH0 DUP1 REVERT JUMPDEST POP PUSH2 0x342 PUSH1 0x4 DUP1 CALLDATASIZE SUB DUP2 ADD SWAP1 PUSH2 0x33D SWAP2 SWAP1 PUSH2 0x3C66 JUMP JUMPDEST PUSH2 0xC34 JUMP JUMPDEST PUSH1 0x40 MLOAD PUSH2 0x34F SWAP2 SWAP1 PUSH2 0x3CBE JUMP JUMPDEST PUSH1 0x40 MLOAD DUP1 SWAP2 SUB SWAP1 RETURN JUMPDEST CALLVALUE DUP1 ISZERO PUSH2 0x363 JUMPI PUSH0 DUP1 REVERT JUMPDEST POP PUSH2 0x36C PUSH2 0xC56 JUMP JUMPDEST PUSH1 0x40 MLOAD PUSH2 0x379 SWAP2 SWAP1 PUSH2 0x3CE6 JUMP JUMPDEST PUSH1 0x40 MLOAD DUP1 SWAP2 SUB SWAP1 RETURN JUMPDEST CALLVALUE DUP1 ISZERO PUSH2 0x38D JUMPI PUSH0 DUP1 REVERT JUMPDEST POP PUSH2 0x396 PUSH2 0xC5F JUMP JUMPDEST PUSH1 0x40 MLOAD PUSH2 0x3A3 SWAP2 SWAP1 PUSH2 0x3D0E JUMP JUMPDEST PUSH1 0x40 MLOAD DUP1 SWAP2 SUB SWAP1 RETURN JUMPDEST CALLVALUE DUP1 ISZERO PUSH2 0x3B7 JUMPI PUSH0 DUP1 REVERT JUMPDEST POP PUSH2 0x3D2 PUSH1 0x4 DUP1 CALLDATASIZE SUB DUP2 ADD SWAP1 PUSH2 0x3CD SWAP2 SWAP1 PUSH2 0x3D51 JUMP JUMPDEST PUSH2 0xC84 JUMP JUMPDEST STOP JUMPDEST CALLVALUE DUP1 ISZERO PUSH2 0x3DF JUMPI PUSH0 DUP1 REVERT JUMPDEST POP PUSH2 0x3E8 PUSH2 0xCDF JUMP JUMPDEST PUSH1 0x40 MLOAD PUSH2 0x3F5 SWAP2 SWAP1 PUSH2 0x3CE6 JUMP JUMPDEST PUSH1 0x40 MLOAD DUP1 SWAP2 SUB SWAP1 RETURN JUMPDEST CALLVALUE DUP1 ISZERO PUSH2 0x409 JUMPI PUSH0 DUP1 REVERT JUMPDEST POP PUSH2 0x424 PUSH1 0x4 DUP1 CALLDATASIZE SUB DUP2 ADD SWAP1 PUSH2 0x41F SWAP2 SWAP1 PUSH2 0x3D7C JUMP JUMPDEST PUSH2 0xCE8 JUMP JUMPDEST PUSH1 0x40 MLOAD PUSH2 0x431 SWAP2 SWAP1 PUSH2 0x3CBE JUMP JUMPDEST PUSH1 0x40 MLOAD DUP1 SWAP2 SUB SWAP1 RETURN JUMPDEST CALLVALUE DUP1 ISZERO PUSH2 0x445 JUMPI PUSH0 DUP1 REVERT JUMPDEST POP PUSH2 0x460 PUSH1 0x4 DUP1 CALLDATASIZE SUB DUP2 ADD SWAP1 PUSH2 0x45B SWAP2 SWAP1 PUSH2 0x3DCC JUMP JUMPDEST PUSH2 0xD16 JUMP JUMPDEST PUSH1 0x40 MLOAD PUSH2 0x46D SWAP2 SWAP1 PUSH2 0x3CE6 JUMP JUMPDEST PUSH1 0x40 MLOAD DUP1 SWAP2 SUB SWAP1 RETURN JUMPDEST CALLVALUE DUP1 ISZERO PUSH2 0x481 JUMPI PUSH0 DUP1 REVERT JUMPDEST POP PUSH2 0x48A PUSH2 0xD5C JUMP JUMPDEST PUSH1 0x40 MLOAD PUSH2 0x497 SWAP2 SWAP1 PUSH2 0x3E12 JUMP JUMPDEST PUSH1 0x40 MLOAD DUP1 SWAP2 SUB SWAP1 RETURN JUMPDEST CALLVALUE DUP1 ISZERO PUSH2 0x4AB JUMPI PUSH0 DUP1 REVERT JUMPDEST POP PUSH2 0x4C6 PUSH1 0x4 DUP1 CALLDATASIZE SUB DUP2 ADD SWAP1 PUSH2 0x4C1 SWAP2 SWAP1 PUSH2 0x3E2B JUMP JUMPDEST PUSH2 0xD64 JUMP JUMPDEST STOP JUMPDEST CALLVALUE DUP1 ISZERO PUSH2 0x4D3 JUMPI PUSH0 DUP1 REVERT JUMPDEST POP PUSH2 0x4DC PUSH2 0xE77 JUMP JUMPDEST PUSH1 0x40 MLOAD PUSH2 0x4E9 SWAP2 SWAP1 PUSH2 0x3CE6 JUMP JUMPDEST PUSH1 0x40 MLOAD DUP1 SWAP2 SUB SWAP1 RETURN JUMPDEST CALLVALUE DUP1 ISZERO PUSH2 0x4FD JUMPI PUSH0 DUP1 REVERT JUMPDEST POP PUSH2 0x506 PUSH2 0xE86 JUMP JUMPDEST PUSH1 0x40 MLOAD PUSH2 0x513 SWAP2 SWAP1 PUSH2 0x3CE6 JUMP JUMPDEST PUSH1 0x40 MLOAD DUP1 SWAP2 SUB SWAP1 RETURN JUMPDEST CALLVALUE DUP1 ISZERO PUSH2 0x527 JUMPI PUSH0 DUP1 REVERT JUMPDEST POP PUSH2 0x542 PUSH1 0x4 DUP1 CALLDATASIZE SUB DUP2 ADD SWAP1 PUSH2 0x53D SWAP2 SWAP1 PUSH2 0x3DCC JUMP JUMPDEST PUSH2 0xE8D JUMP JUMPDEST STOP JUMPDEST CALLVALUE DUP1 ISZERO PUSH2 0x54F JUMPI PUSH0 DUP1 REVERT JUMPDEST POP PUSH2 0x558 PUSH2 0xFFF JUMP JUMPDEST PUSH1 0x40 MLOAD PUSH2 0x565 SWAP2 SWAP1 PUSH2 0x3D0E JUMP JUMPDEST PUSH1 0x40 MLOAD DUP1 SWAP2 SUB SWAP1 RETURN JUMPDEST CALLVALUE DUP1 ISZERO PUSH2 0x579 JUMPI PUSH0 DUP1 REVERT JUMPDEST POP PUSH2 0x594 PUSH1 0x4 DUP1 CALLDATASIZE SUB DUP2 ADD SWAP1 PUSH2 0x58F SWAP2 SWAP1 PUSH2 0x3C66 JUMP JUMPDEST PUSH2 0x1025 JUMP JUMPDEST STOP JUMPDEST CALLVALUE DUP1 ISZERO PUSH2 0x5A1 JUMPI PUSH0 DUP1 REVERT JUMPDEST POP PUSH2 0x5BC PUSH1 0x4 DUP1 CALLDATASIZE SUB DUP2 ADD SWAP1 PUSH2 0x5B7 SWAP2 SWAP1 PUSH2 0x3E2B JUMP JUMPDEST PUSH2 0x1240 JUMP JUMPDEST STOP JUMPDEST CALLVALUE DUP1 ISZERO PUSH2 0x5C9 JUMPI PUSH0 DUP1 REVERT JUMPDEST POP PUSH2 0x5E4 PUSH1 0x4 DUP1 CALLDATASIZE SUB DUP2 ADD SWAP1 PUSH2 0x5DF SWAP2 SWAP1 PUSH2 0x3E2B JUMP JUMPDEST PUSH2 0x140F JUMP JUMPDEST STOP JUMPDEST CALLVALUE DUP1 ISZERO PUSH2 0x5F1 JUMPI PUSH0 DUP1 REVERT JUMPDEST POP PUSH2 0x5FA PUSH2 0x1523 JUMP JUMPDEST PUSH1 0x40 MLOAD PUSH2 0x607 SWAP2 SWAP1 PUSH2 0x3BA8 JUMP JUMPDEST PUSH1 0x40 MLOAD DUP1 SWAP2 SUB SWAP1 RETURN JUMPDEST CALLVALUE DUP1 ISZERO PUSH2 0x61B JUMPI PUSH0 DUP1 REVERT JUMPDEST POP PUSH2 0x624 PUSH2 0x15B3 JUMP JUMPDEST PUSH1 0x40 MLOAD PUSH2 0x631 SWAP2 SWAP1 PUSH2 0x3CE6 JUMP JUMPDEST PUSH1 0x40 MLOAD DUP1 SWAP2 SUB SWAP1 RETURN JUMPDEST CALLVALUE DUP1 ISZERO PUSH2 0x645 JUMPI PUSH0 DUP1 REVERT JUMPDEST POP PUSH2 0x660 PUSH1 0x4 DUP1 CALLDATASIZE SUB DUP2 ADD SWAP1 PUSH2 0x65B SWAP2 SWAP1 PUSH2 0x3EB3 JUMP JUMPDEST PUSH2 0x15CF JUMP JUMPDEST STOP JUMPDEST CALLVALUE DUP1 ISZERO PUSH2 0x66D JUMPI PUSH0 DUP1 REVERT JUMPDEST POP PUSH2 0x676 PUSH2 0x1A8C JUMP JUMPDEST PUSH1 0x40 MLOAD PUSH2 0x683 SWAP2 SWAP1 PUSH2 0x3F8E JUMP JUMPDEST PUSH1 0x40 MLOAD DUP1 SWAP2 SUB SWAP1 RETURN JUMPDEST CALLVALUE DUP1 ISZERO PUSH2 0x697 JUMPI PUSH0 DUP1 REVERT JUMPDEST POP PUSH2 0x6A0 PUSH2 0x1AC5 JUMP JUMPDEST PUSH1 0x40 MLOAD PUSH2 0x6AD SWAP2 SWAP1 PUSH2 0x3CBE JUMP JUMPDEST PUSH1 0x40 MLOAD DUP1 SWAP2 SUB SWAP1 RETURN JUMPDEST CALLVALUE DUP1 ISZERO PUSH2 0x6C1 JUMPI PUSH0 DUP1 REVERT JUMPDEST POP PUSH2 0x6DC PUSH1 0x4 DUP1 CALLDATASIZE SUB DUP2 ADD SWAP1 PUSH2 0x6D7 SWAP2 SWAP1 PUSH2 0x40DA JUMP JUMPDEST PUSH2 0x1AD7 JUMP JUMPDEST PUSH1 0x40 MLOAD PUSH2 0x6E9 SWAP2 SWAP1 PUSH2 0x3D0E JUMP JUMPDEST PUSH1 0x40 MLOAD DUP1 SWAP2 SUB SWAP1 RETURN JUMPDEST CALLVALUE DUP1 ISZERO PUSH2 0x6FD JUMPI PUSH0 DUP1 REVERT JUMPDEST POP PUSH2 0x718 PUSH1 0x4 DUP1 CALLDATASIZE SUB DUP2 ADD SWAP1 PUSH2 0x713 SWAP2 SWAP1 PUSH2 0x40DA JUMP JUMPDEST PUSH2 0x1B1F JUMP JUMPDEST STOP JUMPDEST CALLVALUE DUP1 ISZERO PUSH2 0x725 JUMPI PUSH0 DUP1 REVERT JUMPDEST POP PUSH2 0x740 PUSH1 0x4 DUP1 CALLDATASIZE SUB DUP2 ADD SWAP1 PUSH2 0x73B SWAP2 SWAP1 PUSH2 0x3DCC JUMP JUMPDEST PUSH2 0x1D4C JUMP JUMPDEST PUSH1 0x40 MLOAD PUSH2 0x74D SWAP2 SWAP1 PUSH2 0x3CE6 JUMP JUMPDEST PUSH1 0x40 MLOAD DUP1 SWAP2 SUB SWAP1 RETURN JUMPDEST CALLVALUE DUP1 ISZERO PUSH2 0x761 JUMPI PUSH0 DUP1 REVERT JUMPDEST POP PUSH2 0x76A PUSH2 0x1D91 JUMP JUMPDEST STOP JUMPDEST CALLVALUE DUP1 ISZERO PUSH2 0x777 JUMPI PUSH0 DUP1 REVERT JUMPDEST POP PUSH2 0x792 PUSH1 0x4 DUP1 CALLDATASIZE SUB DUP2 ADD SWAP1 PUSH2 0x78D SWAP2 SWAP1 PUSH2 0x3DCC JUMP JUMPDEST PUSH2 0x1DA4 JUMP JUMPDEST PUSH1 0x40 MLOAD PUSH2 0x79F SWAP2 SWAP1 PUSH2 0x3CE6 JUMP JUMPDEST PUSH1 0x40 MLOAD DUP1 SWAP2 SUB SWAP1 RETURN JUMPDEST CALLVALUE DUP1 ISZERO PUSH2 0x7B3 JUMPI PUSH0 DUP1 REVERT JUMPDEST POP PUSH2 0x7BC PUSH2 0x1DB9 JUMP JUMPDEST PUSH1 0x40 MLOAD PUSH2 0x7CF SWAP8 SWAP7 SWAP6 SWAP5 SWAP4 SWAP3 SWAP2 SWAP1 PUSH2 0x4221 JUMP JUMPDEST PUSH1 0x40 MLOAD DUP1 SWAP2 SUB SWAP1 RETURN JUMPDEST CALLVALUE DUP1 ISZERO PUSH2 0x7E3 JUMPI PUSH0 DUP1 REVERT JUMPDEST POP PUSH2 0x7FE PUSH1 0x4 DUP1 CALLDATASIZE SUB DUP2 ADD SWAP1 PUSH2 0x7F9 SWAP2 SWAP1 PUSH2 0x4355 JUMP JUMPDEST PUSH2 0x1E5E JUMP JUMPDEST STOP JUMPDEST CALLVALUE DUP1 ISZERO PUSH2 0x80B JUMPI PUSH0 DUP1 REVERT JUMPDEST POP PUSH2 0x814 PUSH2 0x2194 JUMP JUMPDEST PUSH1 0x40 MLOAD PUSH2 0x821 SWAP2 SWAP1 PUSH2 0x3D0E JUMP JUMPDEST PUSH1 0x40 MLOAD DUP1 SWAP2 SUB SWAP1 RETURN JUMPDEST CALLVALUE DUP1 ISZERO PUSH2 0x835 JUMPI PUSH0 DUP1 REVERT JUMPDEST POP PUSH2 0x83E PUSH2 0x21BC JUMP JUMPDEST PUSH1 0x40 MLOAD PUSH2 0x84B SWAP2 SWAP1 PUSH2 0x3CE6 JUMP JUMPDEST PUSH1 0x40 MLOAD DUP1 SWAP2 SUB SWAP1 RETURN JUMPDEST CALLVALUE DUP1 ISZERO PUSH2 0x85F JUMPI PUSH0 DUP1 REVERT JUMPDEST POP PUSH2 0x868 PUSH2 0x21C2 JUMP JUMPDEST PUSH1 0x40 MLOAD PUSH2 0x875 SWAP2 SWAP1 PUSH2 0x3CE6 JUMP JUMPDEST PUSH1 0x40 MLOAD DUP1 SWAP2 SUB SWAP1 RETURN JUMPDEST CALLVALUE DUP1 ISZERO PUSH2 0x889 JUMPI PUSH0 DUP1 REVERT JUMPDEST POP PUSH2 0x892 PUSH2 0x21C8 JUMP JUMPDEST PUSH1 0x40 MLOAD PUSH2 0x89F SWAP2 SWAP1 PUSH2 0x3BA8 JUMP JUMPDEST PUSH1 0x40 MLOAD DUP1 SWAP2 SUB SWAP1 RETURN JUMPDEST CALLVALUE DUP1 ISZERO PUSH2 0x8B3 JUMPI PUSH0 DUP1 REVERT JUMPDEST POP PUSH2 0x8BC PUSH2 0x2258 JUMP JUMPDEST PUSH1 0x40 MLOAD PUSH2 0x8C9 SWAP2 SWAP1 PUSH2 0x3CE6 JUMP JUMPDEST PUSH1 0x40 MLOAD DUP1 SWAP2 SUB SWAP1 RETURN JUMPDEST CALLVALUE DUP1 ISZERO PUSH2 0x8DD JUMPI PUSH0 DUP1 REVERT JUMPDEST POP PUSH2 0x8F8 PUSH1 0x4 DUP1 CALLDATASIZE SUB DUP2 ADD SWAP1 PUSH2 0x8F3 SWAP2 SWAP1 PUSH2 0x43D3 JUMP JUMPDEST PUSH2 0x2261 JUMP JUMPDEST STOP JUMPDEST CALLVALUE DUP1 ISZERO PUSH2 0x905 JUMPI PUSH0 DUP1 REVERT JUMPDEST POP PUSH2 0x90E PUSH2 0x2564 JUMP JUMPDEST PUSH1 0x40 MLOAD PUSH2 0x91B SWAP2 SWAP1 PUSH2 0x3CE6 JUMP JUMPDEST PUSH1 0x40 MLOAD DUP1 SWAP2 SUB SWAP1 RETURN JUMPDEST CALLVALUE DUP1 ISZERO PUSH2 0x92F JUMPI PUSH0 DUP1 REVERT JUMPDEST POP PUSH2 0x94A PUSH1 0x4 DUP1 CALLDATASIZE SUB DUP2 ADD SWAP1 PUSH2 0x945 SWAP2 SWAP1 PUSH2 0x3C66 JUMP JUMPDEST PUSH2 0x256A JUMP JUMPDEST PUSH1 0x40 MLOAD PUSH2 0x957 SWAP2 SWAP1 PUSH2 0x3CBE JUMP JUMPDEST PUSH1 0x40 MLOAD DUP1 SWAP2 SUB SWAP1 RETURN JUMPDEST CALLVALUE DUP1 ISZERO PUSH2 0x96B JUMPI PUSH0 DUP1 REVERT JUMPDEST POP PUSH2 0x974 PUSH2 0x26DA JUMP JUMPDEST PUSH1 0x40 MLOAD PUSH2 0x981 SWAP2 SWAP1 PUSH2 0x3CE6 JUMP JUMPDEST PUSH1 0x40 MLOAD DUP1 SWAP2 SUB SWAP1 RETURN JUMPDEST CALLVALUE DUP1 ISZERO PUSH2 0x995 JUMPI PUSH0 DUP1 REVERT JUMPDEST POP PUSH2 0x99E PUSH2 0x26E3 JUMP JUMPDEST PUSH1 0x40 MLOAD PUSH2 0x9AB SWAP2 SWAP1 PUSH2 0x3CE6 JUMP JUMPDEST PUSH1 0x40 MLOAD DUP1 SWAP2 SUB SWAP1 RETURN JUMPDEST CALLVALUE DUP1 ISZERO PUSH2 0x9BF JUMPI PUSH0 DUP1 REVERT JUMPDEST POP PUSH2 0x9C8 PUSH2 0x26E9 JUMP JUMPDEST PUSH1 0x40 MLOAD PUSH2 0x9D5 SWAP2 SWAP1 PUSH2 0x3CE6 JUMP JUMPDEST PUSH1 0x40 MLOAD DUP1 SWAP2 SUB SWAP1 RETURN JUMPDEST CALLVALUE DUP1 ISZERO PUSH2 0x9E9 JUMPI PUSH0 DUP1 REVERT JUMPDEST POP PUSH2 0x9F2 PUSH2 0x26F9 JUMP JUMPDEST PUSH1 0x40 MLOAD PUSH2 0x9FF SWAP2 SWAP1 PUSH2 0x3CE6 JUMP JUMPDEST PUSH1 0x40 MLOAD DUP1 SWAP2 SUB SWAP1 RETURN JUMPDEST CALLVALUE DUP1 ISZERO PUSH2 0xA13 JUMPI PUSH0 DUP1 REVERT JUMPDEST POP PUSH2 0xA2E PUSH1 0x4 DUP1 CALLDATASIZE SUB DUP2 ADD SWAP1 PUSH2 0xA29 SWAP2 SWAP1 PUSH2 0x3E2B JUMP JUMPDEST PUSH2 0x26FF JUMP JUMPDEST STOP JUMPDEST CALLVALUE DUP1 ISZERO PUSH2 0xA3B JUMPI PUSH0 DUP1 REVERT JUMPDEST POP PUSH2 0xA56 PUSH1 0x4 DUP1 CALLDATASIZE SUB DUP2 ADD SWAP1 PUSH2 0xA51 SWAP2 SWAP1 PUSH2 0x4411 JUMP JUMPDEST PUSH2 0x2804 JUMP JUMPDEST PUSH1 0x40 MLOAD PUSH2 0xA63 SWAP2 SWAP1 PUSH2 0x3CE6 JUMP JUMPDEST PUSH1 0x40 MLOAD DUP1 SWAP2 SUB SWAP1 RETURN JUMPDEST CALLVALUE DUP1 ISZERO PUSH2 0xA77 JUMPI PUSH0 DUP1 REVERT JUMPDEST POP PUSH2 0xA80 PUSH2 0x2886 JUMP JUMPDEST STOP JUMPDEST CALLVALUE DUP1 ISZERO PUSH2 0xA8D JUMPI PUSH0 DUP1 REVERT JUMPDEST POP PUSH2 0xAA8 PUSH1 0x4 DUP1 CALLDATASIZE SUB DUP2 ADD SWAP1 PUSH2 0xAA3 SWAP2 SWAP1 PUSH2 0x3DCC JUMP JUMPDEST PUSH2 0x2A6B JUMP JUMPDEST STOP JUMPDEST CALLVALUE DUP1 ISZERO PUSH2 0xAB5 JUMPI PUSH0 DUP1 REVERT JUMPDEST POP PUSH2 0xABE PUSH2 0x2BC0 JUMP JUMPDEST PUSH1 0x40 MLOAD PUSH2 0xACB SWAP2 SWAP1 PUSH2 0x3CE6 JUMP JUMPDEST PUSH1 0x40 MLOAD DUP1 SWAP2 SUB SWAP1 RETURN JUMPDEST CALLVALUE DUP1 ISZERO PUSH2 0xADF JUMPI PUSH0 DUP1 REVERT JUMPDEST POP PUSH2 0xAFA PUSH1 0x4 DUP1 CALLDATASIZE SUB DUP2 ADD SWAP1 PUSH2 0xAF5 SWAP2 SWAP1 PUSH2 0x3DCC JUMP JUMPDEST PUSH2 0x2BC6 JUMP JUMPDEST STOP JUMPDEST CALLVALUE DUP1 ISZERO PUSH2 0xB07 JUMPI PUSH0 DUP1 REVERT JUMPDEST POP PUSH2 0xB10 PUSH2 0x2C4A JUMP JUMPDEST PUSH1 0x40 MLOAD PUSH2 0xB1D SWAP2 SWAP1 PUSH2 0x3D0E JUMP JUMPDEST PUSH1 0x40 MLOAD DUP1 SWAP2 SUB SWAP1 RETURN JUMPDEST CALLVALUE DUP1 ISZERO PUSH2 0xB31 JUMPI PUSH0 DUP1 REVERT JUMPDEST POP PUSH2 0xB3A PUSH2 0x2C72 JUMP JUMPDEST PUSH1 0x40 MLOAD PUSH2 0xB47 SWAP2 SWAP1 PUSH2 0x3BA8 JUMP JUMPDEST PUSH1 0x40 MLOAD DUP1 SWAP2 SUB SWAP1 RETURN JUMPDEST CALLVALUE DUP1 ISZERO PUSH2 0xB5B JUMPI PUSH0 DUP1 REVERT JUMPDEST POP PUSH2 0xB64 PUSH2 0x2CFE JUMP JUMPDEST PUSH1 0x40 MLOAD PUSH2 0xB71 SWAP2 SWAP1 PUSH2 0x3CE6 JUMP JUMPDEST PUSH1 0x40 MLOAD DUP1 SWAP2 SUB SWAP1 RETURN JUMPDEST CALLVALUE DUP1 ISZERO PUSH2 0xB85 JUMPI PUSH0 DUP1 REVERT JUMPDEST POP PUSH2 0xB8E PUSH2 0x2D05 JUMP JUMPDEST PUSH1 0x40 MLOAD PUSH2 0xB9B SWAP2 SWAP1 PUSH2 0x3CE6 JUMP JUMPDEST PUSH1 0x40 MLOAD DUP1 SWAP2 SUB SWAP1 RETURN JUMPDEST PUSH1 0x60 PUSH1 0x3 DUP1 SLOAD PUSH2 0xBB3 SWAP1 PUSH2 0x447C JUMP JUMPDEST DUP1 PUSH1 0x1F ADD PUSH1 0x20 DUP1 SWAP2 DIV MUL PUSH1 0x20 ADD PUSH1 0x40 MLOAD SWAP1 DUP2 ADD PUSH1 0x40 MSTORE DUP1 SWAP3 SWAP2 SWAP1 DUP2 DUP2 MSTORE PUSH1 0x20 ADD DUP3 DUP1 SLOAD PUSH2 0xBDF SWAP1 PUSH2 0x447C JUMP JUMPDEST DUP1 ISZERO PUSH2 0xC2A JUMPI DUP1 PUSH1 0x1F LT PUSH2 0xC01 JUMPI PUSH2 0x100 DUP1 DUP4 SLOAD DIV MUL DUP4 MSTORE SWAP2 PUSH1 0x20 ADD SWAP2 PUSH2 0xC2A JUMP JUMPDEST DUP3 ADD SWAP2 SWAP1 PUSH0 MSTORE PUSH1 0x20 PUSH0 KECCAK256 SWAP1 JUMPDEST DUP2 SLOAD DUP2 MSTORE SWAP1 PUSH1 0x1 ADD SWAP1 PUSH1 0x20 ADD DUP1 DUP4 GT PUSH2 0xC0D JUMPI DUP3 SWAP1 SUB PUSH1 0x1F AND DUP3 ADD SWAP2 JUMPDEST POP POP POP POP POP SWAP1 POP SWAP1 JUMP JUMPDEST PUSH0 DUP1 PUSH2 0xC3E PUSH2 0x2D15 JUMP JUMPDEST SWAP1 POP PUSH2 0xC4B DUP2 DUP6 DUP6 PUSH2 0x2D1C JUMP JUMPDEST PUSH1 0x1 SWAP2 POP POP SWAP3 SWAP2 POP POP JUMP JUMPDEST PUSH0 PUSH1 0x11 SLOAD SWAP1 POP SWAP1 JUMP JUMPDEST PUSH1 0xB PUSH0 SWAP1 SLOAD SWAP1 PUSH2 0x100 EXP SWAP1 DIV PUSH20 0xFFFFFFFFFFFFFFFFFFFFFFFFFFFFFFFFFFFFFFFF AND DUP2 JUMP JUMPDEST PUSH2 0xC8C PUSH2 0x2D2E JUMP JUMPDEST DUP1 PUSH1 0x9 PUSH0 PUSH2 0x100 EXP DUP2 SLOAD DUP2 PUSH1 0xFF MUL NOT AND SWAP1 DUP4 ISZERO ISZERO MUL OR SWAP1 SSTORE POP PUSH32 0xE2FB031EE032DC02D8011DC50B816EB450CF856ABD8261680DAC74F72165BD2 DUP2 PUSH1 0x40 MLOAD PUSH2 0xCD4 SWAP2 SWAP1 PUSH2 0x3CBE JUMP JUMPDEST PUSH1 0x40 MLOAD DUP1 SWAP2 SUB SWAP1 LOG1 POP JUMP JUMPDEST PUSH0 PUSH1 0x2 SLOAD SWAP1 POP SWAP1 JUMP JUMPDEST PUSH0 DUP1 PUSH2 0xCF2 PUSH2 0x2D15 JUMP JUMPDEST SWAP1 POP PUSH2 0xCFF DUP6 DUP3 DUP6 PUSH2 0x2DB5 JUMP JUMPDEST PUSH2 0xD0A DUP6 DUP6 DUP6 PUSH2 0x2E48 JUMP JUMPDEST PUSH1 0x1 SWAP2 POP POP SWAP4 SWAP3 POP POP POP JUMP JUMPDEST PUSH0 PUSH1 0x10 PUSH0 DUP4 PUSH20 0xFFFFFFFFFFFFFFFFFFFFFFFFFFFFFFFFFFFFFFFF AND PUSH20 0xFFFFFFFFFFFFFFFFFFFFFFFFFFFFFFFFFFFFFFFF AND DUP2 MSTORE PUSH1 0x20 ADD SWAP1 DUP2 MSTORE PUSH1 0x20 ADD PUSH0 KECCAK256 SLOAD SWAP1 POP SWAP2 SWAP1 POP JUMP JUMPDEST PUSH0 PUSH1 0x12 SWAP1 POP SWAP1 JUMP JUMPDEST PUSH2 0xD6C PUSH2 0x2D2E JUMP JUMPDEST PUSH1 0x9 PUSH0 SWAP1 SLOAD SWAP1 PUSH2 0x100 EXP SWAP1 DIV PUSH1 0xFF AND ISZERO PUSH2 0xDBB JUMPI PUSH1 0x40 MLOAD PUSH32 0x8C379A000000000000000000000000000000000000000000000000000000000 DUP2 MSTORE PUSH1 0x4 ADD PUSH2 0xDB2 SWAP1 PUSH2 0x44F6 JUMP JUMPDEST PUSH1 0x40 MLOAD DUP1 SWAP2 SUB SWAP1 REVERT JUMPDEST PUSH2 0xDC3 PUSH2 0x2F38 JUMP JUMPDEST PUSH0 PUSH2 0xDCD ADDRESS PUSH2 0x1D4C JUMP JUMPDEST SWAP1 POP DUP1 DUP3 GT ISZERO PUSH2 0xE12 JUMPI PUSH1 0x40 MLOAD PUSH32 0x8C379A000000000000000000000000000000000000000000000000000000000 DUP2 MSTORE PUSH1 0x4 ADD PUSH2 0xE09 SWAP1 PUSH2 0x4584 JUMP JUMPDEST PUSH1 0x40 MLOAD DUP1 SWAP2 SUB SWAP1 REVERT JUMPDEST PUSH2 0xE1D ADDRESS CALLER DUP5 PUSH2 0x2E48 JUMP JUMPDEST CALLER PUSH20 0xFFFFFFFFFFFFFFFFFFFFFFFFFFFFFFFFFFFFFFFF AND PUSH32 0x6352C5382C4A4578E712449CA65E83CDB392D045DFCF1CAD9615189DB2DA244B DUP4 PUSH1 0x40 MLOAD PUSH2 0xE63 SWAP2 SWAP1 PUSH2 0x3CE6 JUMP JUMPDEST PUSH1 0x40 MLOAD DUP1 SWAP2 SUB SWAP1 LOG2 POP PUSH2 0xE74 PUSH2 0x2F87 JUMP JUMPDEST POP JUMP JUMPDEST PUSH0 PUSH2 0xE81 ADDRESS PUSH2 0x1D4C JUMP JUMPDEST SWAP1 POP SWAP1 JUMP JUMPDEST PUSH0 CHAINID SWAP1 POP SWAP1 JUMP JUMPDEST PUSH2 0xE95 PUSH2 0x2D2E JUMP JUMPDEST PUSH0 PUSH20 0xFFFFFFFFFFFFFFFFFFFFFFFFFFFFFFFFFFFFFFFF AND DUP2 PUSH20 0xFFFFFFFFFFFFFFFFFFFFFFFFFFFFFFFFFFFFFFFF AND SUB PUSH2 0xF03 JUMPI PUSH1 0x40 MLOAD PUSH32 0x8C379A000000000000000000000000000000000000000000000000000000000 DUP2 MSTORE PUSH1 0x4 ADD PUSH2 0xEFA SWAP1 PUSH2 0x4612 JUMP JUMPDEST PUSH1 0x40 MLOAD DUP1 SWAP2 SUB SWAP1 REVERT JUMPDEST PUSH2 0xF0B PUSH2 0x2194 JUMP JUMPDEST PUSH20 0xFFFFFFFFFFFFFFFFFFFFFFFFFFFFFFFFFFFFFFFF AND DUP2 PUSH20 0xFFFFFFFFFFFFFFFFFFFFFFFFFFFFFFFFFFFFFFFF AND SUB PUSH2 0xF78 JUMPI PUSH1 0x40 MLOAD PUSH32 0x8C379A000000000000000000000000000000000000000000000000000000000 DUP2 MSTORE PUSH1 0x4 ADD PUSH2 0xF6F SWAP1 PUSH2 0x46A0 JUMP JUMPDEST PUSH1 0x40 MLOAD DUP1 SWAP2 SUB SWAP1 REVERT JUMPDEST DUP1 PUSH1 0x9 PUSH1 0x1 PUSH2 0x100 EXP DUP2 SLOAD DUP2 PUSH20 0xFFFFFFFFFFFFFFFFFFFFFFFFFFFFFFFFFFFFFFFF MUL NOT AND SWAP1 DUP4 PUSH20 0xFFFFFFFFFFFFFFFFFFFFFFFFFFFFFFFFFFFFFFFF AND MUL OR SWAP1 SSTORE POP DUP1 PUSH20 0xFFFFFFFFFFFFFFFFFFFFFFFFFFFFFFFFFFFFFFFF AND PUSH32 0xF8D006F2A6F983036DF27764C4AFD48AA2622D7A7437809876D762DFC0FDF7A6 PUSH1 0x40 MLOAD PUSH1 0x40 MLOAD DUP1 SWAP2 SUB SWAP1 LOG2 POP JUMP JUMPDEST PUSH1 0x9 PUSH1 0x1 SWAP1 SLOAD SWAP1 PUSH2 0x100 EXP SWAP1 DIV PUSH20 0xFFFFFFFFFFFFFFFFFFFFFFFFFFFFFFFFFFFFFFFF AND DUP2 JUMP JUMPDEST PUSH2 0x102D PUSH2 0x2D2E JUMP JUMPDEST PUSH2 0x1035 PUSH2 0x2F38 JUMP JUMPDEST PUSH3 0x15180 PUSH1 0xD SLOAD PUSH2 0x1046 SWAP2 SWAP1 PUSH2 0x46EB JUMP JUMPDEST TIMESTAMP LT ISZERO PUSH2 0x1088 JUMPI PUSH1 0x40 MLOAD PUSH32 0x8C379A000000000000000000000000000000000000000000000000000000000 DUP2 MSTORE PUSH1 0x4 ADD PUSH2 0x107F SWAP1 PUSH2 0x478E JUMP JUMPDEST PUSH1 0x40 MLOAD DUP1 SWAP2 SUB SWAP1 REVERT JUMPDEST PUSH0 PUSH20 0xFFFFFFFFFFFFFFFFFFFFFFFFFFFFFFFFFFFFFFFF AND DUP3 PUSH20 0xFFFFFFFFFFFFFFFFFFFFFFFFFFFFFFFFFFFFFFFF AND SUB PUSH2 0x10F6 JUMPI PUSH1 0x40 MLOAD PUSH32 0x8C379A000000000000000000000000000000000000000000000000000000000 DUP2 MSTORE PUSH1 0x4 ADD PUSH2 0x10ED SWAP1 PUSH2 0x481C JUMP JUMPDEST PUSH1 0x40 MLOAD DUP1 SWAP2 SUB SWAP1 REVERT JUMPDEST PUSH0 DUP2 GT DUP1 ISZERO PUSH2 0x1111 JUMPI POP PUSH12 0x33B2E3C9FD0803CE8000000 DUP2 GT ISZERO JUMPDEST PUSH2 0x1150 JUMPI PUSH1 0x40 MLOAD PUSH32 0x8C379A000000000000000000000000000000000000000000000000000000000 DUP2 MSTORE PUSH1 0x4 ADD PUSH2 0x1147 SWAP1 PUSH2 0x48AA JUMP JUMPDEST PUSH1 0x40 MLOAD DUP1 SWAP2 SUB SWAP1 REVERT JUMPDEST PUSH1 0x2 PUSH12 0x33B2E3C9FD0803CE8000000 PUSH2 0x1169 SWAP2 SWAP1 PUSH2 0x48C8 JUMP JUMPDEST DUP2 PUSH2 0x1172 PUSH2 0xCDF JUMP JUMPDEST PUSH2 0x117C SWAP2 SWAP1 PUSH2 0x46EB JUMP JUMPDEST GT ISZERO PUSH2 0x11BD JUMPI PUSH1 0x40 MLOAD PUSH32 0x8C379A000000000000000000000000000000000000000000000000000000000 DUP2 MSTORE PUSH1 0x4 ADD PUSH2 0x11B4 SWAP1 PUSH2 0x4979 JUMP JUMPDEST PUSH1 0x40 MLOAD DUP1 SWAP2 SUB SWAP1 REVERT JUMPDEST DUP1 PUSH1 0x11 PUSH0 DUP3 DUP3 SLOAD PUSH2 0x11CE SWAP2 SWAP1 PUSH2 0x46EB JUMP JUMPDEST SWAP3 POP POP DUP2 SWAP1 SSTORE POP PUSH2 0x11DF DUP3 DUP3 PUSH2 0x2F91 JUMP JUMPDEST TIMESTAMP PUSH1 0xD DUP2 SWAP1 SSTORE POP DUP2 PUSH20 0xFFFFFFFFFFFFFFFFFFFFFFFFFFFFFFFFFFFFFFFF AND PUSH32 0x3F2C9D57C068687834F0DE942A9BABB9E5ACAB57D516D3480A3C16EE165A4273 DUP3 PUSH1 0x40 MLOAD PUSH2 0x122C SWAP2 SWAP1 PUSH2 0x3CE6 JUMP JUMPDEST PUSH1 0x40 MLOAD DUP1 SWAP2 SUB SWAP1 LOG2 PUSH2 0x123C PUSH2 0x2F87 JUMP JUMPDEST POP POP JUMP JUMPDEST PUSH2 0x1248 PUSH2 0x2D2E JUMP JUMPDEST PUSH2 0x1250 PUSH2 0x2F38 JUMP JUMPDEST PUSH2 0x1258 PUSH2 0x2194 JUMP JUMPDEST PUSH20 0xFFFFFFFFFFFFFFFFFFFFFFFFFFFFFFFFFFFFFFFF AND CALLER PUSH20 0xFFFFFFFFFFFFFFFFFFFFFFFFFFFFFFFFFFFFFFFF AND EQ PUSH2 0x12C5 JUMPI PUSH1 0x40 MLOAD PUSH32 0x8C379A000000000000000000000000000000000000000000000000000000000 DUP2 MSTORE PUSH1 0x4 ADD PUSH2 0x12BC SWAP1 PUSH2 0x4A07 JUMP JUMPDEST PUSH1 0x40 MLOAD DUP1 SWAP2 SUB SWAP1 REVERT JUMPDEST PUSH0 SELFBALANCE SWAP1 POP DUP1 DUP3 GT ISZERO PUSH2 0x130C JUMPI PUSH1 0x40 MLOAD PUSH32 0x8C379A000000000000000000000000000000000000000000000000000000000 DUP2 MSTORE PUSH1 0x4 ADD PUSH2 0x1303 SWAP1 PUSH2 0x4A6F JUMP JUMPDEST PUSH1 0x40 MLOAD DUP1 SWAP2 SUB SWAP1 REVERT JUMPDEST PUSH0 CALLER PUSH20 0xFFFFFFFFFFFFFFFFFFFFFFFFFFFFFFFFFFFFFFFF AND DUP4 PUSH1 0x40 MLOAD PUSH2 0x1331 SWAP1 PUSH2 0x4ABA JUMP JUMPDEST PUSH0 PUSH1 0x40 MLOAD DUP1 DUP4 SUB DUP2 DUP6 DUP8 GAS CALL SWAP3 POP POP POP RETURNDATASIZE DUP1 PUSH0 DUP2 EQ PUSH2 0x136B JUMPI PUSH1 0x40 MLOAD SWAP2 POP PUSH1 0x1F NOT PUSH1 0x3F RETURNDATASIZE ADD AND DUP3 ADD PUSH1 0x40 MSTORE RETURNDATASIZE DUP3 MSTORE RETURNDATASIZE PUSH0 PUSH1 0x20 DUP5 ADD RETURNDATACOPY PUSH2 0x1370 JUMP JUMPDEST PUSH1 0x60 SWAP2 POP JUMPDEST POP POP SWAP1 POP DUP1 PUSH2 0x13B4 JUMPI PUSH1 0x40 MLOAD PUSH32 0x8C379A000000000000000000000000000000000000000000000000000000000 DUP2 MSTORE PUSH1 0x4 ADD PUSH2 0x13AB SWAP1 PUSH2 0x4B18 JUMP JUMPDEST PUSH1 0x40 MLOAD DUP1 SWAP2 SUB SWAP1 REVERT JUMPDEST CALLER PUSH20 0xFFFFFFFFFFFFFFFFFFFFFFFFFFFFFFFFFFFFFFFF AND PUSH32 0x862E81FFB41A750A66F27BAC6FC0399CF0976224A18B9E9BFF067F91E1D372BB DUP5 PUSH1 0x40 MLOAD PUSH2 0x13FA SWAP2 SWAP1 PUSH2 0x3CE6 JUMP JUMPDEST PUSH1 0x40 MLOAD DUP1 SWAP2 SUB SWAP1 LOG2 POP POP PUSH2 0x140C PUSH2 0x2F87 JUMP JUMPDEST POP JUMP JUMPDEST PUSH1 0x9 PUSH0 SWAP1 SLOAD SWAP1 PUSH2 0x100 EXP SWAP1 DIV PUSH1 0xFF AND ISZERO PUSH2 0x145E JUMPI PUSH1 0x40 MLOAD PUSH32 0x8C379A000000000000000000000000000000000000000000000000000000000 DUP2 MSTORE PUSH1 0x4 ADD PUSH2 0x1455 SWAP1 PUSH2 0x44F6 JUMP JUMPDEST PUSH1 0x40 MLOAD DUP1 SWAP2 SUB SWAP1 REVERT JUMPDEST PUSH2 0x1466 PUSH2 0x2F38 JUMP JUMPDEST PUSH0 DUP2 GT PUSH2 0x14A8 JUMPI PUSH1 0x40 MLOAD PUSH32 0x8C379A000000000000000000000000000000000000000000000000000000000 DUP2 MSTORE PUSH1 0x4 ADD PUSH2 0x149F SWAP1 PUSH2 0x4BA6 JUMP JUMPDEST PUSH1 0x40 MLOAD DUP1 SWAP2 SUB SWAP1 REVERT JUMPDEST DUP1 PUSH1 0x12 PUSH0 DUP3 DUP3 SLOAD PUSH2 0x14B9 SWAP2 SWAP1 PUSH2 0x46EB JUMP JUMPDEST SWAP3 POP POP DUP2 SWAP1 SSTORE POP PUSH2 0x14CA CALLER DUP3 PUSH2 0x3010 JUMP JUMPDEST CALLER PUSH20 0xFFFFFFFFFFFFFFFFFFFFFFFFFFFFFFFFFFFFFFFF AND PUSH32 0xFD38818F5291BF0BB3A2A48AADC06BA8757865D1DABD804585338AAB3009DCB6 DUP3 PUSH1 0x40 MLOAD PUSH2 0x1510 SWAP2 SWAP1 PUSH2 0x3CE6 JUMP JUMPDEST PUSH1 0x40 MLOAD DUP1 SWAP2 SUB SWAP1 LOG2 PUSH2 0x1520 PUSH2 0x2F87 JUMP JUMPDEST POP JUMP JUMPDEST PUSH1 0x60 PUSH1 0xA DUP1 SLOAD PUSH2 0x1532 SWAP1 PUSH2 0x447C JUMP JUMPDEST DUP1 PUSH1 0x1F ADD PUSH1 0x20 DUP1 SWAP2 DIV MUL PUSH1 0x20 ADD PUSH1 0x40 MLOAD SWAP1 DUP2 ADD PUSH1 0x40 MSTORE DUP1 SWAP3 SWAP2 SWAP1 DUP2 DUP2 MSTORE PUSH1 0x20 ADD DUP3 DUP1 SLOAD PUSH2 0x155E SWAP1 PUSH2 0x447C JUMP JUMPDEST DUP1 ISZERO PUSH2 0x15A9 JUMPI DUP1 PUSH1 0x1F LT PUSH2 0x1580 JUMPI PUSH2 0x100 DUP1 DUP4 SLOAD DIV MUL DUP4 MSTORE SWAP2 PUSH1 0x20 ADD SWAP2 PUSH2 0x15A9 JUMP JUMPDEST DUP3 ADD SWAP2 SWAP1 PUSH0 MSTORE PUSH1 0x20 PUSH0 KECCAK256 SWAP1 JUMPDEST DUP2 SLOAD DUP2 MSTORE SWAP1 PUSH1 0x1 ADD SWAP1 PUSH1 0x20 ADD DUP1 DUP4 GT PUSH2 0x158C JUMPI DUP3 SWAP1 SUB PUSH1 0x1F AND DUP3 ADD SWAP2 JUMPDEST POP POP POP POP POP SWAP1 POP SWAP1 JUMP JUMPDEST PUSH1 0x2 PUSH12 0x33B2E3C9FD0803CE8000000 PUSH2 0x15CC SWAP2 SWAP1 PUSH2 0x48C8 JUMP JUMPDEST DUP2 JUMP JUMPDEST PUSH2 0x15D7 PUSH2 0x2D2E JUMP JUMPDEST PUSH1 0x9 PUSH0 SWAP1 SLOAD SWAP1 PUSH2 0x100 EXP SWAP1 DIV PUSH1 0xFF AND ISZERO PUSH2 0x1626 JUMPI PUSH1 0x40 MLOAD PUSH32 0x8C379A000000000000000000000000000000000000000000000000000000000 DUP2 MSTORE PUSH1 0x4 ADD PUSH2 0x161D SWAP1 PUSH2 0x44F6 JUMP JUMPDEST PUSH1 0x40 MLOAD DUP1 SWAP2 SUB SWAP1 REVERT JUMPDEST PUSH2 0x162E PUSH2 0x2F38 JUMP JUMPDEST PUSH0 PUSH20 0xFFFFFFFFFFFFFFFFFFFFFFFFFFFFFFFFFFFFFFFF AND DUP7 PUSH20 0xFFFFFFFFFFFFFFFFFFFFFFFFFFFFFFFFFFFFFFFF AND SUB PUSH2 0x169C JUMPI PUSH1 0x40 MLOAD PUSH32 0x8C379A000000000000000000000000000000000000000000000000000000000 DUP2 MSTORE PUSH1 0x4 ADD PUSH2 0x1693 SWAP1 PUSH2 0x4C34 JUMP JUMPDEST PUSH1 0x40 MLOAD DUP1 SWAP2 SUB SWAP1 REVERT JUMPDEST PUSH0 DUP6 GT PUSH2 0x16DE JUMPI PUSH1 0x40 MLOAD PUSH32 0x8C379A000000000000000000000000000000000000000000000000000000000 DUP2 MSTORE PUSH1 0x4 ADD PUSH2 0x16D5 SWAP1 PUSH2 0x4BA6 JUMP JUMPDEST PUSH1 0x40 MLOAD DUP1 SWAP2 SUB SWAP1 REVERT JUMPDEST PUSH1 0x10 PUSH0 DUP8 PUSH20 0xFFFFFFFFFFFFFFFFFFFFFFFFFFFFFFFFFFFFFFFF AND PUSH20 0xFFFFFFFFFFFFFFFFFFFFFFFFFFFFFFFFFFFFFFFF AND DUP2 MSTORE PUSH1 0x20 ADD SWAP1 DUP2 MSTORE PUSH1 0x20 ADD PUSH0 KECCAK256 SLOAD DUP5 EQ PUSH2 0x175D JUMPI PUSH1 0x40 MLOAD PUSH32 0x8C379A000000000000000000000000000000000000000000000000000000000 DUP2 MSTORE PUSH1 0x4 ADD PUSH2 0x1754 SWAP1 PUSH2 0x4C9C JUMP JUMPDEST PUSH1 0x40 MLOAD DUP1 SWAP2 SUB SWAP1 REVERT JUMPDEST DUP5 PUSH2 0x1767 DUP8 PUSH2 0x1D4C JUMP JUMPDEST LT ISZERO PUSH2 0x17A8 JUMPI PUSH1 0x40 MLOAD PUSH32 0x8C379A000000000000000000000000000000000000000000000000000000000 DUP2 MSTORE PUSH1 0x4 ADD PUSH2 0x179F SWAP1 PUSH2 0x4D04 JUMP JUMPDEST PUSH1 0x40 MLOAD DUP1 SWAP2 SUB SWAP1 REVERT JUMPDEST PUSH1 0x1B DUP4 PUSH1 0xFF AND EQ DUP1 PUSH2 0x17BD JUMPI POP PUSH1 0x1C DUP4 PUSH1 0xFF AND EQ JUMPDEST PUSH2 0x17FC JUMPI PUSH1 0x40 MLOAD PUSH32 0x8C379A000000000000000000000000000000000000000000000000000000000 DUP2 MSTORE PUSH1 0x4 ADD PUSH2 0x17F3 SWAP1 PUSH2 0x4D6C JUMP JUMPDEST PUSH1 0x40 MLOAD DUP1 SWAP2 SUB SWAP1 REVERT JUMPDEST PUSH0 DUP1 SHL DUP3 EQ ISZERO DUP1 ISZERO PUSH2 0x1810 JUMPI POP PUSH0 DUP1 SHL DUP2 EQ ISZERO JUMPDEST PUSH2 0x184F JUMPI PUSH1 0x40 MLOAD PUSH32 0x8C379A000000000000000000000000000000000000000000000000000000000 DUP2 MSTORE PUSH1 0x4 ADD PUSH2 0x1846 SWAP1 PUSH2 0x4DFA JUMP JUMPDEST PUSH1 0x40 MLOAD DUP1 SWAP2 SUB SWAP1 REVERT JUMPDEST PUSH32 0xFFFFFFFFFFFFFFFFFFFFFFFFFFFFFFFFFFFFFFFFFFFFFFFFFFFFFFFFFFFFFFFF PUSH1 0x10 PUSH0 DUP9 PUSH20 0xFFFFFFFFFFFFFFFFFFFFFFFFFFFFFFFFFFFFFFFF AND PUSH20 0xFFFFFFFFFFFFFFFFFFFFFFFFFFFFFFFFFFFFFFFF AND DUP2 MSTORE PUSH1 0x20 ADD SWAP1 DUP2 MSTORE PUSH1 0x20 ADD PUSH0 KECCAK256 SLOAD LT PUSH2 0x18EE JUMPI PUSH1 0x40 MLOAD PUSH32 0x8C379A000000000000000000000000000000000000000000000000000000000 DUP2 MSTORE PUSH1 0x4 ADD PUSH2 0x18E5 SWAP1 PUSH2 0x4E88 JUMP JUMPDEST PUSH1 0x40 MLOAD DUP1 SWAP2 SUB SWAP1 REVERT JUMPDEST PUSH0 PUSH32 0x8CCF814E85DC7996D2FD4D1257897F2A8AC1D16C31B626D14FE05C0D862CC095 DUP8 DUP8 DUP8 PUSH1 0x40 MLOAD PUSH1 0x20 ADD PUSH2 0x1926 SWAP5 SWAP4 SWAP3 SWAP2 SWAP1 PUSH2 0x4EA6 JUMP JUMPDEST PUSH1 0x40 MLOAD PUSH1 0x20 DUP2 DUP4 SUB SUB DUP2 MSTORE SWAP1 PUSH1 0x40 MSTORE DUP1 MLOAD SWAP1 PUSH1 0x20 ADD KECCAK256 SWAP1 POP PUSH0 PUSH2 0x1948 DUP3 PUSH2 0x308F JUMP JUMPDEST SWAP1 POP PUSH0 PUSH2 0x1957 DUP3 DUP8 DUP8 DUP8 PUSH2 0x30A8 JUMP JUMPDEST SWAP1 POP DUP9 PUSH20 0xFFFFFFFFFFFFFFFFFFFFFFFFFFFFFFFFFFFFFFFF AND DUP2 PUSH20 0xFFFFFFFFFFFFFFFFFFFFFFFFFFFFFFFFFFFFFFFF AND EQ PUSH2 0x19C7 JUMPI PUSH1 0x40 MLOAD PUSH32 0x8C379A000000000000000000000000000000000000000000000000000000000 DUP2 MSTORE PUSH1 0x4 ADD PUSH2 0x19BE SWAP1 PUSH2 0x4F33 JUMP JUMPDEST PUSH1 0x40 MLOAD DUP1 SWAP2 SUB SWAP1 REVERT JUMPDEST PUSH1 0x10 PUSH0 DUP11 PUSH20 0xFFFFFFFFFFFFFFFFFFFFFFFFFFFFFFFFFFFFFFFF AND PUSH20 0xFFFFFFFFFFFFFFFFFFFFFFFFFFFFFFFFFFFFFFFF AND DUP2 MSTORE PUSH1 0x20 ADD SWAP1 DUP2 MSTORE PUSH1 0x20 ADD PUSH0 KECCAK256 PUSH0 DUP2 SLOAD DUP1 SWAP3 SWAP2 SWAP1 PUSH2 0x1A14 SWAP1 PUSH2 0x4F51 JUMP JUMPDEST SWAP2 SWAP1 POP SSTORE POP PUSH2 0x1A2B DUP10 PUSH2 0x1A25 PUSH2 0x2194 JUMP JUMPDEST DUP11 PUSH2 0x2E48 JUMP JUMPDEST DUP9 PUSH20 0xFFFFFFFFFFFFFFFFFFFFFFFFFFFFFFFFFFFFFFFF AND PUSH32 0xEE9DDDDB5D196BDAE24427887FD4D11AA2DB31074B90B5F21A8CE32AF756669F DUP10 PUSH1 0x40 MLOAD PUSH2 0x1A71 SWAP2 SWAP1 PUSH2 0x3CE6 JUMP JUMPDEST PUSH1 0x40 MLOAD DUP1 SWAP2 SUB SWAP1 LOG2 POP POP POP PUSH2 0x1A84 PUSH2 0x2F87 JUMP JUMPDEST POP POP POP POP POP POP JUMP JUMPDEST PUSH1 0x60 ADDRESS PUSH20 0xFFFFFFFFFFFFFFFFFFFFFFFFFFFFFFFFFFFFFFFF AND DUP1 EXTCODESIZE DUP1 PUSH1 0x20 ADD PUSH1 0x40 MLOAD SWAP1 DUP2 ADD PUSH1 0x40 MSTORE DUP2 DUP2 MSTORE PUSH0 SWAP1 DUP1 PUSH1 0x20 ADD SWAP1 SWAP4 EXTCODECOPY SWAP1 POP SWAP1 JUMP JUMPDEST PUSH1 0x9 PUSH0 SWAP1 SLOAD SWAP1 PUSH2 0x100 EXP SWAP1 DIV PUSH1 0xFF AND DUP2 JUMP JUMPDEST PUSH1 0xF DUP2 DUP1 MLOAD PUSH1 0x20 DUP2 ADD DUP3 ADD DUP1 MLOAD DUP5 DUP3 MSTORE PUSH1 0x20 DUP4 ADD PUSH1 0x20 DUP6 ADD KECCAK256 DUP2 DUP4 MSTORE DUP1 SWAP6 POP POP POP POP POP POP PUSH0 SWAP2 POP SLOAD SWAP1 PUSH2 0x100 EXP SWAP1 DIV PUSH20 0xFFFFFFFFFFFFFFFFFFFFFFFFFFFFFFFFFFFFFFFF AND DUP2 JUMP JUMPDEST PUSH2 0x1B27 PUSH2 0x2D2E JUMP JUMPDEST PUSH0 PUSH20 0xFFFFFFFFFFFFFFFFFFFFFFFFFFFFFFFFFFFFFFFF AND PUSH1 0xF DUP3 PUSH1 0x40 MLOAD PUSH2 0x1B4E SWAP2 SWAP1 PUSH2 0x4FD2 JUMP JUMPDEST SWAP1 DUP2 MSTORE PUSH1 0x20 ADD PUSH1 0x40 MLOAD DUP1 SWAP2 SUB SWAP1 KECCAK256 PUSH0 SWAP1 SLOAD SWAP1 PUSH2 0x100 EXP SWAP1 DIV PUSH20 0xFFFFFFFFFFFFFFFFFFFFFFFFFFFFFFFFFFFFFFFF AND PUSH20 0xFFFFFFFFFFFFFFFFFFFFFFFFFFFFFFFFFFFFFFFF AND SUB PUSH2 0x1BD2 JUMPI PUSH1 0x40 MLOAD PUSH32 0x8C379A000000000000000000000000000000000000000000000000000000000 DUP2 MSTORE PUSH1 0x4 ADD PUSH2 0x1BC9 SWAP1 PUSH2 0x5032 JUMP JUMPDEST PUSH1 0x40 MLOAD DUP1 SWAP2 SUB SWAP1 REVERT JUMPDEST PUSH0 PUSH1 0xF DUP3 PUSH1 0x40 MLOAD PUSH2 0x1BE3 SWAP2 SWAP1 PUSH2 0x4FD2 JUMP JUMPDEST SWAP1 DUP2 MSTORE PUSH1 0x20 ADD PUSH1 0x40 MLOAD DUP1 SWAP2 SUB SWAP1 KECCAK256 PUSH0 SWAP1 SLOAD SWAP1 PUSH2 0x100 EXP SWAP1 DIV PUSH20 0xFFFFFFFFFFFFFFFFFFFFFFFFFFFFFFFFFFFFFFFF AND PUSH20 0xFFFFFFFFFFFFFFFFFFFFFFFFFFFFFFFFFFFFFFFF AND EXTCODESIZE GT PUSH2 0x1C68 JUMPI PUSH1 0x40 MLOAD PUSH32 0x8C379A000000000000000000000000000000000000000000000000000000000 DUP2 MSTORE PUSH1 0x4 ADD PUSH2 0x1C5F SWAP1 PUSH2 0x50C0 JUMP JUMPDEST PUSH1 0x40 MLOAD DUP1 SWAP2 SUB SWAP1 REVERT JUMPDEST PUSH1 0xF DUP2 PUSH1 0x40 MLOAD PUSH2 0x1C78 SWAP2 SWAP1 PUSH2 0x4FD2 JUMP JUMPDEST SWAP1 DUP2 MSTORE PUSH1 0x20 ADD PUSH1 0x40 MLOAD DUP1 SWAP2 SUB SWAP1 KECCAK256 PUSH0 SWAP1 SLOAD SWAP1 PUSH2 0x100 EXP SWAP1 DIV PUSH20 0xFFFFFFFFFFFFFFFFFFFFFFFFFFFFFFFFFFFFFFFF AND PUSH1 0xB PUSH0 PUSH2 0x100 EXP DUP2 SLOAD DUP2 PUSH20 0xFFFFFFFFFFFFFFFFFFFFFFFFFFFFFFFFFFFFFFFF MUL NOT AND SWAP1 DUP4 PUSH20 0xFFFFFFFFFFFFFFFFFFFFFFFFFFFFFFFFFFFFFFFF AND MUL OR SWAP1 SSTORE POP PUSH1 0xB PUSH0 SWAP1 SLOAD SWAP1 PUSH2 0x100 EXP SWAP1 DIV PUSH20 0xFFFFFFFFFFFFFFFFFFFFFFFFFFFFFFFFFFFFFFFF AND PUSH20 0xFFFFFFFFFFFFFFFFFFFFFFFFFFFFFFFFFFFFFFFF AND PUSH32 0x7AED1D3E8155A07CCF395E44EA3109A0E2D6C9B29BBBE9F142D9790596F4DC80 PUSH1 0x40 MLOAD PUSH1 0x40 MLOAD DUP1 SWAP2 SUB SWAP1 LOG2 POP JUMP JUMPDEST PUSH0 DUP1 PUSH0 DUP4 PUSH20 0xFFFFFFFFFFFFFFFFFFFFFFFFFFFFFFFFFFFFFFFF AND PUSH20 0xFFFFFFFFFFFFFFFFFFFFFFFFFFFFFFFFFFFFFFFF AND DUP2 MSTORE PUSH1 0x20 ADD SWAP1 DUP2 MSTORE PUSH1 0x20 ADD PUSH0 KECCAK256 SLOAD SWAP1 POP SWAP2 SWAP1 POP JUMP JUMPDEST PUSH2 0x1D99 PUSH2 0x2D2E JUMP JUMPDEST PUSH2 0x1DA2 PUSH0 PUSH2 0x30D6 JUMP JUMPDEST JUMP JUMPDEST PUSH1 0x10 PUSH1 0x20 MSTORE DUP1 PUSH0 MSTORE PUSH1 0x40 PUSH0 KECCAK256 PUSH0 SWAP2 POP SWAP1 POP SLOAD DUP2 JUMP JUMPDEST PUSH0 PUSH1 0x60 DUP1 PUSH0 DUP1 PUSH0 PUSH1 0x60 PUSH2 0x1DCA PUSH2 0x3199 JUMP JUMPDEST PUSH2 0x1DD2 PUSH2 0x31D4 JUMP JUMPDEST CHAINID ADDRESS PUSH0 DUP1 SHL PUSH0 PUSH8 0xFFFFFFFFFFFFFFFF DUP2 GT ISZERO PUSH2 0x1DF1 JUMPI PUSH2 0x1DF0 PUSH2 0x3FB6 JUMP JUMPDEST JUMPDEST PUSH1 0x40 MLOAD SWAP1 DUP1 DUP3 MSTORE DUP1 PUSH1 0x20 MUL PUSH1 0x20 ADD DUP3 ADD PUSH1 0x40 MSTORE DUP1 ISZERO PUSH2 0x1E1F JUMPI DUP2 PUSH1 0x20 ADD PUSH1 0x20 DUP3 MUL DUP1 CALLDATASIZE DUP4 CALLDATACOPY DUP1 DUP3 ADD SWAP2 POP POP SWAP1 POP JUMPDEST POP PUSH32 0xF00000000000000000000000000000000000000000000000000000000000000 SWAP6 SWAP5 SWAP4 SWAP3 SWAP2 SWAP1 SWAP7 POP SWAP7 POP SWAP7 POP SWAP7 POP SWAP7 POP SWAP7 POP SWAP7 POP SWAP1 SWAP2 SWAP3 SWAP4 SWAP5 SWAP6 SWAP7 JUMP JUMPDEST PUSH2 0x1E66 PUSH2 0x2D2E JUMP JUMPDEST PUSH2 0x1E6E PUSH2 0x2F38 JUMP JUMPDEST PUSH2 0xE10 PUSH1 0xE SLOAD PUSH2 0x1E7E SWAP2 SWAP1 PUSH2 0x46EB JUMP JUMPDEST TIMESTAMP LT ISZERO PUSH2 0x1EC0 JUMPI PUSH1 0x40 MLOAD PUSH32 0x8C379A000000000000000000000000000000000000000000000000000000000 DUP2 MSTORE PUSH1 0x4 ADD PUSH2 0x1EB7 SWAP1 PUSH2 0x514E JUMP JUMPDEST PUSH1 0x40 MLOAD DUP1 SWAP2 SUB SWAP1 REVERT JUMPDEST DUP2 DUP2 SWAP1 POP DUP5 DUP5 SWAP1 POP EQ PUSH2 0x1F08 JUMPI PUSH1 0x40 MLOAD PUSH32 0x8C379A000000000000000000000000000000000000000000000000000000000 DUP2 MSTORE PUSH1 0x4 ADD PUSH2 0x1EFF SWAP1 PUSH2 0x51DC JUMP JUMPDEST PUSH1 0x40 MLOAD DUP1 SWAP2 SUB SWAP1 REVERT JUMPDEST PUSH0 DUP5 DUP5 SWAP1 POP GT DUP1 ISZERO PUSH2 0x1F1E JUMPI POP PUSH1 0x32 DUP5 DUP5 SWAP1 POP GT ISZERO JUMPDEST PUSH2 0x1F5D JUMPI PUSH1 0x40 MLOAD PUSH32 0x8C379A000000000000000000000000000000000000000000000000000000000 DUP2 MSTORE PUSH1 0x4 ADD PUSH2 0x1F54 SWAP1 PUSH2 0x526A JUMP JUMPDEST PUSH1 0x40 MLOAD DUP1 SWAP2 SUB SWAP1 REVERT JUMPDEST PUSH0 DUP1 JUMPDEST DUP4 DUP4 SWAP1 POP DUP2 LT ISZERO PUSH2 0x1FFA JUMPI PUSH0 DUP5 DUP5 DUP4 DUP2 DUP2 LT PUSH2 0x1F7F JUMPI PUSH2 0x1F7E PUSH2 0x5288 JUMP JUMPDEST JUMPDEST SWAP1 POP PUSH1 0x20 MUL ADD CALLDATALOAD GT PUSH2 0x1FC6 JUMPI PUSH1 0x40 MLOAD PUSH32 0x8C379A000000000000000000000000000000000000000000000000000000000 DUP2 MSTORE PUSH1 0x4 ADD PUSH2 0x1FBD SWAP1 PUSH2 0x4BA6 JUMP JUMPDEST PUSH1 0x40 MLOAD DUP1 SWAP2 SUB SWAP1 REVERT JUMPDEST DUP4 DUP4 DUP3 DUP2 DUP2 LT PUSH2 0x1FD9 JUMPI PUSH2 0x1FD8 PUSH2 0x5288 JUMP JUMPDEST JUMPDEST SWAP1 POP PUSH1 0x20 MUL ADD CALLDATALOAD DUP3 PUSH2 0x1FEB SWAP2 SWAP1 PUSH2 0x46EB JUMP JUMPDEST SWAP2 POP DUP1 DUP1 PUSH1 0x1 ADD SWAP2 POP POP PUSH2 0x1F60 JUMP JUMPDEST POP DUP1 PUSH2 0x2005 CALLER PUSH2 0x1D4C JUMP JUMPDEST LT ISZERO PUSH2 0x2046 JUMPI PUSH1 0x40 MLOAD PUSH32 0x8C379A000000000000000000000000000000000000000000000000000000000 DUP2 MSTORE PUSH1 0x4 ADD PUSH2 0x203D SWAP1 PUSH2 0x5325 JUMP JUMPDEST PUSH1 0x40 MLOAD DUP1 SWAP2 SUB SWAP1 REVERT JUMPDEST PUSH0 JUMPDEST DUP6 DUP6 SWAP1 POP DUP2 LT ISZERO PUSH2 0x2140 JUMPI PUSH0 PUSH20 0xFFFFFFFFFFFFFFFFFFFFFFFFFFFFFFFFFFFFFFFF AND DUP7 DUP7 DUP4 DUP2 DUP2 LT PUSH2 0x207D JUMPI PUSH2 0x207C PUSH2 0x5288 JUMP JUMPDEST JUMPDEST SWAP1 POP PUSH1 0x20 MUL ADD PUSH1 0x20 DUP2 ADD SWAP1 PUSH2 0x2092 SWAP2 SWAP1 PUSH2 0x3DCC JUMP JUMPDEST PUSH20 0xFFFFFFFFFFFFFFFFFFFFFFFFFFFFFFFFFFFFFFFF AND SUB PUSH2 0x20E8 JUMPI PUSH1 0x40 MLOAD PUSH32 0x8C379A000000000000000000000000000000000000000000000000000000000 DUP2 MSTORE PUSH1 0x4 ADD PUSH2 0x20DF SWAP1 PUSH2 0x481C JUMP JUMPDEST PUSH1 0x40 MLOAD DUP1 SWAP2 SUB SWAP1 REVERT JUMPDEST PUSH2 0x2133 CALLER DUP8 DUP8 DUP5 DUP2 DUP2 LT PUSH2 0x20FF JUMPI PUSH2 0x20FE PUSH2 0x5288 JUMP JUMPDEST JUMPDEST SWAP1 POP PUSH1 0x20 MUL ADD PUSH1 0x20 DUP2 ADD SWAP1 PUSH2 0x2114 SWAP2 SWAP1 PUSH2 0x3DCC JUMP JUMPDEST DUP7 DUP7 DUP6 DUP2 DUP2 LT PUSH2 0x2127 JUMPI PUSH2 0x2126 PUSH2 0x5288 JUMP JUMPDEST JUMPDEST SWAP1 POP PUSH1 0x20 MUL ADD CALLDATALOAD PUSH2 0x2E48 JUMP JUMPDEST DUP1 DUP1 PUSH1 0x1 ADD SWAP2 POP POP PUSH2 0x2048 JUMP JUMPDEST POP TIMESTAMP PUSH1 0xE DUP2 SWAP1 SSTORE POP PUSH32 0x2A8B481C4FD6B79532B02DCB3D102185CBFAF1FE525AE1283184C2FB15CBCA1D DUP6 DUP6 DUP6 DUP6 PUSH1 0x40 MLOAD PUSH2 0x217D SWAP5 SWAP4 SWAP3 SWAP2 SWAP1 PUSH2 0x5467 JUMP JUMPDEST PUSH1 0x40 MLOAD DUP1 SWAP2 SUB SWAP1 LOG1 POP PUSH2 0x218E PUSH2 0x2F87 JUMP JUMPDEST POP POP POP POP JUMP JUMPDEST PUSH0 PUSH1 0x5 PUSH0 SWAP1 SLOAD SWAP1 PUSH2 0x100 EXP SWAP1 DIV PUSH20 0xFFFFFFFFFFFFFFFFFFFFFFFFFFFFFFFFFFFFFFFF AND SWAP1 POP SWAP1 JUMP JUMPDEST PUSH1 0xD SLOAD DUP2 JUMP JUMPDEST PUSH2 0xE10 DUP2 JUMP JUMPDEST PUSH1 0x60 PUSH1 0x4 DUP1 SLOAD PUSH2 0x21D7 SWAP1 PUSH2 0x447C JUMP JUMPDEST DUP1 PUSH1 0x1F ADD PUSH1 0x20 DUP1 SWAP2 DIV MUL PUSH1 0x20 ADD PUSH1 0x40 MLOAD SWAP1 DUP2 ADD PUSH1 0x40 MSTORE DUP1 SWAP3 SWAP2 SWAP1 DUP2 DUP2 MSTORE PUSH1 0x20 ADD DUP3 DUP1 SLOAD PUSH2 0x2203 SWAP1 PUSH2 0x447C JUMP JUMPDEST DUP1 ISZERO PUSH2 0x224E JUMPI DUP1 PUSH1 0x1F LT PUSH2 0x2225 JUMPI PUSH2 0x100 DUP1 DUP4 SLOAD DIV MUL DUP4 MSTORE SWAP2 PUSH1 0x20 ADD SWAP2 PUSH2 0x224E JUMP JUMPDEST DUP3 ADD SWAP2 SWAP1 PUSH0 MSTORE PUSH1 0x20 PUSH0 KECCAK256 SWAP1 JUMPDEST DUP2 SLOAD DUP2 MSTORE SWAP1 PUSH1 0x1 ADD SWAP1 PUSH1 0x20 ADD DUP1 DUP4 GT PUSH2 0x2231 JUMPI DUP3 SWAP1 SUB PUSH1 0x1F AND DUP3 ADD SWAP2 JUMPDEST POP POP POP POP POP SWAP1 POP SWAP1 JUMP JUMPDEST PUSH0 PUSH1 0xC SLOAD SWAP1 POP SWAP1 JUMP JUMPDEST PUSH2 0x2269 PUSH2 0x2D2E JUMP JUMPDEST PUSH2 0x2271 PUSH2 0x2F38 JUMP JUMPDEST PUSH0 DUP3 GT DUP1 ISZERO PUSH2 0x227F JUMPI POP PUSH0 DUP2 GT JUMPDEST PUSH2 0x22BE JUMPI PUSH1 0x40 MLOAD PUSH32 0x8C379A000000000000000000000000000000000000000000000000000000000 DUP2 MSTORE PUSH1 0x4 ADD PUSH2 0x22B5 SWAP1 PUSH2 0x5510 JUMP JUMPDEST PUSH1 0x40 MLOAD DUP1 SWAP2 SUB SWAP1 REVERT JUMPDEST DUP2 PUSH2 0x22C8 ADDRESS PUSH2 0x1D4C JUMP JUMPDEST LT ISZERO PUSH2 0x2309 JUMPI PUSH1 0x40 MLOAD PUSH32 0x8C379A000000000000000000000000000000000000000000000000000000000 DUP2 MSTORE PUSH1 0x4 ADD PUSH2 0x2300 SWAP1 PUSH2 0x5578 JUMP JUMPDEST PUSH1 0x40 MLOAD DUP1 SWAP2 SUB SWAP1 REVERT JUMPDEST DUP1 SELFBALANCE LT ISZERO PUSH2 0x234C JUMPI PUSH1 0x40 MLOAD PUSH32 0x8C379A000000000000000000000000000000000000000000000000000000000 DUP2 MSTORE PUSH1 0x4 ADD PUSH2 0x2343 SWAP1 PUSH2 0x4A6F JUMP JUMPDEST PUSH1 0x40 MLOAD DUP1 SWAP2 SUB SWAP1 REVERT JUMPDEST PUSH0 PUSH1 0xB PUSH0 SWAP1 SLOAD SWAP1 PUSH2 0x100 EXP SWAP1 DIV PUSH20 0xFFFFFFFFFFFFFFFFFFFFFFFFFFFFFFFFFFFFFFFF AND PUSH20 0xFFFFFFFFFFFFFFFFFFFFFFFFFFFFFFFFFFFFFFFF AND EXTCODESIZE GT PUSH2 0x23C6 JUMPI PUSH1 0x40 MLOAD PUSH32 0x8C379A000000000000000000000000000000000000000000000000000000000 DUP2 MSTORE PUSH1 0x4 ADD PUSH2 0x23BD SWAP1 PUSH2 0x50C0 JUMP JUMPDEST PUSH1 0x40 MLOAD DUP1 SWAP2 SUB SWAP1 REVERT JUMPDEST PUSH2 0x23F2 ADDRESS PUSH1 0xB PUSH0 SWAP1 SLOAD SWAP1 PUSH2 0x100 EXP SWAP1 DIV PUSH20 0xFFFFFFFFFFFFFFFFFFFFFFFFFFFFFFFFFFFFFFFF AND DUP5 PUSH2 0x2D1C JUMP JUMPDEST PUSH0 PUSH1 0xB PUSH0 SWAP1 SLOAD SWAP1 PUSH2 0x100 EXP SWAP1 DIV PUSH20 0xFFFFFFFFFFFFFFFFFFFFFFFFFFFFFFFFFFFFFFFF AND PUSH20 0xFFFFFFFFFFFFFFFFFFFFFFFFFFFFFFFFFFFFFFFF AND PUSH4 0xF305D719 DUP4 ADDRESS DUP7 PUSH0 DUP1 PUSH2 0x243D PUSH2 0x2194 JUMP JUMPDEST TIMESTAMP PUSH1 0x40 MLOAD DUP9 PUSH4 0xFFFFFFFF AND PUSH1 0xE0 SHL DUP2 MSTORE PUSH1 0x4 ADD PUSH2 0x245F SWAP7 SWAP6 SWAP5 SWAP4 SWAP3 SWAP2 SWAP1 PUSH2 0x55D8 JUMP JUMPDEST PUSH1 0x60 PUSH1 0x40 MLOAD DUP1 DUP4 SUB DUP2 DUP6 DUP9 GAS CALL ISZERO DUP1 ISZERO PUSH2 0x247B JUMPI RETURNDATASIZE PUSH0 DUP1 RETURNDATACOPY RETURNDATASIZE PUSH0 REVERT JUMPDEST POP POP POP POP POP PUSH1 0x40 MLOAD RETURNDATASIZE PUSH1 0x1F NOT PUSH1 0x1F DUP3 ADD AND DUP3 ADD DUP1 PUSH1 0x40 MSTORE POP DUP2 ADD SWAP1 PUSH2 0x24A0 SWAP2 SWAP1 PUSH2 0x564B JUMP JUMPDEST SWAP3 POP POP POP PUSH0 DUP2 GT PUSH2 0x24E6 JUMPI PUSH1 0x40 MLOAD PUSH32 0x8C379A000000000000000000000000000000000000000000000000000000000 DUP2 MSTORE PUSH1 0x4 ADD PUSH2 0x24DD SWAP1 PUSH2 0x570B JUMP JUMPDEST PUSH1 0x40 MLOAD DUP1 SWAP2 SUB SWAP1 REVERT JUMPDEST PUSH1 0xB PUSH0 SWAP1 SLOAD SWAP1 PUSH2 0x100 EXP SWAP1 DIV PUSH20 0xFFFFFFFFFFFFFFFFFFFFFFFFFFFFFFFFFFFFFFFF AND PUSH20 0xFFFFFFFFFFFFFFFFFFFFFFFFFFFFFFFFFFFFFFFF AND PUSH32 0x351F600EF1E31E5E13B4DC27BFF4CBDE3E9269F0FFC666629AE6CAC573EB220 DUP5 DUP5 PUSH1 0x40 MLOAD PUSH2 0x254F SWAP3 SWAP2 SWAP1 PUSH2 0x5729 JUMP JUMPDEST PUSH1 0x40 MLOAD DUP1 SWAP2 SUB SWAP1 LOG2 POP PUSH2 0x2560 PUSH2 0x2F87 JUMP JUMPDEST POP POP JUMP JUMPDEST PUSH1 0x11 SLOAD DUP2 JUMP JUMPDEST PUSH0 PUSH1 0x9 PUSH0 SWAP1 SLOAD SWAP1 PUSH2 0x100 EXP SWAP1 DIV PUSH1 0xFF AND ISZERO PUSH2 0x25BA JUMPI PUSH1 0x40 MLOAD PUSH32 0x8C379A000000000000000000000000000000000000000000000000000000000 DUP2 MSTORE PUSH1 0x4 ADD PUSH2 0x25B1 SWAP1 PUSH2 0x44F6 JUMP JUMPDEST PUSH1 0x40 MLOAD DUP1 SWAP2 SUB SWAP1 REVERT JUMPDEST PUSH2 0x25C2 PUSH2 0x2F38 JUMP JUMPDEST PUSH0 PUSH20 0xFFFFFFFFFFFFFFFFFFFFFFFFFFFFFFFFFFFFFFFF AND DUP4 PUSH20 0xFFFFFFFFFFFFFFFFFFFFFFFFFFFFFFFFFFFFFFFF AND SUB PUSH2 0x2630 JUMPI PUSH1 0x40 MLOAD PUSH32 0x8C379A000000000000000000000000000000000000000000000000000000000 DUP2 MSTORE PUSH1 0x4 ADD PUSH2 0x2627 SWAP1 PUSH2 0x481C JUMP JUMPDEST PUSH1 0x40 MLOAD DUP1 SWAP2 SUB SWAP1 REVERT JUMPDEST PUSH0 DUP3 GT PUSH2 0x2672 JUMPI PUSH1 0x40 MLOAD PUSH32 0x8C379A000000000000000000000000000000000000000000000000000000000 DUP2 MSTORE PUSH1 0x4 ADD PUSH2 0x2669 SWAP1 PUSH2 0x4BA6 JUMP JUMPDEST PUSH1 0x40 MLOAD DUP1 SWAP2 SUB SWAP1 REVERT JUMPDEST DUP2 PUSH2 0x267C CALLER PUSH2 0x1D4C JUMP JUMPDEST LT ISZERO PUSH2 0x26BD JUMPI PUSH1 0x40 MLOAD PUSH32 0x8C379A000000000000000000000000000000000000000000000000000000000 DUP2 MSTORE PUSH1 0x4 ADD PUSH2 0x26B4 SWAP1 PUSH2 0x4D04 JUMP JUMPDEST PUSH1 0x40 MLOAD DUP1 SWAP2 SUB SWAP1 REVERT JUMPDEST PUSH2 0x26C8 CALLER DUP5 DUP5 PUSH2 0x2E48 JUMP JUMPDEST PUSH1 0x1 SWAP1 POP PUSH2 0x26D4 PUSH2 0x2F87 JUMP JUMPDEST SWAP3 SWAP2 POP POP JUMP JUMPDEST PUSH0 PUSH1 0x12 SLOAD SWAP1 POP SWAP1 JUMP JUMPDEST PUSH1 0xC SLOAD DUP2 JUMP JUMPDEST PUSH12 0x33B2E3C9FD0803CE8000000 DUP2 JUMP JUMPDEST PUSH1 0x12 SLOAD DUP2 JUMP JUMPDEST PUSH2 0x2707 PUSH2 0x2D2E JUMP JUMPDEST PUSH1 0x9 PUSH0 SWAP1 SLOAD SWAP1 PUSH2 0x100 EXP SWAP1 DIV PUSH1 0xFF AND ISZERO PUSH2 0x2756 JUMPI PUSH1 0x40 MLOAD PUSH32 0x8C379A000000000000000000000000000000000000000000000000000000000 DUP2 MSTORE PUSH1 0x4 ADD PUSH2 0x274D SWAP1 PUSH2 0x44F6 JUMP JUMPDEST PUSH1 0x40 MLOAD DUP1 SWAP2 SUB SWAP1 REVERT JUMPDEST PUSH2 0x275E PUSH2 0x2F38 JUMP JUMPDEST PUSH0 DUP2 GT PUSH2 0x27A0 JUMPI PUSH1 0x40 MLOAD PUSH32 0x8C379A000000000000000000000000000000000000000000000000000000000 DUP2 MSTORE PUSH1 0x4 ADD PUSH2 0x2797 SWAP1 PUSH2 0x4BA6 JUMP JUMPDEST PUSH1 0x40 MLOAD DUP1 SWAP2 SUB SWAP1 REVERT JUMPDEST PUSH2 0x27AB CALLER ADDRESS DUP4 PUSH2 0x2E48 JUMP JUMPDEST CALLER PUSH20 0xFFFFFFFFFFFFFFFFFFFFFFFFFFFFFFFFFFFFFFFF AND PUSH32 0x59062170A285EB80E8C6B8CED60428442A51910635005233FC4CE084A475845E DUP3 PUSH1 0x40 MLOAD PUSH2 0x27F1 SWAP2 SWAP1 PUSH2 0x3CE6 JUMP JUMPDEST PUSH1 0x40 MLOAD DUP1 SWAP2 SUB SWAP1 LOG2 PUSH2 0x2801 PUSH2 0x2F87 JUMP JUMPDEST POP JUMP JUMPDEST PUSH0 PUSH1 0x1 PUSH0 DUP5 PUSH20 0xFFFFFFFFFFFFFFFFFFFFFFFFFFFFFFFFFFFFFFFF AND PUSH20 0xFFFFFFFFFFFFFFFFFFFFFFFFFFFFFFFFFFFFFFFF AND DUP2 MSTORE PUSH1 0x20 ADD SWAP1 DUP2 MSTORE PUSH1 0x20 ADD PUSH0 KECCAK256 PUSH0 DUP4 PUSH20 0xFFFFFFFFFFFFFFFFFFFFFFFFFFFFFFFFFFFFFFFF AND PUSH20 0xFFFFFFFFFFFFFFFFFFFFFFFFFFFFFFFFFFFFFFFF AND DUP2 MSTORE PUSH1 0x20 ADD SWAP1 DUP2 MSTORE PUSH1 0x20 ADD PUSH0 KECCAK256 SLOAD SWAP1 POP SWAP3 SWAP2 POP POP JUMP JUMPDEST PUSH2 0x288E PUSH2 0x2F38 JUMP JUMPDEST PUSH1 0x9 PUSH1 0x1 SWAP1 SLOAD SWAP1 PUSH2 0x100 EXP SWAP1 DIV PUSH20 0xFFFFFFFFFFFFFFFFFFFFFFFFFFFFFFFFFFFFFFFF AND PUSH20 0xFFFFFFFFFFFFFFFFFFFFFFFFFFFFFFFFFFFFFFFF AND CALLER PUSH20 0xFFFFFFFFFFFFFFFFFFFFFFFFFFFFFFFFFFFFFFFF AND EQ PUSH2 0x291E JUMPI PUSH1 0x40 MLOAD PUSH32 0x8C379A000000000000000000000000000000000000000000000000000000000 DUP2 MSTORE PUSH1 0x4 ADD PUSH2 0x2915 SWAP1 PUSH2 0x57C0 JUMP JUMPDEST PUSH1 0x40 MLOAD DUP1 SWAP2 SUB SWAP1 REVERT JUMPDEST PUSH0 PUSH20 0xFFFFFFFFFFFFFFFFFFFFFFFFFFFFFFFFFFFFFFFF AND PUSH1 0x9 PUSH1 0x1 SWAP1 SLOAD SWAP1 PUSH2 0x100 EXP SWAP1 DIV PUSH20 0xFFFFFFFFFFFFFFFFFFFFFFFFFFFFFFFFFFFFFFFF AND PUSH20 0xFFFFFFFFFFFFFFFFFFFFFFFFFFFFFFFFFFFFFFFF AND SUB PUSH2 0x29AE JUMPI PUSH1 0x40 MLOAD PUSH32 0x8C379A000000000000000000000000000000000000000000000000000000000 DUP2 MSTORE PUSH1 0x4 ADD PUSH2 0x29A5 SWAP1 PUSH2 0x584E JUMP JUMPDEST PUSH1 0x40 MLOAD DUP1 SWAP2 SUB SWAP1 REVERT JUMPDEST PUSH0 PUSH2 0x29B7 PUSH2 0x2194 JUMP JUMPDEST SWAP1 POP PUSH2 0x29E4 PUSH1 0x9 PUSH1 0x1 SWAP1 SLOAD SWAP1 PUSH2 0x100 EXP SWAP1 DIV PUSH20 0xFFFFFFFFFFFFFFFFFFFFFFFFFFFFFFFFFFFFFFFF AND PUSH2 0x2BC6 JUMP JUMPDEST PUSH1 0x9 PUSH1 0x1 SWAP1 SLOAD SWAP1 PUSH2 0x100 EXP SWAP1 DIV PUSH20 0xFFFFFFFFFFFFFFFFFFFFFFFFFFFFFFFFFFFFFFFF AND PUSH20 0xFFFFFFFFFFFFFFFFFFFFFFFFFFFFFFFFFFFFFFFF AND DUP2 PUSH20 0xFFFFFFFFFFFFFFFFFFFFFFFFFFFFFFFFFFFFFFFF AND PUSH32 0xCC386E9F3A11ADE96A1EC3BBC09AA98992D655F545FEAA1F9B1D5F0E5649B85B PUSH1 0x40 MLOAD PUSH1 0x40 MLOAD DUP1 SWAP2 SUB SWAP1 LOG3 POP PUSH2 0x2A69 PUSH2 0x2F87 JUMP JUMPDEST JUMP JUMPDEST PUSH2 0x2A73 PUSH2 0x2D2E JUMP JUMPDEST PUSH0 PUSH20 0xFFFFFFFFFFFFFFFFFFFFFFFFFFFFFFFFFFFFFFFF AND DUP2 PUSH20 0xFFFFFFFFFFFFFFFFFFFFFFFFFFFFFFFFFFFFFFFF AND SUB PUSH2 0x2AE1 JUMPI PUSH1 0x40 MLOAD PUSH32 0x8C379A000000000000000000000000000000000000000000000000000000000 DUP2 MSTORE PUSH1 0x4 ADD PUSH2 0x2AD8 SWAP1 PUSH2 0x58DC JUMP JUMPDEST PUSH1 0x40 MLOAD DUP1 SWAP2 SUB SWAP1 REVERT JUMPDEST PUSH0 DUP2 PUSH20 0xFFFFFFFFFFFFFFFFFFFFFFFFFFFFFFFFFFFFFFFF AND EXTCODESIZE GT PUSH2 0x2B3A JUMPI PUSH1 0x40 MLOAD PUSH32 0x8C379A000000000000000000000000000000000000000000000000000000000 DUP2 MSTORE PUSH1 0x4 ADD PUSH2 0x2B31 SWAP1 PUSH2 0x50C0 JUMP JUMPDEST PUSH1 0x40 MLOAD DUP1 SWAP2 SUB SWAP1 REVERT JUMPDEST DUP1 PUSH1 0xB PUSH0 PUSH2 0x100 EXP DUP2 SLOAD DUP2 PUSH20 0xFFFFFFFFFFFFFFFFFFFFFFFFFFFFFFFFFFFFFFFF MUL NOT AND SWAP1 DUP4 PUSH20 0xFFFFFFFFFFFFFFFFFFFFFFFFFFFFFFFFFFFFFFFF AND MUL OR SWAP1 SSTORE POP DUP1 PUSH20 0xFFFFFFFFFFFFFFFFFFFFFFFFFFFFFFFFFFFFFFFF AND PUSH32 0x7AED1D3E8155A07CCF395E44EA3109A0E2D6C9B29BBBE9F142D9790596F4DC80 PUSH1 0x40 MLOAD PUSH1 0x40 MLOAD DUP1 SWAP2 SUB SWAP1 LOG2 POP JUMP JUMPDEST PUSH1 0xE SLOAD DUP2 JUMP JUMPDEST PUSH2 0x2BCE PUSH2 0x2D2E JUMP JUMPDEST PUSH0 PUSH20 0xFFFFFFFFFFFFFFFFFFFFFFFFFFFFFFFFFFFFFFFF AND DUP2 PUSH20 0xFFFFFFFFFFFFFFFFFFFFFFFFFFFFFFFFFFFFFFFF AND SUB PUSH2 0x2C3E JUMPI PUSH0 PUSH1 0x40 MLOAD PUSH32 0x1E4FBDF700000000000000000000000000000000000000000000000000000000 DUP2 MSTORE PUSH1 0x4 ADD PUSH2 0x2C35 SWAP2 SWAP1 PUSH2 0x3D0E JUMP JUMPDEST PUSH1 0x40 MLOAD DUP1 SWAP2 SUB SWAP1 REVERT JUMPDEST PUSH2 0x2C47 DUP2 PUSH2 0x30D6 JUMP JUMPDEST POP JUMP JUMPDEST PUSH0 PUSH1 0xB PUSH0 SWAP1 SLOAD SWAP1 PUSH2 0x100 EXP SWAP1 DIV PUSH20 0xFFFFFFFFFFFFFFFFFFFFFFFFFFFFFFFFFFFFFFFF AND SWAP1 POP SWAP1 JUMP JUMPDEST PUSH1 0xA DUP1 SLOAD PUSH2 0x2C7F SWAP1 PUSH2 0x447C JUMP JUMPDEST DUP1 PUSH1 0x1F ADD PUSH1 0x20 DUP1 SWAP2 DIV MUL PUSH1 0x20 ADD PUSH1 0x40 MLOAD SWAP1 DUP2 ADD PUSH1 0x40 MSTORE DUP1 SWAP3 SWAP2 SWAP1 DUP2 DUP2 MSTORE PUSH1 0x20 ADD DUP3 DUP1 SLOAD PUSH2 0x2CAB SWAP1 PUSH2 0x447C JUMP JUMPDEST DUP1 ISZERO PUSH2 0x2CF6 JUMPI DUP1 PUSH1 0x1F LT PUSH2 0x2CCD JUMPI PUSH2 0x100 DUP1 DUP4 SLOAD DIV MUL DUP4 MSTORE SWAP2 PUSH1 0x20 ADD SWAP2 PUSH2 0x2CF6 JUMP JUMPDEST DUP3 ADD SWAP2 SWAP1 PUSH0 MSTORE PUSH1 0x20 PUSH0 KECCAK256 SWAP1 JUMPDEST DUP2 SLOAD DUP2 MSTORE SWAP1 PUSH1 0x1 ADD SWAP1 PUSH1 0x20 ADD DUP1 DUP4 GT PUSH2 0x2CD9 JUMPI DUP3 SWAP1 SUB PUSH1 0x1F AND DUP3 ADD SWAP2 JUMPDEST POP POP POP POP POP DUP2 JUMP JUMPDEST PUSH3 0x15180 DUP2 JUMP JUMPDEST PUSH12 0x33B2E3C9FD0803CE8000000 DUP2 JUMP JUMPDEST PUSH0 CALLER SWAP1 POP SWAP1 JUMP JUMPDEST PUSH2 0x2D29 DUP4 DUP4 DUP4 PUSH1 0x1 PUSH2 0x320F JUMP JUMPDEST POP POP POP JUMP JUMPDEST PUSH2 0x2D36 PUSH2 0x2D15 JUMP JUMPDEST PUSH20 0xFFFFFFFFFFFFFFFFFFFFFFFFFFFFFFFFFFFFFFFF AND PUSH2 0x2D54 PUSH2 0x2194 JUMP JUMPDEST PUSH20 0xFFFFFFFFFFFFFFFFFFFFFFFFFFFFFFFFFFFFFFFF AND EQ PUSH2 0x2DB3 JUMPI PUSH2 0x2D77 PUSH2 0x2D15 JUMP JUMPDEST PUSH1 0x40 MLOAD PUSH32 0x118CDAA700000000000000000000000000000000000000000000000000000000 DUP2 MSTORE PUSH1 0x4 ADD PUSH2 0x2DAA SWAP2 SWAP1 PUSH2 0x3D0E JUMP JUMPDEST PUSH1 0x40 MLOAD DUP1 SWAP2 SUB SWAP1 REVERT JUMPDEST JUMP JUMPDEST PUSH0 PUSH2 0x2DC0 DUP5 DUP5 PUSH2 0x2804 JUMP JUMPDEST SWAP1 POP PUSH32 0xFFFFFFFFFFFFFFFFFFFFFFFFFFFFFFFFFFFFFFFFFFFFFFFFFFFFFFFFFFFFFFFF DUP2 LT ISZERO PUSH2 0x2E42 JUMPI DUP2 DUP2 LT ISZERO PUSH2 0x2E33 JUMPI DUP3 DUP2 DUP4 PUSH1 0x40 MLOAD PUSH32 0xFB8F41B200000000000000000000000000000000000000000000000000000000 DUP2 MSTORE PUSH1 0x4 ADD PUSH2 0x2E2A SWAP4 SWAP3 SWAP2 SWAP1 PUSH2 0x58FA JUMP JUMPDEST PUSH1 0x40 MLOAD DUP1 SWAP2 SUB SWAP1 REVERT JUMPDEST PUSH2 0x2E41 DUP5 DUP5 DUP5 DUP5 SUB PUSH0 PUSH2 0x320F JUMP JUMPDEST JUMPDEST POP POP POP POP JUMP JUMPDEST PUSH0 PUSH20 0xFFFFFFFFFFFFFFFFFFFFFFFFFFFFFFFFFFFFFFFF AND DUP4 PUSH20 0xFFFFFFFFFFFFFFFFFFFFFFFFFFFFFFFFFFFFFFFF AND SUB PUSH2 0x2EB8 JUMPI PUSH0 PUSH1 0x40 MLOAD PUSH32 0x96C6FD1E00000000000000000000000000000000000000000000000000000000 DUP2 MSTORE PUSH1 0x4 ADD PUSH2 0x2EAF SWAP2 SWAP1 PUSH2 0x3D0E JUMP JUMPDEST PUSH1 0x40 MLOAD DUP1 SWAP2 SUB SWAP1 REVERT JUMPDEST PUSH0 PUSH20 0xFFFFFFFFFFFFFFFFFFFFFFFFFFFFFFFFFFFFFFFF AND DUP3 PUSH20 0xFFFFFFFFFFFFFFFFFFFFFFFFFFFFFFFFFFFFFFFF AND SUB PUSH2 0x2F28 JUMPI PUSH0 PUSH1 0x40 MLOAD PUSH32 0xEC442F0500000000000000000000000000000000000000000000000000000000 DUP2 MSTORE PUSH1 0x4 ADD PUSH2 0x2F1F SWAP2 SWAP1 PUSH2 0x3D0E JUMP JUMPDEST PUSH1 0x40 MLOAD DUP1 SWAP2 SUB SWAP1 REVERT JUMPDEST PUSH2 0x2F33 DUP4 DUP4 DUP4 PUSH2 0x33DE JUMP JUMPDEST POP POP POP JUMP JUMPDEST PUSH1 0x2 PUSH1 0x6 SLOAD SUB PUSH2 0x2F7D JUMPI PUSH1 0x40 MLOAD PUSH32 0x8C379A000000000000000000000000000000000000000000000000000000000 DUP2 MSTORE PUSH1 0x4 ADD PUSH2 0x2F74 SWAP1 PUSH2 0x5979 JUMP JUMPDEST PUSH1 0x40 MLOAD DUP1 SWAP2 SUB SWAP1 REVERT JUMPDEST PUSH1 0x2 PUSH1 0x6 DUP2 SWAP1 SSTORE POP JUMP JUMPDEST PUSH1 0x1 PUSH1 0x6 DUP2 SWAP1 SSTORE POP JUMP JUMPDEST PUSH0 PUSH20 0xFFFFFFFFFFFFFFFFFFFFFFFFFFFFFFFFFFFFFFFF AND DUP3 PUSH20 0xFFFFFFFFFFFFFFFFFFFFFFFFFFFFFFFFFFFFFFFF AND SUB PUSH2 0x3001 JUMPI PUSH0 PUSH1 0x40 MLOAD PUSH32 0xEC442F0500000000000000000000000000000000000000000000000000000000 DUP2 MSTORE PUSH1 0x4 ADD PUSH2 0x2FF8 SWAP2 SWAP1 PUSH2 0x3D0E JUMP JUMPDEST PUSH1 0x40 MLOAD DUP1 SWAP2 SUB SWAP1 REVERT JUMPDEST PUSH2 0x300C PUSH0 DUP4 DUP4 PUSH2 0x33DE JUMP JUMPDEST POP POP JUMP JUMPDEST PUSH0 PUSH20 0xFFFFFFFFFFFFFFFFFFFFFFFFFFFFFFFFFFFFFFFF AND DUP3 PUSH20 0xFFFFFFFFFFFFFFFFFFFFFFFFFFFFFFFFFFFFFFFF AND SUB PUSH2 0x3080 JUMPI PUSH0 PUSH1 0x40 MLOAD PUSH32 0x96C6FD1E00000000000000000000000000000000000000000000000000000000 DUP2 MSTORE PUSH1 0x4 ADD PUSH2 0x3077 SWAP2 SWAP1 PUSH2 0x3D0E JUMP JUMPDEST PUSH1 0x40 MLOAD DUP1 SWAP2 SUB SWAP1 REVERT JUMPDEST PUSH2 0x308B DUP3 PUSH0 DUP4 PUSH2 0x33DE JUMP JUMPDEST POP POP JUMP JUMPDEST PUSH0 PUSH2 0x30A1 PUSH2 0x309B PUSH2 0x35F7 JUMP JUMPDEST DUP4 PUSH2 0x36AD JUMP JUMPDEST SWAP1 POP SWAP2 SWAP1 POP JUMP JUMPDEST PUSH0 DUP1 PUSH0 DUP1 PUSH2 0x30B8 DUP9 DUP9 DUP9 DUP9 PUSH2 0x36ED JUMP JUMPDEST SWAP3 POP SWAP3 POP SWAP3 POP PUSH2 0x30C8 DUP3 DUP3 PUSH2 0x37D4 JUMP JUMPDEST DUP3 SWAP4 POP POP POP POP SWAP5 SWAP4 POP POP POP POP JUMP JUMPDEST PUSH0 PUSH1 0x5 PUSH0 SWAP1 SLOAD SWAP1 PUSH2 0x100 EXP SWAP1 DIV PUSH20 0xFFFFFFFFFFFFFFFFFFFFFFFFFFFFFFFFFFFFFFFF AND SWAP1 POP DUP2 PUSH1 0x5 PUSH0 PUSH2 0x100 EXP DUP2 SLOAD DUP2 PUSH20 0xFFFFFFFFFFFFFFFFFFFFFFFFFFFFFFFFFFFFFFFF MUL NOT AND SWAP1 DUP4 PUSH20 0xFFFFFFFFFFFFFFFFFFFFFFFFFFFFFFFFFFFFFFFF AND MUL OR SWAP1 SSTORE POP DUP2 PUSH20 0xFFFFFFFFFFFFFFFFFFFFFFFFFFFFFFFFFFFFFFFF AND DUP2 PUSH20 0xFFFFFFFFFFFFFFFFFFFFFFFFFFFFFFFFFFFFFFFF AND PUSH32 0x8BE0079C531659141344CD1FD0A4F28419497F9722A3DAAFE3B4186F6B6457E0 PUSH1 0x40 MLOAD PUSH1 0x40 MLOAD DUP1 SWAP2 SUB SWAP1 LOG3 POP POP JUMP JUMPDEST PUSH1 0x60 PUSH2 0x31CF PUSH1 0x7 PUSH32 0x0 PUSH2 0x3936 SWAP1 SWAP2 SWAP1 PUSH4 0xFFFFFFFF AND JUMP JUMPDEST SWAP1 POP SWAP1 JUMP JUMPDEST PUSH1 0x60 PUSH2 0x320A PUSH1 0x8 PUSH32 0x0 PUSH2 0x3936 SWAP1 SWAP2 SWAP1 PUSH4 0xFFFFFFFF AND JUMP JUMPDEST SWAP1 POP SWAP1 JUMP JUMPDEST PUSH0 PUSH20 0xFFFFFFFFFFFFFFFFFFFFFFFFFFFFFFFFFFFFFFFF AND DUP5 PUSH20 0xFFFFFFFFFFFFFFFFFFFFFFFFFFFFFFFFFFFFFFFF AND SUB PUSH2 0x327F JUMPI PUSH0 PUSH1 0x40 MLOAD PUSH32 0xE602DF0500000000000000000000000000000000000000000000000000000000 DUP2 MSTORE PUSH1 0x4 ADD PUSH2 0x3276 SWAP2 SWAP1 PUSH2 0x3D0E JUMP JUMPDEST PUSH1 0x40 MLOAD DUP1 SWAP2 SUB SWAP1 REVERT JUMPDEST PUSH0 PUSH20 0xFFFFFFFFFFFFFFFFFFFFFFFFFFFFFFFFFFFFFFFF AND DUP4 PUSH20 0xFFFFFFFFFFFFFFFFFFFFFFFFFFFFFFFFFFFFFFFF AND SUB PUSH2 0x32EF JUMPI PUSH0 PUSH1 0x40 MLOAD PUSH32 0x94280D6200000000000000000000000000000000000000000000000000000000 DUP2 MSTORE PUSH1 0x4 ADD PUSH2 0x32E6 SWAP2 SWAP1 PUSH2 0x3D0E JUMP JUMPDEST PUSH1 0x40 MLOAD DUP1 SWAP2 SUB SWAP1 REVERT JUMPDEST DUP2 PUSH1 0x1 PUSH0 DUP7 PUSH20 0xFFFFFFFFFFFFFFFFFFFFFFFFFFFFFFFFFFFFFFFF AND PUSH20 0xFFFFFFFFFFFFFFFFFFFFFFFFFFFFFFFFFFFFFFFF AND DUP2 MSTORE PUSH1 0x20 ADD SWAP1 DUP2 MSTORE PUSH1 0x20 ADD PUSH0 KECCAK256 PUSH0 DUP6 PUSH20 0xFFFFFFFFFFFFFFFFFFFFFFFFFFFFFFFFFFFFFFFF AND PUSH20 0xFFFFFFFFFFFFFFFFFFFFFFFFFFFFFFFFFFFFFFFF AND DUP2 MSTORE PUSH1 0x20 ADD SWAP1 DUP2 MSTORE PUSH1 0x20 ADD PUSH0 KECCAK256 DUP2 SWAP1 SSTORE POP DUP1 ISZERO PUSH2 0x33D8 JUMPI DUP3 PUSH20 0xFFFFFFFFFFFFFFFFFFFFFFFFFFFFFFFFFFFFFFFF AND DUP5 PUSH20 0xFFFFFFFFFFFFFFFFFFFFFFFFFFFFFFFFFFFFFFFF AND PUSH32 0x8C5BE1E5EBEC7D5BD14F71427D1E84F3DD0314C0F7B2291E5B200AC8C7C3B925 DUP5 PUSH1 0x40 MLOAD PUSH2 0x33CF SWAP2 SWAP1 PUSH2 0x3CE6 JUMP JUMPDEST PUSH1 0x40 MLOAD DUP1 SWAP2 SUB SWAP1 LOG3 JUMPDEST POP POP POP POP JUMP JUMPDEST PUSH0 PUSH20 0xFFFFFFFFFFFFFFFFFFFFFFFFFFFFFFFFFFFFFFFF AND DUP4 PUSH20 0xFFFFFFFFFFFFFFFFFFFFFFFFFFFFFFFFFFFFFFFF AND SUB PUSH2 0x342E JUMPI DUP1 PUSH1 0x2 PUSH0 DUP3 DUP3 SLOAD PUSH2 0x3422 SWAP2 SWAP1 PUSH2 0x46EB JUMP JUMPDEST SWAP3 POP POP DUP2 SWAP1 SSTORE POP PUSH2 0x34FC JUMP JUMPDEST PUSH0 DUP1 PUSH0 DUP6 PUSH20 0xFFFFFFFFFFFFFFFFFFFFFFFFFFFFFFFFFFFFFFFF AND PUSH20 0xFFFFFFFFFFFFFFFFFFFFFFFFFFFFFFFFFFFFFFFF AND DUP2 MSTORE PUSH1 0x20 ADD SWAP1 DUP2 MSTORE PUSH1 0x20 ADD PUSH0 KECCAK256 SLOAD SWAP1 POP DUP2 DUP2 LT ISZERO PUSH2 0x34B7 JUMPI DUP4 DUP2 DUP4 PUSH1 0x40 MLOAD PUSH32 0xE450D38C00000000000000000000000000000000000000000000000000000000 DUP2 MSTORE PUSH1 0x4 ADD PUSH2 0x34AE SWAP4 SWAP3 SWAP2 SWAP1 PUSH2 0x58FA JUMP JUMPDEST PUSH1 0x40 MLOAD DUP1 SWAP2 SUB SWAP1 REVERT JUMPDEST DUP2 DUP2 SUB PUSH0 DUP1 DUP7 PUSH20 0xFFFFFFFFFFFFFFFFFFFFFFFFFFFFFFFFFFFFFFFF AND PUSH20 0xFFFFFFFFFFFFFFFFFFFFFFFFFFFFFFFFFFFFFFFF AND DUP2 MSTORE PUSH1 0x20 ADD SWAP1 DUP2 MSTORE PUSH1 0x20 ADD PUSH0 KECCAK256 DUP2 SWAP1 SSTORE POP POP JUMPDEST PUSH0 PUSH20 0xFFFFFFFFFFFFFFFFFFFFFFFFFFFFFFFFFFFFFFFF AND DUP3 PUSH20 0xFFFFFFFFFFFFFFFFFFFFFFFFFFFFFFFFFFFFFFFF AND SUB PUSH2 0x3543 JUMPI DUP1 PUSH1 0x2 PUSH0 DUP3 DUP3 SLOAD SUB SWAP3 POP POP DUP2 SWAP1 SSTORE POP PUSH2 0x358D JUMP JUMPDEST DUP1 PUSH0 DUP1 DUP5 PUSH20 0xFFFFFFFFFFFFFFFFFFFFFFFFFFFFFFFFFFFFFFFF AND PUSH20 0xFFFFFFFFFFFFFFFFFFFFFFFFFFFFFFFFFFFFFFFF AND DUP2 MSTORE PUSH1 0x20 ADD SWAP1 DUP2 MSTORE PUSH1 0x20 ADD PUSH0 KECCAK256 PUSH0 DUP3 DUP3 SLOAD ADD SWAP3 POP POP DUP2 SWAP1 SSTORE POP JUMPDEST DUP2 PUSH20 0xFFFFFFFFFFFFFFFFFFFFFFFFFFFFFFFFFFFFFFFF AND DUP4 PUSH20 0xFFFFFFFFFFFFFFFFFFFFFFFFFFFFFFFFFFFFFFFF AND PUSH32 0xDDF252AD1BE2C89B69C2B068FC378DAA952BA7F163C4A11628F55A4DF523B3EF DUP4 PUSH1 0x40 MLOAD PUSH2 0x35EA SWAP2 SWAP1 PUSH2 0x3CE6 JUMP JUMPDEST PUSH1 0x40 MLOAD DUP1 SWAP2 SUB SWAP1 LOG3 POP POP POP JUMP JUMPDEST PUSH0 PUSH32 0x0 PUSH20 0xFFFFFFFFFFFFFFFFFFFFFFFFFFFFFFFFFFFFFFFF AND ADDRESS PUSH20 0xFFFFFFFFFFFFFFFFFFFFFFFFFFFFFFFFFFFFFFFF AND EQ DUP1 ISZERO PUSH2 0x3672 JUMPI POP PUSH32 0x0 CHAINID EQ JUMPDEST ISZERO PUSH2 0x369F JUMPI PUSH32 0x0 SWAP1 POP PUSH2 0x36AA JUMP JUMPDEST PUSH2 0x36A7 PUSH2 0x39E3 JUMP JUMPDEST SWAP1 POP JUMPDEST SWAP1 JUMP JUMPDEST PUSH0 PUSH1 0x40 MLOAD PUSH32 0x1901000000000000000000000000000000000000000000000000000000000000 DUP2 MSTORE DUP4 PUSH1 0x2 DUP3 ADD MSTORE DUP3 PUSH1 0x22 DUP3 ADD MSTORE PUSH1 0x42 DUP2 KECCAK256 SWAP2 POP POP SWAP3 SWAP2 POP POP JUMP JUMPDEST PUSH0 DUP1 PUSH0 PUSH32 0x7FFFFFFFFFFFFFFFFFFFFFFFFFFFFFFF5D576E7357A4501DDFE92F46681B20A0 DUP5 PUSH0 SHR GT ISZERO PUSH2 0x3729 JUMPI PUSH0 PUSH1 0x3 DUP6 SWAP3 POP SWAP3 POP SWAP3 POP PUSH2 0x37CA JUMP JUMPDEST PUSH0 PUSH1 0x1 DUP9 DUP9 DUP9 DUP9 PUSH1 0x40 MLOAD PUSH0 DUP2 MSTORE PUSH1 0x20 ADD PUSH1 0x40 MSTORE PUSH1 0x40 MLOAD PUSH2 0x374C SWAP5 SWAP4 SWAP3 SWAP2 SWAP1 PUSH2 0x5997 JUMP JUMPDEST PUSH1 0x20 PUSH1 0x40 MLOAD PUSH1 0x20 DUP2 SUB SWAP1 DUP1 DUP5 SUB SWAP1 DUP6 GAS STATICCALL ISZERO DUP1 ISZERO PUSH2 0x376C JUMPI RETURNDATASIZE PUSH0 DUP1 RETURNDATACOPY RETURNDATASIZE PUSH0 REVERT JUMPDEST POP POP POP PUSH1 0x20 PUSH1 0x40 MLOAD SUB MLOAD SWAP1 POP PUSH0 PUSH20 0xFFFFFFFFFFFFFFFFFFFFFFFFFFFFFFFFFFFFFFFF AND DUP2 PUSH20 0xFFFFFFFFFFFFFFFFFFFFFFFFFFFFFFFFFFFFFFFF AND SUB PUSH2 0x37BD JUMPI PUSH0 PUSH1 0x1 PUSH0 DUP1 SHL SWAP4 POP SWAP4 POP SWAP4 POP POP PUSH2 0x37CA JUMP JUMPDEST DUP1 PUSH0 DUP1 PUSH0 SHL SWAP4 POP SWAP4 POP SWAP4 POP POP JUMPDEST SWAP5 POP SWAP5 POP SWAP5 SWAP2 POP POP JUMP JUMPDEST PUSH0 PUSH1 0x3 DUP2 GT ISZERO PUSH2 0x37E7 JUMPI PUSH2 0x37E6 PUSH2 0x59DA JUMP JUMPDEST JUMPDEST DUP3 PUSH1 0x3 DUP2 GT ISZERO PUSH2 0x37FA JUMPI PUSH2 0x37F9 PUSH2 0x59DA JUMP JUMPDEST JUMPDEST SUB ISZERO PUSH2 0x3932 JUMPI PUSH1 0x1 PUSH1 0x3 DUP2 GT ISZERO PUSH2 0x3814 JUMPI PUSH2 0x3813 PUSH2 0x59DA JUMP JUMPDEST JUMPDEST DUP3 PUSH1 0x3 DUP2 GT ISZERO PUSH2 0x3827 JUMPI PUSH2 0x3826 PUSH2 0x59DA JUMP JUMPDEST JUMPDEST SUB PUSH2 0x385E JUMPI PUSH1 0x40 MLOAD PUSH32 0xF645EEDF00000000000000000000000000000000000000000000000000000000 DUP2 MSTORE PUSH1 0x4 ADD PUSH1 0x40 MLOAD DUP1 SWAP2 SUB SWAP1 REVERT JUMPDEST PUSH1 0x2 PUSH1 0x3 DUP2 GT ISZERO PUSH2 0x3872 JUMPI PUSH2 0x3871 PUSH2 0x59DA JUMP JUMPDEST JUMPDEST DUP3 PUSH1 0x3 DUP2 GT ISZERO PUSH2 0x3885 JUMPI PUSH2 0x3884 PUSH2 0x59DA JUMP JUMPDEST JUMPDEST SUB PUSH2 0x38C9 JUMPI DUP1 PUSH0 SHR PUSH1 0x40 MLOAD PUSH32 0xFCE698F700000000000000000000000000000000000000000000000000000000 DUP2 MSTORE PUSH1 0x4 ADD PUSH2 0x38C0 SWAP2 SWAP1 PUSH2 0x3CE6 JUMP JUMPDEST PUSH1 0x40 MLOAD DUP1 SWAP2 SUB SWAP1 REVERT JUMPDEST PUSH1 0x3 DUP1 DUP2 GT ISZERO PUSH2 0x38DC JUMPI PUSH2 0x38DB PUSH2 0x59DA JUMP JUMPDEST JUMPDEST DUP3 PUSH1 0x3 DUP2 GT ISZERO PUSH2 0x38EF JUMPI PUSH2 0x38EE PUSH2 0x59DA JUMP JUMPDEST JUMPDEST SUB PUSH2 0x3931 JUMPI DUP1 PUSH1 0x40 MLOAD PUSH32 0xD78BCE0C00000000000000000000000000000000000000000000000000000000 DUP2 MSTORE PUSH1 0x4 ADD PUSH2 0x3928 SWAP2 SWAP1 PUSH2 0x5A07 JUMP JUMPDEST PUSH1 0x40 MLOAD DUP1 SWAP2 SUB SWAP1 REVERT JUMPDEST JUMPDEST POP POP JUMP JUMPDEST PUSH1 0x60 PUSH1 0xFF PUSH0 SHL DUP4 EQ PUSH2 0x3952 JUMPI PUSH2 0x394B DUP4 PUSH2 0x3A78 JUMP JUMPDEST SWAP1 POP PUSH2 0x39DD JUMP JUMPDEST DUP2 DUP1 SLOAD PUSH2 0x395E SWAP1 PUSH2 0x447C JUMP JUMPDEST DUP1 PUSH1 0x1F ADD PUSH1 0x20 DUP1 SWAP2 DIV MUL PUSH1 0x20 ADD PUSH1 0x40 MLOAD SWAP1 DUP2 ADD PUSH1 0x40 MSTORE DUP1 SWAP3 SWAP2 SWAP1 DUP2 DUP2 MSTORE PUSH1 0x20 ADD DUP3 DUP1 SLOAD PUSH2 0x398A SWAP1 PUSH2 0x447C JUMP JUMPDEST DUP1 ISZERO PUSH2 0x39D5 JUMPI DUP1 PUSH1 0x1F LT PUSH2 0x39AC JUMPI PUSH2 0x100 DUP1 DUP4 SLOAD DIV MUL DUP4 MSTORE SWAP2 PUSH1 0x20 ADD SWAP2 PUSH2 0x39D5 JUMP JUMPDEST DUP3 ADD SWAP2 SWAP1 PUSH0 MSTORE PUSH1 0x20 PUSH0 KECCAK256 SWAP1 JUMPDEST DUP2 SLOAD DUP2 MSTORE SWAP1 PUSH1 0x1 ADD SWAP1 PUSH1 0x20 ADD DUP1 DUP4 GT PUSH2 0x39B8 JUMPI DUP3 SWAP1 SUB PUSH1 0x1F AND DUP3 ADD SWAP2 JUMPDEST POP POP POP POP POP SWAP1 POP JUMPDEST SWAP3 SWAP2 POP POP JUMP JUMPDEST PUSH0 PUSH32 0x8B73C3C69BB8FE3D512ECC4CF759CC79239F7B179B0FFACAA9A75D522B39400F PUSH32 0x0 PUSH32 0x0 CHAINID ADDRESS PUSH1 0x40 MLOAD PUSH1 0x20 ADD PUSH2 0x3A5D SWAP6 SWAP5 SWAP4 SWAP3 SWAP2 SWAP1 PUSH2 0x5A20 JUMP JUMPDEST PUSH1 0x40 MLOAD PUSH1 0x20 DUP2 DUP4 SUB SUB DUP2 MSTORE SWAP1 PUSH1 0x40 MSTORE DUP1 MLOAD SWAP1 PUSH1 0x20 ADD KECCAK256 SWAP1 POP SWAP1 JUMP JUMPDEST PUSH1 0x60 PUSH0 PUSH2 0x3A84 DUP4 PUSH2 0x3AEA JUMP JUMPDEST SWAP1 POP PUSH0 PUSH1 0x20 PUSH8 0xFFFFFFFFFFFFFFFF DUP2 GT ISZERO PUSH2 0x3AA2 JUMPI PUSH2 0x3AA1 PUSH2 0x3FB6 JUMP JUMPDEST JUMPDEST PUSH1 0x40 MLOAD SWAP1 DUP1 DUP3 MSTORE DUP1 PUSH1 0x1F ADD PUSH1 0x1F NOT AND PUSH1 0x20 ADD DUP3 ADD PUSH1 0x40 MSTORE DUP1 ISZERO PUSH2 0x3AD4 JUMPI DUP2 PUSH1 0x20 ADD PUSH1 0x1 DUP3 MUL DUP1 CALLDATASIZE DUP4 CALLDATACOPY DUP1 DUP3 ADD SWAP2 POP POP SWAP1 POP JUMPDEST POP SWAP1 POP DUP2 DUP2 MSTORE DUP4 PUSH1 0x20 DUP3 ADD MSTORE DUP1 SWAP3 POP POP POP SWAP2 SWAP1 POP JUMP JUMPDEST PUSH0 DUP1 PUSH1 0xFF DUP4 PUSH0 SHR AND SWAP1 POP PUSH1 0x1F DUP2 GT ISZERO PUSH2 0x3B2F JUMPI PUSH1 0x40 MLOAD PUSH32 0xB3512B0C00000000000000000000000000000000000000000000000000000000 DUP2 MSTORE PUSH1 0x4 ADD PUSH1 0x40 MLOAD DUP1 SWAP2 SUB SWAP1 REVERT JUMPDEST DUP1 SWAP2 POP POP SWAP2 SWAP1 POP JUMP JUMPDEST PUSH0 DUP2 MLOAD SWAP1 POP SWAP2 SWAP1 POP JUMP JUMPDEST PUSH0 DUP3 DUP3 MSTORE PUSH1 0x20 DUP3 ADD SWAP1 POP SWAP3 SWAP2 POP POP JUMP JUMPDEST DUP3 DUP2 DUP4 MCOPY PUSH0 DUP4 DUP4 ADD MSTORE POP POP POP JUMP JUMPDEST PUSH0 PUSH1 0x1F NOT PUSH1 0x1F DUP4 ADD AND SWAP1 POP SWAP2 SWAP1 POP JUMP JUMPDEST PUSH0 PUSH2 0x3B7A DUP3 PUSH2 0x3B38 JUMP JUMPDEST PUSH2 0x3B84 DUP2 DUP6 PUSH2 0x3B42 JUMP JUMPDEST SWAP4 POP PUSH2 0x3B94 DUP2 DUP6 PUSH1 0x20 DUP7 ADD PUSH2 0x3B52 JUMP JUMPDEST PUSH2 0x3B9D DUP2 PUSH2 0x3B60 JUMP JUMPDEST DUP5 ADD SWAP2 POP POP SWAP3 SWAP2 POP POP JUMP JUMPDEST PUSH0 PUSH1 0x20 DUP3 ADD SWAP1 POP DUP2 DUP2 SUB PUSH0 DUP4 ADD MSTORE PUSH2 0x3BC0 DUP2 DUP5 PUSH2 0x3B70 JUMP JUMPDEST SWAP1 POP SWAP3 SWAP2 POP POP JUMP JUMPDEST PUSH0 PUSH1 0x40 MLOAD SWAP1 POP SWAP1 JUMP JUMPDEST PUSH0 DUP1 REVERT JUMPDEST PUSH0 DUP1 REVERT JUMPDEST PUSH0 PUSH20 0xFFFFFFFFFFFFFFFFFFFFFFFFFFFFFFFFFFFFFFFF DUP3 AND SWAP1 POP SWAP2 SWAP1 POP JUMP JUMPDEST PUSH0 PUSH2 0x3C02 DUP3 PUSH2 0x3BD9 JUMP JUMPDEST SWAP1 POP SWAP2 SWAP1 POP JUMP JUMPDEST PUSH2 0x3C12 DUP2 PUSH2 0x3BF8 JUMP JUMPDEST DUP2 EQ PUSH2 0x3C1C JUMPI PUSH0 DUP1 REVERT JUMPDEST POP JUMP JUMPDEST PUSH0 DUP2 CALLDATALOAD SWAP1 POP PUSH2 0x3C2D DUP2 PUSH2 0x3C09 JUMP JUMPDEST SWAP3 SWAP2 POP POP JUMP JUMPDEST PUSH0 DUP2 SWAP1 POP SWAP2 SWAP1 POP JUMP JUMPDEST PUSH2 0x3C45 DUP2 PUSH2 0x3C33 JUMP JUMPDEST DUP2 EQ PUSH2 0x3C4F JUMPI PUSH0 DUP1 REVERT JUMPDEST POP JUMP JUMPDEST PUSH0 DUP2 CALLDATALOAD SWAP1 POP PUSH2 0x3C60 DUP2 PUSH2 0x3C3C JUMP JUMPDEST SWAP3 SWAP2 POP POP JUMP JUMPDEST PUSH0 DUP1 PUSH1 0x40 DUP4 DUP6 SUB SLT ISZERO PUSH2 0x3C7C JUMPI PUSH2 0x3C7B PUSH2 0x3BD1 JUMP JUMPDEST JUMPDEST PUSH0 PUSH2 0x3C89 DUP6 DUP3 DUP7 ADD PUSH2 0x3C1F JUMP JUMPDEST SWAP3 POP POP PUSH1 0x20 PUSH2 0x3C9A DUP6 DUP3 DUP7 ADD PUSH2 0x3C52 JUMP JUMPDEST SWAP2 POP POP SWAP3 POP SWAP3 SWAP1 POP JUMP JUMPDEST PUSH0 DUP2 ISZERO ISZERO SWAP1 POP SWAP2 SWAP1 POP JUMP JUMPDEST PUSH2 0x3CB8 DUP2 PUSH2 0x3CA4 JUMP JUMPDEST DUP3 MSTORE POP POP JUMP JUMPDEST PUSH0 PUSH1 0x20 DUP3 ADD SWAP1 POP PUSH2 0x3CD1 PUSH0 DUP4 ADD DUP5 PUSH2 0x3CAF JUMP JUMPDEST SWAP3 SWAP2 POP POP JUMP JUMPDEST PUSH2 0x3CE0 DUP2 PUSH2 0x3C33 JUMP JUMPDEST DUP3 MSTORE POP POP JUMP JUMPDEST PUSH0 PUSH1 0x20 DUP3 ADD SWAP1 POP PUSH2 0x3CF9 PUSH0 DUP4 ADD DUP5 PUSH2 0x3CD7 JUMP JUMPDEST SWAP3 SWAP2 POP POP JUMP JUMPDEST PUSH2 0x3D08 DUP2 PUSH2 0x3BF8 JUMP JUMPDEST DUP3 MSTORE POP POP JUMP JUMPDEST PUSH0 PUSH1 0x20 DUP3 ADD SWAP1 POP PUSH2 0x3D21 PUSH0 DUP4 ADD DUP5 PUSH2 0x3CFF JUMP JUMPDEST SWAP3 SWAP2 POP POP JUMP JUMPDEST PUSH2 0x3D30 DUP2 PUSH2 0x3CA4 JUMP JUMPDEST DUP2 EQ PUSH2 0x3D3A JUMPI PUSH0 DUP1 REVERT JUMPDEST POP JUMP JUMPDEST PUSH0 DUP2 CALLDATALOAD SWAP1 POP PUSH2 0x3D4B DUP2 PUSH2 0x3D27 JUMP JUMPDEST SWAP3 SWAP2 POP POP JUMP JUMPDEST PUSH0 PUSH1 0x20 DUP3 DUP5 SUB SLT ISZERO PUSH2 0x3D66 JUMPI PUSH2 0x3D65 PUSH2 0x3BD1 JUMP JUMPDEST JUMPDEST PUSH0 PUSH2 0x3D73 DUP5 DUP3 DUP6 ADD PUSH2 0x3D3D JUMP JUMPDEST SWAP2 POP POP SWAP3 SWAP2 POP POP JUMP JUMPDEST PUSH0 DUP1 PUSH0 PUSH1 0x60 DUP5 DUP7 SUB SLT ISZERO PUSH2 0x3D93 JUMPI PUSH2 0x3D92 PUSH2 0x3BD1 JUMP JUMPDEST JUMPDEST PUSH0 PUSH2 0x3DA0 DUP7 DUP3 DUP8 ADD PUSH2 0x3C1F JUMP JUMPDEST SWAP4 POP POP PUSH1 0x20 PUSH2 0x3DB1 DUP7 DUP3 DUP8 ADD PUSH2 0x3C1F JUMP JUMPDEST SWAP3 POP POP PUSH1 0x40 PUSH2 0x3DC2 DUP7 DUP3 DUP8 ADD PUSH2 0x3C52 JUMP JUMPDEST SWAP2 POP POP SWAP3 POP SWAP3 POP SWAP3 JUMP JUMPDEST PUSH0 PUSH1 0x20 DUP3 DUP5 SUB SLT ISZERO PUSH2 0x3DE1 JUMPI PUSH2 0x3DE0 PUSH2 0x3BD1 JUMP JUMPDEST JUMPDEST PUSH0 PUSH2 0x3DEE DUP5 DUP3 DUP6 ADD PUSH2 0x3C1F JUMP JUMPDEST SWAP2 POP POP SWAP3 SWAP2 POP POP JUMP JUMPDEST PUSH0 PUSH1 0xFF DUP3 AND SWAP1 POP SWAP2 SWAP1 POP JUMP JUMPDEST PUSH2 0x3E0C DUP2 PUSH2 0x3DF7 JUMP JUMPDEST DUP3 MSTORE POP POP JUMP JUMPDEST PUSH0 PUSH1 0x20 DUP3 ADD SWAP1 POP PUSH2 0x3E25 PUSH0 DUP4 ADD DUP5 PUSH2 0x3E03 JUMP JUMPDEST SWAP3 SWAP2 POP POP JUMP JUMPDEST PUSH0 PUSH1 0x20 DUP3 DUP5 SUB SLT ISZERO PUSH2 0x3E40 JUMPI PUSH2 0x3E3F PUSH2 0x3BD1 JUMP JUMPDEST JUMPDEST PUSH0 PUSH2 0x3E4D DUP5 DUP3 DUP6 ADD PUSH2 0x3C52 JUMP JUMPDEST SWAP2 POP POP SWAP3 SWAP2 POP POP JUMP JUMPDEST PUSH2 0x3E5F DUP2 PUSH2 0x3DF7 JUMP JUMPDEST DUP2 EQ PUSH2 0x3E69 JUMPI PUSH0 DUP1 REVERT JUMPDEST POP JUMP JUMPDEST PUSH0 DUP2 CALLDATALOAD SWAP1 POP PUSH2 0x3E7A DUP2 PUSH2 0x3E56 JUMP JUMPDEST SWAP3 SWAP2 POP POP JUMP JUMPDEST PUSH0 DUP2 SWAP1 POP SWAP2 SWAP1 POP JUMP JUMPDEST PUSH2 0x3E92 DUP2 PUSH2 0x3E80 JUMP JUMPDEST DUP2 EQ PUSH2 0x3E9C JUMPI PUSH0 DUP1 REVERT JUMPDEST POP JUMP JUMPDEST PUSH0 DUP2 CALLDATALOAD SWAP1 POP PUSH2 0x3EAD DUP2 PUSH2 0x3E89 JUMP JUMPDEST SWAP3 SWAP2 POP POP JUMP JUMPDEST PUSH0 DUP1 PUSH0 DUP1 PUSH0 DUP1 PUSH1 0xC0 DUP8 DUP10 SUB SLT ISZERO PUSH2 0x3ECD JUMPI PUSH2 0x3ECC PUSH2 0x3BD1 JUMP JUMPDEST JUMPDEST PUSH0 PUSH2 0x3EDA DUP10 DUP3 DUP11 ADD PUSH2 0x3C1F JUMP JUMPDEST SWAP7 POP POP PUSH1 0x20 PUSH2 0x3EEB DUP10 DUP3 DUP11 ADD PUSH2 0x3C52 JUMP JUMPDEST SWAP6 POP POP PUSH1 0x40 PUSH2 0x3EFC DUP10 DUP3 DUP11 ADD PUSH2 0x3C52 JUMP JUMPDEST SWAP5 POP POP PUSH1 0x60 PUSH2 0x3F0D DUP10 DUP3 DUP11 ADD PUSH2 0x3E6C JUMP JUMPDEST SWAP4 POP POP PUSH1 0x80 PUSH2 0x3F1E DUP10 DUP3 DUP11 ADD PUSH2 0x3E9F JUMP JUMPDEST SWAP3 POP POP PUSH1 0xA0 PUSH2 0x3F2F DUP10 DUP3 DUP11 ADD PUSH2 0x3E9F JUMP JUMPDEST SWAP2 POP POP SWAP3 SWAP6 POP SWAP3 SWAP6 POP SWAP3 SWAP6 JUMP JUMPDEST PUSH0 DUP2 MLOAD SWAP1 POP SWAP2 SWAP1 POP JUMP JUMPDEST PUSH0 DUP3 DUP3 MSTORE PUSH1 0x20 DUP3 ADD SWAP1 POP SWAP3 SWAP2 POP POP JUMP JUMPDEST PUSH0 PUSH2 0x3F60 DUP3 PUSH2 0x3F3C JUMP JUMPDEST PUSH2 0x3F6A DUP2 DUP6 PUSH2 0x3F46 JUMP JUMPDEST SWAP4 POP PUSH2 0x3F7A DUP2 DUP6 PUSH1 0x20 DUP7 ADD PUSH2 0x3B52 JUMP JUMPDEST PUSH2 0x3F83 DUP2 PUSH2 0x3B60 JUMP JUMPDEST DUP5 ADD SWAP2 POP POP SWAP3 SWAP2 POP POP JUMP JUMPDEST PUSH0 PUSH1 0x20 DUP3 ADD SWAP1 POP DUP2 DUP2 SUB PUSH0 DUP4 ADD MSTORE PUSH2 0x3FA6 DUP2 DUP5 PUSH2 0x3F56 JUMP JUMPDEST SWAP1 POP SWAP3 SWAP2 POP POP JUMP JUMPDEST PUSH0 DUP1 REVERT JUMPDEST PUSH0 DUP1 REVERT JUMPDEST PUSH32 0x4E487B7100000000000000000000000000000000000000000000000000000000 PUSH0 MSTORE PUSH1 0x41 PUSH1 0x4 MSTORE PUSH1 0x24 PUSH0 REVERT JUMPDEST PUSH2 0x3FEC DUP3 PUSH2 0x3B60 JUMP JUMPDEST DUP2 ADD DUP2 DUP2 LT PUSH8 0xFFFFFFFFFFFFFFFF DUP3 GT OR ISZERO PUSH2 0x400B JUMPI PUSH2 0x400A PUSH2 0x3FB6 JUMP JUMPDEST JUMPDEST DUP1 PUSH1 0x40 MSTORE POP POP POP JUMP JUMPDEST PUSH0 PUSH2 0x401D PUSH2 0x3BC8 JUMP JUMPDEST SWAP1 POP PUSH2 0x4029 DUP3 DUP3 PUSH2 0x3FE3 JUMP JUMPDEST SWAP2 SWAP1 POP JUMP JUMPDEST PUSH0 PUSH8 0xFFFFFFFFFFFFFFFF DUP3 GT ISZERO PUSH2 0x4048 JUMPI PUSH2 0x4047 PUSH2 0x3FB6 JUMP JUMPDEST JUMPDEST PUSH2 0x4051 DUP3 PUSH2 0x3B60 JUMP JUMPDEST SWAP1 POP PUSH1 0x20 DUP2 ADD SWAP1 POP SWAP2 SWAP1 POP JUMP JUMPDEST DUP3 DUP2 DUP4 CALLDATACOPY PUSH0 DUP4 DUP4 ADD MSTORE POP POP POP JUMP JUMPDEST PUSH0 PUSH2 0x407E PUSH2 0x4079 DUP5 PUSH2 0x402E JUMP JUMPDEST PUSH2 0x4014 JUMP JUMPDEST SWAP1 POP DUP3 DUP2 MSTORE PUSH1 0x20 DUP2 ADD DUP5 DUP5 DUP5 ADD GT ISZERO PUSH2 0x409A JUMPI PUSH2 0x4099 PUSH2 0x3FB2 JUMP JUMPDEST JUMPDEST PUSH2 0x40A5 DUP5 DUP3 DUP6 PUSH2 0x405E JUMP JUMPDEST POP SWAP4 SWAP3 POP POP POP JUMP JUMPDEST PUSH0 DUP3 PUSH1 0x1F DUP4 ADD SLT PUSH2 0x40C1 JUMPI PUSH2 0x40C0 PUSH2 0x3FAE JUMP JUMPDEST JUMPDEST DUP2 CALLDATALOAD PUSH2 0x40D1 DUP5 DUP3 PUSH1 0x20 DUP7 ADD PUSH2 0x406C JUMP JUMPDEST SWAP2 POP POP SWAP3 SWAP2 POP POP JUMP JUMPDEST PUSH0 PUSH1 0x20 DUP3 DUP5 SUB SLT ISZERO PUSH2 0x40EF JUMPI PUSH2 0x40EE PUSH2 0x3BD1 JUMP JUMPDEST JUMPDEST PUSH0 DUP3 ADD CALLDATALOAD PUSH8 0xFFFFFFFFFFFFFFFF DUP2 GT ISZERO PUSH2 0x410C JUMPI PUSH2 0x410B PUSH2 0x3BD5 JUMP JUMPDEST JUMPDEST PUSH2 0x4118 DUP5 DUP3 DUP6 ADD PUSH2 0x40AD JUMP JUMPDEST SWAP2 POP POP SWAP3 SWAP2 POP POP JUMP JUMPDEST PUSH0 PUSH32 0xFF00000000000000000000000000000000000000000000000000000000000000 DUP3 AND SWAP1 POP SWAP2 SWAP1 POP JUMP JUMPDEST PUSH2 0x4155 DUP2 PUSH2 0x4121 JUMP JUMPDEST DUP3 MSTORE POP POP JUMP JUMPDEST PUSH2 0x4164 DUP2 PUSH2 0x3E80 JUMP JUMPDEST DUP3 MSTORE POP POP JUMP JUMPDEST PUSH0 DUP2 MLOAD SWAP1 POP SWAP2 SWAP1 POP JUMP JUMPDEST PUSH0 DUP3 DUP3 MSTORE PUSH1 0x20 DUP3 ADD SWAP1 POP SWAP3 SWAP2 POP POP JUMP JUMPDEST PUSH0 DUP2 SWAP1 POP PUSH1 0x20 DUP3 ADD SWAP1 POP SWAP2 SWAP1 POP JUMP JUMPDEST PUSH2 0x419C DUP2 PUSH2 0x3C33 JUMP JUMPDEST DUP3 MSTORE POP POP JUMP JUMPDEST PUSH0 PUSH2 0x41AD DUP4 DUP4 PUSH2 0x4193 JUMP JUMPDEST PUSH1 0x20 DUP4 ADD SWAP1 POP SWAP3 SWAP2 POP POP JUMP JUMPDEST PUSH0 PUSH1 0x20 DUP3 ADD SWAP1 POP SWAP2 SWAP1 POP JUMP JUMPDEST PUSH0 PUSH2 0x41CF DUP3 PUSH2 0x416A JUMP JUMPDEST PUSH2 0x41D9 DUP2 DUP6 PUSH2 0x4174 JUMP JUMPDEST SWAP4 POP PUSH2 0x41E4 DUP4 PUSH2 0x4184 JUMP JUMPDEST DUP1 PUSH0 JUMPDEST DUP4 DUP2 LT ISZERO PUSH2 0x4214 JUMPI DUP2 MLOAD PUSH2 0x41FB DUP9 DUP3 PUSH2 0x41A2 JUMP JUMPDEST SWAP8 POP PUSH2 0x4206 DUP4 PUSH2 0x41B9 JUMP JUMPDEST SWAP3 POP POP PUSH1 0x1 DUP2 ADD SWAP1 POP PUSH2 0x41E7 JUMP JUMPDEST POP DUP6 SWAP4 POP POP POP POP SWAP3 SWAP2 POP POP JUMP JUMPDEST PUSH0 PUSH1 0xE0 DUP3 ADD SWAP1 POP PUSH2 0x4234 PUSH0 DUP4 ADD DUP11 PUSH2 0x414C JUMP JUMPDEST DUP2 DUP2 SUB PUSH1 0x20 DUP4 ADD MSTORE PUSH2 0x4246 DUP2 DUP10 PUSH2 0x3B70 JUMP JUMPDEST SWAP1 POP DUP2 DUP2 SUB PUSH1 0x40 DUP4 ADD MSTORE PUSH2 0x425A DUP2 DUP9 PUSH2 0x3B70 JUMP JUMPDEST SWAP1 POP PUSH2 0x4269 PUSH1 0x60 DUP4 ADD DUP8 PUSH2 0x3CD7 JUMP JUMPDEST PUSH2 0x4276 PUSH1 0x80 DUP4 ADD DUP7 PUSH2 0x3CFF JUMP JUMPDEST PUSH2 0x4283 PUSH1 0xA0 DUP4 ADD DUP6 PUSH2 0x415B JUMP JUMPDEST DUP2 DUP2 SUB PUSH1 0xC0 DUP4 ADD MSTORE PUSH2 0x4295 DUP2 DUP5 PUSH2 0x41C5 JUMP JUMPDEST SWAP1 POP SWAP9 SWAP8 POP POP POP POP POP POP POP POP JUMP JUMPDEST PUSH0 DUP1 REVERT JUMPDEST PUSH0 DUP1 REVERT JUMPDEST PUSH0 DUP1 DUP4 PUSH1 0x1F DUP5 ADD SLT PUSH2 0x42C0 JUMPI PUSH2 0x42BF PUSH2 0x3FAE JUMP JUMPDEST JUMPDEST DUP3 CALLDATALOAD SWAP1 POP PUSH8 0xFFFFFFFFFFFFFFFF DUP2 GT ISZERO PUSH2 0x42DD JUMPI PUSH2 0x42DC PUSH2 0x42A3 JUMP JUMPDEST JUMPDEST PUSH1 0x20 DUP4 ADD SWAP2 POP DUP4 PUSH1 0x20 DUP3 MUL DUP4 ADD GT ISZERO PUSH2 0x42F9 JUMPI PUSH2 0x42F8 PUSH2 0x42A7 JUMP JUMPDEST JUMPDEST SWAP3 POP SWAP3 SWAP1 POP JUMP JUMPDEST PUSH0 DUP1 DUP4 PUSH1 0x1F DUP5 ADD SLT PUSH2 0x4315 JUMPI PUSH2 0x4314 PUSH2 0x3FAE JUMP JUMPDEST JUMPDEST DUP3 CALLDATALOAD SWAP1 POP PUSH8 0xFFFFFFFFFFFFFFFF DUP2 GT ISZERO PUSH2 0x4332 JUMPI PUSH2 0x4331 PUSH2 0x42A3 JUMP JUMPDEST JUMPDEST PUSH1 0x20 DUP4 ADD SWAP2 POP DUP4 PUSH1 0x20 DUP3 MUL DUP4 ADD GT ISZERO PUSH2 0x434E JUMPI PUSH2 0x434D PUSH2 0x42A7 JUMP JUMPDEST JUMPDEST SWAP3 POP SWAP3 SWAP1 POP JUMP JUMPDEST PUSH0 DUP1 PUSH0 DUP1 PUSH1 0x40 DUP6 DUP8 SUB SLT ISZERO PUSH2 0x436D JUMPI PUSH2 0x436C PUSH2 0x3BD1 JUMP JUMPDEST JUMPDEST PUSH0 DUP6 ADD CALLDATALOAD PUSH8 0xFFFFFFFFFFFFFFFF DUP2 GT ISZERO PUSH2 0x438A JUMPI PUSH2 0x4389 PUSH2 0x3BD5 JUMP JUMPDEST JUMPDEST PUSH2 0x4396 DUP8 DUP3 DUP9 ADD PUSH2 0x42AB JUMP JUMPDEST SWAP5 POP SWAP5 POP POP PUSH1 0x20 DUP6 ADD CALLDATALOAD PUSH8 0xFFFFFFFFFFFFFFFF DUP2 GT ISZERO PUSH2 0x43B9 JUMPI PUSH2 0x43B8 PUSH2 0x3BD5 JUMP JUMPDEST JUMPDEST PUSH2 0x43C5 DUP8 DUP3 DUP9 ADD PUSH2 0x4300 JUMP JUMPDEST SWAP3 POP SWAP3 POP POP SWAP3 SWAP6 SWAP2 SWAP5 POP SWAP3 POP JUMP JUMPDEST PUSH0 DUP1 PUSH1 0x40 DUP4 DUP6 SUB SLT ISZERO PUSH2 0x43E9 JUMPI PUSH2 0x43E8 PUSH2 0x3BD1 JUMP JUMPDEST JUMPDEST PUSH0 PUSH2 0x43F6 DUP6 DUP3 DUP7 ADD PUSH2 0x3C52 JUMP JUMPDEST SWAP3 POP POP PUSH1 0x20 PUSH2 0x4407 DUP6 DUP3 DUP7 ADD PUSH2 0x3C52 JUMP JUMPDEST SWAP2 POP POP SWAP3 POP SWAP3 SWAP1 POP JUMP JUMPDEST PUSH0 DUP1 PUSH1 0x40 DUP4 DUP6 SUB SLT ISZERO PUSH2 0x4427 JUMPI PUSH2 0x4426 PUSH2 0x3BD1 JUMP JUMPDEST JUMPDEST PUSH0 PUSH2 0x4434 DUP6 DUP3 DUP7 ADD PUSH2 0x3C1F JUMP JUMPDEST SWAP3 POP POP PUSH1 0x20 PUSH2 0x4445 DUP6 DUP3 DUP7 ADD PUSH2 0x3C1F JUMP JUMPDEST SWAP2 POP POP SWAP3 POP SWAP3 SWAP1 POP JUMP JUMPDEST PUSH32 0x4E487B7100000000000000000000000000000000000000000000000000000000 PUSH0 MSTORE PUSH1 0x22 PUSH1 0x4 MSTORE PUSH1 0x24 PUSH0 REVERT JUMPDEST PUSH0 PUSH1 0x2 DUP3 DIV SWAP1 POP PUSH1 0x1 DUP3 AND DUP1 PUSH2 0x4493 JUMPI PUSH1 0x7F DUP3 AND SWAP2 POP JUMPDEST PUSH1 0x20 DUP3 LT DUP2 SUB PUSH2 0x44A6 JUMPI PUSH2 0x44A5 PUSH2 0x444F JUMP JUMPDEST JUMPDEST POP SWAP2 SWAP1 POP JUMP JUMPDEST PUSH32 0x48E1BBA37020C491E1BB936E6720C491616E672074E1BAA16D2064E1BBAB6E67 PUSH0 DUP3 ADD MSTORE POP JUMP JUMPDEST PUSH0 PUSH2 0x44E0 PUSH1 0x20 DUP4 PUSH2 0x3B42 JUMP JUMPDEST SWAP2 POP PUSH2 0x44EB DUP3 PUSH2 0x44AC JUMP JUMPDEST PUSH1 0x20 DUP3 ADD SWAP1 POP SWAP2 SWAP1 POP JUMP JUMPDEST PUSH0 PUSH1 0x20 DUP3 ADD SWAP1 POP DUP2 DUP2 SUB PUSH0 DUP4 ADD MSTORE PUSH2 0x450D DUP2 PUSH2 0x44D4 JUMP JUMPDEST SWAP1 POP SWAP2 SWAP1 POP JUMP JUMPDEST PUSH32 0x53E1BB91206CC6B0E1BBA36E672076C6B0E1BBA374207175C3A12073E1BB9120 PUSH0 DUP3 ADD MSTORE PUSH32 0x64C6B02068E1BBA37020C491E1BB936E67000000000000000000000000000000 PUSH1 0x20 DUP3 ADD MSTORE POP JUMP JUMPDEST PUSH0 PUSH2 0x456E PUSH1 0x31 DUP4 PUSH2 0x3B42 JUMP JUMPDEST SWAP2 POP PUSH2 0x4579 DUP3 PUSH2 0x4514 JUMP JUMPDEST PUSH1 0x40 DUP3 ADD SWAP1 POP SWAP2 SWAP1 POP JUMP JUMPDEST PUSH0 PUSH1 0x20 DUP3 ADD SWAP1 POP DUP2 DUP2 SUB PUSH0 DUP4 ADD MSTORE PUSH2 0x459B DUP2 PUSH2 0x4562 JUMP JUMPDEST SWAP1 POP SWAP2 SWAP1 POP JUMP JUMPDEST PUSH32 0xC490E1BB8B61206368E1BB892076C3AD2064E1BBB1207068C3B26E67206B68C3 PUSH0 DUP3 ADD MSTORE PUSH32 0xB46E672068E1BBA370206CE1BB87000000000000000000000000000000000000 PUSH1 0x20 DUP3 ADD MSTORE POP JUMP JUMPDEST PUSH0 PUSH2 0x45FC PUSH1 0x2E DUP4 PUSH2 0x3B42 JUMP JUMPDEST SWAP2 POP PUSH2 0x4607 DUP3 PUSH2 0x45A2 JUMP JUMPDEST PUSH1 0x40 DUP3 ADD SWAP1 POP SWAP2 SWAP1 POP JUMP JUMPDEST PUSH0 PUSH1 0x20 DUP3 ADD SWAP1 POP DUP2 DUP2 SUB PUSH0 DUP4 ADD MSTORE PUSH2 0x4629 DUP2 PUSH2 0x45F0 JUMP JUMPDEST SWAP1 POP SWAP2 SWAP1 POP JUMP JUMPDEST PUSH32 0x56C3AD2064E1BBB1207068C3B26E67206B68C3B46E6720C491C6B0E1BBA36320 PUSH0 DUP3 ADD MSTORE PUSH32 0x7472C3B96E672076E1BB9B69206F776E65720000000000000000000000000000 PUSH1 0x20 DUP3 ADD MSTORE POP JUMP JUMPDEST PUSH0 PUSH2 0x468A PUSH1 0x32 DUP4 PUSH2 0x3B42 JUMP JUMPDEST SWAP2 POP PUSH2 0x4695 DUP3 PUSH2 0x4630 JUMP JUMPDEST PUSH1 0x40 DUP3 ADD SWAP1 POP SWAP2 SWAP1 POP JUMP JUMPDEST PUSH0 PUSH1 0x20 DUP3 ADD SWAP1 POP DUP2 DUP2 SUB PUSH0 DUP4 ADD MSTORE PUSH2 0x46B7 DUP2 PUSH2 0x467E JUMP JUMPDEST SWAP1 POP SWAP2 SWAP1 POP JUMP JUMPDEST PUSH32 0x4E487B7100000000000000000000000000000000000000000000000000000000 PUSH0 MSTORE PUSH1 0x11 PUSH1 0x4 MSTORE PUSH1 0x24 PUSH0 REVERT JUMPDEST PUSH0 PUSH2 0x46F5 DUP3 PUSH2 0x3C33 JUMP JUMPDEST SWAP2 POP PUSH2 0x4700 DUP4 PUSH2 0x3C33 JUMP JUMPDEST SWAP3 POP DUP3 DUP3 ADD SWAP1 POP DUP1 DUP3 GT ISZERO PUSH2 0x4718 JUMPI PUSH2 0x4717 PUSH2 0x46BE JUMP JUMPDEST JUMPDEST SWAP3 SWAP2 POP POP JUMP JUMPDEST PUSH32 0x4368C6B0612068E1BABF74207468E1BB9D69206769616E206B68C3B361206D69 PUSH0 DUP3 ADD MSTORE PUSH32 0x6E74000000000000000000000000000000000000000000000000000000000000 PUSH1 0x20 DUP3 ADD MSTORE POP JUMP JUMPDEST PUSH0 PUSH2 0x4778 PUSH1 0x22 DUP4 PUSH2 0x3B42 JUMP JUMPDEST SWAP2 POP PUSH2 0x4783 DUP3 PUSH2 0x471E JUMP JUMPDEST PUSH1 0x40 DUP3 ADD SWAP1 POP SWAP2 SWAP1 POP JUMP JUMPDEST PUSH0 PUSH1 0x20 DUP3 ADD SWAP1 POP DUP2 DUP2 SUB PUSH0 DUP4 ADD MSTORE PUSH2 0x47A5 DUP2 PUSH2 0x476C JUMP JUMPDEST SWAP1 POP SWAP2 SWAP1 POP JUMP JUMPDEST PUSH32 0xC490E1BB8B61206368E1BB89206E68E1BAAD6E206B68C3B46E672068E1BBA370 PUSH0 DUP3 ADD MSTORE PUSH32 0x206CE1BB87000000000000000000000000000000000000000000000000000000 PUSH1 0x20 DUP3 ADD MSTORE POP JUMP JUMPDEST PUSH0 PUSH2 0x4806 PUSH1 0x25 DUP4 PUSH2 0x3B42 JUMP JUMPDEST SWAP2 POP PUSH2 0x4811 DUP3 PUSH2 0x47AC JUMP JUMPDEST PUSH1 0x40 DUP3 ADD SWAP1 POP SWAP2 SWAP1 POP JUMP JUMPDEST PUSH0 PUSH1 0x20 DUP3 ADD SWAP1 POP DUP2 DUP2 SUB PUSH0 DUP4 ADD MSTORE PUSH2 0x4833 DUP2 PUSH2 0x47FA JUMP JUMPDEST SWAP1 POP SWAP2 SWAP1 POP JUMP JUMPDEST PUSH32 0x53E1BB91206CC6B0E1BBA36E67206D696E74206B68C3B46E672068E1BBA37020 PUSH0 DUP3 ADD MSTORE PUSH32 0x6CE1BB8700000000000000000000000000000000000000000000000000000000 PUSH1 0x20 DUP3 ADD MSTORE POP JUMP JUMPDEST PUSH0 PUSH2 0x4894 PUSH1 0x24 DUP4 PUSH2 0x3B42 JUMP JUMPDEST SWAP2 POP PUSH2 0x489F DUP3 PUSH2 0x483A JUMP JUMPDEST PUSH1 0x40 DUP3 ADD SWAP1 POP SWAP2 SWAP1 POP JUMP JUMPDEST PUSH0 PUSH1 0x20 DUP3 ADD SWAP1 POP DUP2 DUP2 SUB PUSH0 DUP4 ADD MSTORE PUSH2 0x48C1 DUP2 PUSH2 0x4888 JUMP JUMPDEST SWAP1 POP SWAP2 SWAP1 POP JUMP JUMPDEST PUSH0 PUSH2 0x48D2 DUP3 PUSH2 0x3C33 JUMP JUMPDEST SWAP2 POP PUSH2 0x48DD DUP4 PUSH2 0x3C33 JUMP JUMPDEST SWAP3 POP DUP3 DUP3 MUL PUSH2 0x48EB DUP2 PUSH2 0x3C33 JUMP JUMPDEST SWAP2 POP DUP3 DUP3 DIV DUP5 EQ DUP4 ISZERO OR PUSH2 0x4902 JUMPI PUSH2 0x4901 PUSH2 0x46BE JUMP JUMPDEST JUMPDEST POP SWAP3 SWAP2 POP POP JUMP JUMPDEST PUSH32 0x56C6B0E1BBA374207175C3A12074E1BB956E672063756E672074E1BB916920C4 PUSH0 DUP3 ADD MSTORE PUSH32 0x9161000000000000000000000000000000000000000000000000000000000000 PUSH1 0x20 DUP3 ADD MSTORE POP JUMP JUMPDEST PUSH0 PUSH2 0x4963 PUSH1 0x22 DUP4 PUSH2 0x3B42 JUMP JUMPDEST SWAP2 POP PUSH2 0x496E DUP3 PUSH2 0x4909 JUMP JUMPDEST PUSH1 0x40 DUP3 ADD SWAP1 POP SWAP2 SWAP1 POP JUMP JUMPDEST PUSH0 PUSH1 0x20 DUP3 ADD SWAP1 POP DUP2 DUP2 SUB PUSH0 DUP4 ADD MSTORE PUSH2 0x4990 DUP2 PUSH2 0x4957 JUMP JUMPDEST SWAP1 POP SWAP2 SWAP1 POP JUMP JUMPDEST PUSH32 0x4368E1BB89206F776E6572206DE1BB9B692063C3B3207468E1BB832072C3BA74 PUSH0 DUP3 ADD MSTORE PUSH32 0x2045544800000000000000000000000000000000000000000000000000000000 PUSH1 0x20 DUP3 ADD MSTORE POP JUMP JUMPDEST PUSH0 PUSH2 0x49F1 PUSH1 0x24 DUP4 PUSH2 0x3B42 JUMP JUMPDEST SWAP2 POP PUSH2 0x49FC DUP3 PUSH2 0x4997 JUMP JUMPDEST PUSH1 0x40 DUP3 ADD SWAP1 POP SWAP2 SWAP1 POP JUMP JUMPDEST PUSH0 PUSH1 0x20 DUP3 ADD SWAP1 POP DUP2 DUP2 SUB PUSH0 DUP4 ADD MSTORE PUSH2 0x4A1E DUP2 PUSH2 0x49E5 JUMP JUMPDEST SWAP1 POP SWAP2 SWAP1 POP JUMP JUMPDEST PUSH32 0x53E1BB912064C6B020455448206B68C3B46E6720C491E1BBA700000000000000 PUSH0 DUP3 ADD MSTORE POP JUMP JUMPDEST PUSH0 PUSH2 0x4A59 PUSH1 0x19 DUP4 PUSH2 0x3B42 JUMP JUMPDEST SWAP2 POP PUSH2 0x4A64 DUP3 PUSH2 0x4A25 JUMP JUMPDEST PUSH1 0x20 DUP3 ADD SWAP1 POP SWAP2 SWAP1 POP JUMP JUMPDEST PUSH0 PUSH1 0x20 DUP3 ADD SWAP1 POP DUP2 DUP2 SUB PUSH0 DUP4 ADD MSTORE PUSH2 0x4A86 DUP2 PUSH2 0x4A4D JUMP JUMPDEST SWAP1 POP SWAP2 SWAP1 POP JUMP JUMPDEST PUSH0 DUP2 SWAP1 POP SWAP3 SWAP2 POP POP JUMP JUMPDEST POP JUMP JUMPDEST PUSH0 PUSH2 0x4AA5 PUSH0 DUP4 PUSH2 0x4A8D JUMP JUMPDEST SWAP2 POP PUSH2 0x4AB0 DUP3 PUSH2 0x4A97 JUMP JUMPDEST PUSH0 DUP3 ADD SWAP1 POP SWAP2 SWAP1 POP JUMP JUMPDEST PUSH0 PUSH2 0x4AC4 DUP3 PUSH2 0x4A9A JUMP JUMPDEST SWAP2 POP DUP2 SWAP1 POP SWAP2 SWAP1 POP JUMP JUMPDEST PUSH32 0x4B68C3B46E672067E1BBAD6920C491C6B0E1BBA3632045544800000000000000 PUSH0 DUP3 ADD MSTORE POP JUMP JUMPDEST PUSH0 PUSH2 0x4B02 PUSH1 0x19 DUP4 PUSH2 0x3B42 JUMP JUMPDEST SWAP2 POP PUSH2 0x4B0D DUP3 PUSH2 0x4ACE JUMP JUMPDEST PUSH1 0x20 DUP3 ADD SWAP1 POP SWAP2 SWAP1 POP JUMP JUMPDEST PUSH0 PUSH1 0x20 DUP3 ADD SWAP1 POP DUP2 DUP2 SUB PUSH0 DUP4 ADD MSTORE PUSH2 0x4B2F DUP2 PUSH2 0x4AF6 JUMP JUMPDEST SWAP1 POP SWAP2 SWAP1 POP JUMP JUMPDEST PUSH32 0x53E1BB91206CC6B0E1BBA36E67207068E1BAA369206CE1BB9B6E2068C6A16E20 PUSH0 DUP3 ADD MSTORE PUSH32 0x3000000000000000000000000000000000000000000000000000000000000000 PUSH1 0x20 DUP3 ADD MSTORE POP JUMP JUMPDEST PUSH0 PUSH2 0x4B90 PUSH1 0x21 DUP4 PUSH2 0x3B42 JUMP JUMPDEST SWAP2 POP PUSH2 0x4B9B DUP3 PUSH2 0x4B36 JUMP JUMPDEST PUSH1 0x40 DUP3 ADD SWAP1 POP SWAP2 SWAP1 POP JUMP JUMPDEST PUSH0 PUSH1 0x20 DUP3 ADD SWAP1 POP DUP2 DUP2 SUB PUSH0 DUP4 ADD MSTORE PUSH2 0x4BBD DUP2 PUSH2 0x4B84 JUMP JUMPDEST SWAP1 POP SWAP2 SWAP1 POP JUMP JUMPDEST PUSH32 0xC490E1BB8B61206368E1BB89206E67C6B0E1BB9D692067E1BBAD69206B68C3B4 PUSH0 DUP3 ADD MSTORE PUSH32 0x6E672068E1BBA370206CE1BB8700000000000000000000000000000000000000 PUSH1 0x20 DUP3 ADD MSTORE POP JUMP JUMPDEST PUSH0 PUSH2 0x4C1E PUSH1 0x2D DUP4 PUSH2 0x3B42 JUMP JUMPDEST SWAP2 POP PUSH2 0x4C29 DUP3 PUSH2 0x4BC4 JUMP JUMPDEST PUSH1 0x40 DUP3 ADD SWAP1 POP SWAP2 SWAP1 POP JUMP JUMPDEST PUSH0 PUSH1 0x20 DUP3 ADD SWAP1 POP DUP2 DUP2 SUB PUSH0 DUP4 ADD MSTORE PUSH2 0x4C4B DUP2 PUSH2 0x4C12 JUMP JUMPDEST SWAP1 POP SWAP2 SWAP1 POP JUMP JUMPDEST PUSH32 0x4E6F6E6365206B68C3B46E67206B68E1BB9B7000000000000000000000000000 PUSH0 DUP3 ADD MSTORE POP JUMP JUMPDEST PUSH0 PUSH2 0x4C86 PUSH1 0x13 DUP4 PUSH2 0x3B42 JUMP JUMPDEST SWAP2 POP PUSH2 0x4C91 DUP3 PUSH2 0x4C52 JUMP JUMPDEST PUSH1 0x20 DUP3 ADD SWAP1 POP SWAP2 SWAP1 POP JUMP JUMPDEST PUSH0 PUSH1 0x20 DUP3 ADD SWAP1 POP DUP2 DUP2 SUB PUSH0 DUP4 ADD MSTORE PUSH2 0x4CB3 DUP2 PUSH2 0x4C7A JUMP JUMPDEST SWAP1 POP SWAP2 SWAP1 POP JUMP JUMPDEST PUSH32 0x53E1BB912064C6B0206B68C3B46E6720C491E1BBA70000000000000000000000 PUSH0 DUP3 ADD MSTORE POP JUMP JUMPDEST PUSH0 PUSH2 0x4CEE PUSH1 0x15 DUP4 PUSH2 0x3B42 JUMP JUMPDEST SWAP2 POP PUSH2 0x4CF9 DUP3 PUSH2 0x4CBA JUMP JUMPDEST PUSH1 0x20 DUP3 ADD SWAP1 POP SWAP2 SWAP1 POP JUMP JUMPDEST PUSH0 PUSH1 0x20 DUP3 ADD SWAP1 POP DUP2 DUP2 SUB PUSH0 DUP4 ADD MSTORE PUSH2 0x4D1B DUP2 PUSH2 0x4CE2 JUMP JUMPDEST SWAP1 POP SWAP2 SWAP1 POP JUMP JUMPDEST PUSH32 0x4769C3A1207472E1BB8B2076206B68C3B46E672068E1BBA370206CE1BB870000 PUSH0 DUP3 ADD MSTORE POP JUMP JUMPDEST PUSH0 PUSH2 0x4D56 PUSH1 0x1E DUP4 PUSH2 0x3B42 JUMP JUMPDEST SWAP2 POP PUSH2 0x4D61 DUP3 PUSH2 0x4D22 JUMP JUMPDEST PUSH1 0x20 DUP3 ADD SWAP1 POP SWAP2 SWAP1 POP JUMP JUMPDEST PUSH0 PUSH1 0x20 DUP3 ADD SWAP1 POP DUP2 DUP2 SUB PUSH0 DUP4 ADD MSTORE PUSH2 0x4D83 DUP2 PUSH2 0x4D4A JUMP JUMPDEST SWAP1 POP SWAP2 SWAP1 POP JUMP JUMPDEST PUSH32 0x4368E1BBAF206BC3BD207220686FE1BAB7632073206B68C3B46E672068E1BBA3 PUSH0 DUP3 ADD MSTORE PUSH32 0x70206CE1BB870000000000000000000000000000000000000000000000000000 PUSH1 0x20 DUP3 ADD MSTORE POP JUMP JUMPDEST PUSH0 PUSH2 0x4DE4 PUSH1 0x26 DUP4 PUSH2 0x3B42 JUMP JUMPDEST SWAP2 POP PUSH2 0x4DEF DUP3 PUSH2 0x4D8A JUMP JUMPDEST PUSH1 0x40 DUP3 ADD SWAP1 POP SWAP2 SWAP1 POP JUMP JUMPDEST PUSH0 PUSH1 0x20 DUP3 ADD SWAP1 POP DUP2 DUP2 SUB PUSH0 DUP4 ADD MSTORE PUSH2 0x4E11 DUP2 PUSH2 0x4DD8 JUMP JUMPDEST SWAP1 POP SWAP2 SWAP1 POP JUMP JUMPDEST PUSH32 0x4E6F6E636520C491C3A320C491E1BAA174206769E1BB9B692068E1BAA16E2074 PUSH0 DUP3 ADD MSTORE PUSH32 0xE1BB916920C49161000000000000000000000000000000000000000000000000 PUSH1 0x20 DUP3 ADD MSTORE POP JUMP JUMPDEST PUSH0 PUSH2 0x4E72 PUSH1 0x28 DUP4 PUSH2 0x3B42 JUMP JUMPDEST SWAP2 POP PUSH2 0x4E7D DUP3 PUSH2 0x4E18 JUMP JUMPDEST PUSH1 0x40 DUP3 ADD SWAP1 POP SWAP2 SWAP1 POP JUMP JUMPDEST PUSH0 PUSH1 0x20 DUP3 ADD SWAP1 POP DUP2 DUP2 SUB PUSH0 DUP4 ADD MSTORE PUSH2 0x4E9F DUP2 PUSH2 0x4E66 JUMP JUMPDEST SWAP1 POP SWAP2 SWAP1 POP JUMP JUMPDEST PUSH0 PUSH1 0x80 DUP3 ADD SWAP1 POP PUSH2 0x4EB9 PUSH0 DUP4 ADD DUP8 PUSH2 0x415B JUMP JUMPDEST PUSH2 0x4EC6 PUSH1 0x20 DUP4 ADD DUP7 PUSH2 0x3CFF JUMP JUMPDEST PUSH2 0x4ED3 PUSH1 0x40 DUP4 ADD DUP6 PUSH2 0x3CD7 JUMP JUMPDEST PUSH2 0x4EE0 PUSH1 0x60 DUP4 ADD DUP5 PUSH2 0x3CD7 JUMP JUMPDEST SWAP6 SWAP5 POP POP POP POP POP JUMP JUMPDEST PUSH32 0x4368E1BBAF206BC3BD206B68C3B46E672068E1BBA370206CE1BB870000000000 PUSH0 DUP3 ADD MSTORE POP JUMP JUMPDEST PUSH0 PUSH2 0x4F1D PUSH1 0x1B DUP4 PUSH2 0x3B42 JUMP JUMPDEST SWAP2 POP PUSH2 0x4F28 DUP3 PUSH2 0x4EE9 JUMP JUMPDEST PUSH1 0x20 DUP3 ADD SWAP1 POP SWAP2 SWAP1 POP JUMP JUMPDEST PUSH0 PUSH1 0x20 DUP3 ADD SWAP1 POP DUP2 DUP2 SUB PUSH0 DUP4 ADD MSTORE PUSH2 0x4F4A DUP2 PUSH2 0x4F11 JUMP JUMPDEST SWAP1 POP SWAP2 SWAP1 POP JUMP JUMPDEST PUSH0 PUSH2 0x4F5B DUP3 PUSH2 0x3C33 JUMP JUMPDEST SWAP2 POP PUSH32 0xFFFFFFFFFFFFFFFFFFFFFFFFFFFFFFFFFFFFFFFFFFFFFFFFFFFFFFFFFFFFFFFF DUP3 SUB PUSH2 0x4F8D JUMPI PUSH2 0x4F8C PUSH2 0x46BE JUMP JUMPDEST JUMPDEST PUSH1 0x1 DUP3 ADD SWAP1 POP SWAP2 SWAP1 POP JUMP JUMPDEST PUSH0 DUP2 SWAP1 POP SWAP3 SWAP2 POP POP JUMP JUMPDEST PUSH0 PUSH2 0x4FAC DUP3 PUSH2 0x3B38 JUMP JUMPDEST PUSH2 0x4FB6 DUP2 DUP6 PUSH2 0x4F98 JUMP JUMPDEST SWAP4 POP PUSH2 0x4FC6 DUP2 DUP6 PUSH1 0x20 DUP7 ADD PUSH2 0x3B52 JUMP JUMPDEST DUP1 DUP5 ADD SWAP2 POP POP SWAP3 SWAP2 POP POP JUMP JUMPDEST PUSH0 PUSH2 0x4FDD DUP3 DUP5 PUSH2 0x4FA2 JUMP JUMPDEST SWAP2 POP DUP2 SWAP1 POP SWAP3 SWAP2 POP POP JUMP JUMPDEST PUSH32 0x54C3AA6E20444558206B68C3B46E672068E1BBA370206CE1BB87000000000000 PUSH0 DUP3 ADD MSTORE POP JUMP JUMPDEST PUSH0 PUSH2 0x501C PUSH1 0x1A DUP4 PUSH2 0x3B42 JUMP JUMPDEST SWAP2 POP PUSH2 0x5027 DUP3 PUSH2 0x4FE8 JUMP JUMPDEST PUSH1 0x20 DUP3 ADD SWAP1 POP SWAP2 SWAP1 POP JUMP JUMPDEST PUSH0 PUSH1 0x20 DUP3 ADD SWAP1 POP DUP2 DUP2 SUB PUSH0 DUP4 ADD MSTORE PUSH2 0x5049 DUP2 PUSH2 0x5010 JUMP JUMPDEST SWAP1 POP SWAP2 SWAP1 POP JUMP JUMPDEST PUSH32 0x526F75746572206B68C3B46E67207068E1BAA369206CC3A02068E1BBA37020C4 PUSH0 DUP3 ADD MSTORE PUSH32 0x91E1BB936E670000000000000000000000000000000000000000000000000000 PUSH1 0x20 DUP3 ADD MSTORE POP JUMP JUMPDEST PUSH0 PUSH2 0x50AA PUSH1 0x26 DUP4 PUSH2 0x3B42 JUMP JUMPDEST SWAP2 POP PUSH2 0x50B5 DUP3 PUSH2 0x5050 JUMP JUMPDEST PUSH1 0x40 DUP3 ADD SWAP1 POP SWAP2 SWAP1 POP JUMP JUMPDEST PUSH0 PUSH1 0x20 DUP3 ADD SWAP1 POP DUP2 DUP2 SUB PUSH0 DUP4 ADD MSTORE PUSH2 0x50D7 DUP2 PUSH2 0x509E JUMP JUMPDEST SWAP1 POP SWAP2 SWAP1 POP JUMP JUMPDEST PUSH32 0x4368C6B0612068E1BABF74207468E1BB9D69206769616E206B68C3B361206261 PUSH0 DUP3 ADD MSTORE PUSH32 0x746368207472616E736665720000000000000000000000000000000000000000 PUSH1 0x20 DUP3 ADD MSTORE POP JUMP JUMPDEST PUSH0 PUSH2 0x5138 PUSH1 0x2C DUP4 PUSH2 0x3B42 JUMP JUMPDEST SWAP2 POP PUSH2 0x5143 DUP3 PUSH2 0x50DE JUMP JUMPDEST PUSH1 0x40 DUP3 ADD SWAP1 POP SWAP2 SWAP1 POP JUMP JUMPDEST PUSH0 PUSH1 0x20 DUP3 ADD SWAP1 POP DUP2 DUP2 SUB PUSH0 DUP4 ADD MSTORE PUSH2 0x5165 DUP2 PUSH2 0x512C JUMP JUMPDEST SWAP1 POP SWAP2 SWAP1 POP JUMP JUMPDEST PUSH32 0x53E1BB91206CC6B0E1BBA36E6720C491E1BB8B61206368E1BB892076C3A02073 PUSH0 DUP3 ADD MSTORE PUSH32 0xE1BB9120746F6B656E206B68C3B46E67206B68E1BB9B70000000000000000000 PUSH1 0x20 DUP3 ADD MSTORE POP JUMP JUMPDEST PUSH0 PUSH2 0x51C6 PUSH1 0x37 DUP4 PUSH2 0x3B42 JUMP JUMPDEST SWAP2 POP PUSH2 0x51D1 DUP3 PUSH2 0x516C JUMP JUMPDEST PUSH1 0x40 DUP3 ADD SWAP1 POP SWAP2 SWAP1 POP JUMP JUMPDEST PUSH0 PUSH1 0x20 DUP3 ADD SWAP1 POP DUP2 DUP2 SUB PUSH0 DUP4 ADD MSTORE PUSH2 0x51F3 DUP2 PUSH2 0x51BA JUMP JUMPDEST SWAP1 POP SWAP2 SWAP1 POP JUMP JUMPDEST PUSH32 0xC490E1BB992064C3A069206DE1BAA36E67206B68C3B46E672068E1BBA370206C PUSH0 DUP3 ADD MSTORE PUSH32 0xE1BB870000000000000000000000000000000000000000000000000000000000 PUSH1 0x20 DUP3 ADD MSTORE POP JUMP JUMPDEST PUSH0 PUSH2 0x5254 PUSH1 0x23 DUP4 PUSH2 0x3B42 JUMP JUMPDEST SWAP2 POP PUSH2 0x525F DUP3 PUSH2 0x51FA JUMP JUMPDEST PUSH1 0x40 DUP3 ADD SWAP1 POP SWAP2 SWAP1 POP JUMP JUMPDEST PUSH0 PUSH1 0x20 DUP3 ADD SWAP1 POP DUP2 DUP2 SUB PUSH0 DUP4 ADD MSTORE PUSH2 0x5281 DUP2 PUSH2 0x5248 JUMP JUMPDEST SWAP1 POP SWAP2 SWAP1 POP JUMP JUMPDEST PUSH32 0x4E487B7100000000000000000000000000000000000000000000000000000000 PUSH0 MSTORE PUSH1 0x32 PUSH1 0x4 MSTORE PUSH1 0x24 PUSH0 REVERT JUMPDEST PUSH32 0x53E1BB912064C6B0206B68C3B46E6720C491E1BBA720C491E1BB83207468E1BB PUSH0 DUP3 ADD MSTORE PUSH32 0xB163206869E1BB876E206261746368207472616E736665720000000000000000 PUSH1 0x20 DUP3 ADD MSTORE POP JUMP JUMPDEST PUSH0 PUSH2 0x530F PUSH1 0x38 DUP4 PUSH2 0x3B42 JUMP JUMPDEST SWAP2 POP PUSH2 0x531A DUP3 PUSH2 0x52B5 JUMP JUMPDEST PUSH1 0x40 DUP3 ADD SWAP1 POP SWAP2 SWAP1 POP JUMP JUMPDEST PUSH0 PUSH1 0x20 DUP3 ADD SWAP1 POP DUP2 DUP2 SUB PUSH0 DUP4 ADD MSTORE PUSH2 0x533C DUP2 PUSH2 0x5303 JUMP JUMPDEST SWAP1 POP SWAP2 SWAP1 POP JUMP JUMPDEST PUSH0 DUP3 DUP3 MSTORE PUSH1 0x20 DUP3 ADD SWAP1 POP SWAP3 SWAP2 POP POP JUMP JUMPDEST PUSH0 DUP2 SWAP1 POP SWAP2 SWAP1 POP JUMP JUMPDEST PUSH2 0x5365 DUP2 PUSH2 0x3BF8 JUMP JUMPDEST DUP3 MSTORE POP POP JUMP JUMPDEST PUSH0 PUSH2 0x5376 DUP4 DUP4 PUSH2 0x535C JUMP JUMPDEST PUSH1 0x20 DUP4 ADD SWAP1 POP SWAP3 SWAP2 POP POP JUMP JUMPDEST PUSH0 PUSH2 0x5390 PUSH1 0x20 DUP5 ADD DUP5 PUSH2 0x3C1F JUMP JUMPDEST SWAP1 POP SWAP3 SWAP2 POP POP JUMP JUMPDEST PUSH0 PUSH1 0x20 DUP3 ADD SWAP1 POP SWAP2 SWAP1 POP JUMP JUMPDEST PUSH0 PUSH2 0x53AF DUP4 DUP6 PUSH2 0x5343 JUMP JUMPDEST SWAP4 POP PUSH2 0x53BA DUP3 PUSH2 0x5353 JUMP JUMPDEST DUP1 PUSH0 JUMPDEST DUP6 DUP2 LT ISZERO PUSH2 0x53F2 JUMPI PUSH2 0x53CF DUP3 DUP5 PUSH2 0x5382 JUMP JUMPDEST PUSH2 0x53D9 DUP9 DUP3 PUSH2 0x536B JUMP JUMPDEST SWAP8 POP PUSH2 0x53E4 DUP4 PUSH2 0x5398 JUMP JUMPDEST SWAP3 POP POP PUSH1 0x1 DUP2 ADD SWAP1 POP PUSH2 0x53BD JUMP JUMPDEST POP DUP6 SWAP3 POP POP POP SWAP4 SWAP3 POP POP POP JUMP JUMPDEST PUSH0 DUP1 REVERT JUMPDEST DUP3 DUP2 DUP4 CALLDATACOPY POP POP POP JUMP JUMPDEST PUSH0 PUSH2 0x5417 DUP4 DUP6 PUSH2 0x4174 JUMP JUMPDEST SWAP4 POP PUSH32 0x7FFFFFFFFFFFFFFFFFFFFFFFFFFFFFFFFFFFFFFFFFFFFFFFFFFFFFFFFFFFFFF DUP4 GT ISZERO PUSH2 0x544A JUMPI PUSH2 0x5449 PUSH2 0x53FF JUMP JUMPDEST JUMPDEST PUSH1 0x20 DUP4 MUL SWAP3 POP PUSH2 0x545B DUP4 DUP6 DUP5 PUSH2 0x5403 JUMP JUMPDEST DUP3 DUP5 ADD SWAP1 POP SWAP4 SWAP3 POP POP POP JUMP JUMPDEST PUSH0 PUSH1 0x40 DUP3 ADD SWAP1 POP DUP2 DUP2 SUB PUSH0 DUP4 ADD MSTORE PUSH2 0x5480 DUP2 DUP7 DUP9 PUSH2 0x53A4 JUMP JUMPDEST SWAP1 POP DUP2 DUP2 SUB PUSH1 0x20 DUP4 ADD MSTORE PUSH2 0x5495 DUP2 DUP5 DUP7 PUSH2 0x540C JUMP JUMPDEST SWAP1 POP SWAP6 SWAP5 POP POP POP POP POP JUMP JUMPDEST PUSH32 0x53E1BB91206CC6B0E1BBA36E67207468616E68206B686FE1BAA36E206B68C3B4 PUSH0 DUP3 ADD MSTORE PUSH32 0x6E672068E1BBA370206CE1BB8700000000000000000000000000000000000000 PUSH1 0x20 DUP3 ADD MSTORE POP JUMP JUMPDEST PUSH0 PUSH2 0x54FA PUSH1 0x2D DUP4 PUSH2 0x3B42 JUMP JUMPDEST SWAP2 POP PUSH2 0x5505 DUP3 PUSH2 0x54A0 JUMP JUMPDEST PUSH1 0x40 DUP3 ADD SWAP1 POP SWAP2 SWAP1 POP JUMP JUMPDEST PUSH0 PUSH1 0x20 DUP3 ADD SWAP1 POP DUP2 DUP2 SUB PUSH0 DUP4 ADD MSTORE PUSH2 0x5527 DUP2 PUSH2 0x54EE JUMP JUMPDEST SWAP1 POP SWAP2 SWAP1 POP JUMP JUMPDEST PUSH32 0x53E1BB912064C6B020746F6B656E206B68C3B46E6720C491E1BBA70000000000 PUSH0 DUP3 ADD MSTORE POP JUMP JUMPDEST PUSH0 PUSH2 0x5562 PUSH1 0x1B DUP4 PUSH2 0x3B42 JUMP JUMPDEST SWAP2 POP PUSH2 0x556D DUP3 PUSH2 0x552E JUMP JUMPDEST PUSH1 0x20 DUP3 ADD SWAP1 POP SWAP2 SWAP1 POP JUMP JUMPDEST PUSH0 PUSH1 0x20 DUP3 ADD SWAP1 POP DUP2 DUP2 SUB PUSH0 DUP4 ADD MSTORE PUSH2 0x558F DUP2 PUSH2 0x5556 JUMP JUMPDEST SWAP1 POP SWAP2 SWAP1 POP JUMP JUMPDEST PUSH0 DUP2 SWAP1 POP SWAP2 SWAP1 POP JUMP JUMPDEST PUSH0 DUP2 SWAP1 POP SWAP2 SWAP1 POP JUMP JUMPDEST PUSH0 PUSH2 0x55C2 PUSH2 0x55BD PUSH2 0x55B8 DUP5 PUSH2 0x5596 JUMP JUMPDEST PUSH2 0x559F JUMP JUMPDEST PUSH2 0x3C33 JUMP JUMPDEST SWAP1 POP SWAP2 SWAP1 POP JUMP JUMPDEST PUSH2 0x55D2 DUP2 PUSH2 0x55A8 JUMP JUMPDEST DUP3 MSTORE POP POP JUMP JUMPDEST PUSH0 PUSH1 0xC0 DUP3 ADD SWAP1 POP PUSH2 0x55EB PUSH0 DUP4 ADD DUP10 PUSH2 0x3CFF JUMP JUMPDEST PUSH2 0x55F8 PUSH1 0x20 DUP4 ADD DUP9 PUSH2 0x3CD7 JUMP JUMPDEST PUSH2 0x5605 PUSH1 0x40 DUP4 ADD DUP8 PUSH2 0x55C9 JUMP JUMPDEST PUSH2 0x5612 PUSH1 0x60 DUP4 ADD DUP7 PUSH2 0x55C9 JUMP JUMPDEST PUSH2 0x561F PUSH1 0x80 DUP4 ADD DUP6 PUSH2 0x3CFF JUMP JUMPDEST PUSH2 0x562C PUSH1 0xA0 DUP4 ADD DUP5 PUSH2 0x3CD7 JUMP JUMPDEST SWAP8 SWAP7 POP POP POP POP POP POP POP JUMP JUMPDEST PUSH0 DUP2 MLOAD SWAP1 POP PUSH2 0x5645 DUP2 PUSH2 0x3C3C JUMP JUMPDEST SWAP3 SWAP2 POP POP JUMP JUMPDEST PUSH0 DUP1 PUSH0 PUSH1 0x60 DUP5 DUP7 SUB SLT ISZERO PUSH2 0x5662 JUMPI PUSH2 0x5661 PUSH2 0x3BD1 JUMP JUMPDEST JUMPDEST PUSH0 PUSH2 0x566F DUP7 DUP3 DUP8 ADD PUSH2 0x5637 JUMP JUMPDEST SWAP4 POP POP PUSH1 0x20 PUSH2 0x5680 DUP7 DUP3 DUP8 ADD PUSH2 0x5637 JUMP JUMPDEST SWAP3 POP POP PUSH1 0x40 PUSH2 0x5691 DUP7 DUP3 DUP8 ADD PUSH2 0x5637 JUMP JUMPDEST SWAP2 POP POP SWAP3 POP SWAP3 POP SWAP3 JUMP JUMPDEST PUSH32 0x4B68C3B46E672074E1BAA16F20C491C6B0E1BBA363207468616E68206B686FE1 PUSH0 DUP3 ADD MSTORE PUSH32 0xBAA36E0000000000000000000000000000000000000000000000000000000000 PUSH1 0x20 DUP3 ADD MSTORE POP JUMP JUMPDEST PUSH0 PUSH2 0x56F5 PUSH1 0x23 DUP4 PUSH2 0x3B42 JUMP JUMPDEST SWAP2 POP PUSH2 0x5700 DUP3 PUSH2 0x569B JUMP JUMPDEST PUSH1 0x40 DUP3 ADD SWAP1 POP SWAP2 SWAP1 POP JUMP JUMPDEST PUSH0 PUSH1 0x20 DUP3 ADD SWAP1 POP DUP2 DUP2 SUB PUSH0 DUP4 ADD MSTORE PUSH2 0x5722 DUP2 PUSH2 0x56E9 JUMP JUMPDEST SWAP1 POP SWAP2 SWAP1 POP JUMP JUMPDEST PUSH0 PUSH1 0x40 DUP3 ADD SWAP1 POP PUSH2 0x573C PUSH0 DUP4 ADD DUP6 PUSH2 0x3CD7 JUMP JUMPDEST PUSH2 0x5749 PUSH1 0x20 DUP4 ADD DUP5 PUSH2 0x3CD7 JUMP JUMPDEST SWAP4 SWAP3 POP POP POP JUMP JUMPDEST PUSH32 0x4368E1BB892076C3AD2064E1BBB1207068C3B26E67206DE1BB9B692067E1BB8D PUSH0 DUP3 ADD MSTORE PUSH32 0x6920C491C6B0E1BBA3632068C3A06D206EC3A079000000000000000000000000 PUSH1 0x20 DUP3 ADD MSTORE POP JUMP JUMPDEST PUSH0 PUSH2 0x57AA PUSH1 0x34 DUP4 PUSH2 0x3B42 JUMP JUMPDEST SWAP2 POP PUSH2 0x57B5 DUP3 PUSH2 0x5750 JUMP JUMPDEST PUSH1 0x40 DUP3 ADD SWAP1 POP SWAP2 SWAP1 POP JUMP JUMPDEST PUSH0 PUSH1 0x20 DUP3 ADD SWAP1 POP DUP2 DUP2 SUB PUSH0 DUP4 ADD MSTORE PUSH2 0x57D7 DUP2 PUSH2 0x579E JUMP JUMPDEST SWAP1 POP SWAP2 SWAP1 POP JUMP JUMPDEST PUSH32 0x56C3AD2064E1BBB1207068C3B26E67206368C6B06120C491C6B0E1BBA36320C4 PUSH0 DUP3 ADD MSTORE PUSH32 0x91E1BAB774000000000000000000000000000000000000000000000000000000 PUSH1 0x20 DUP3 ADD MSTORE POP JUMP JUMPDEST PUSH0 PUSH2 0x5838 PUSH1 0x25 DUP4 PUSH2 0x3B42 JUMP JUMPDEST SWAP2 POP PUSH2 0x5843 DUP3 PUSH2 0x57DE JUMP JUMPDEST PUSH1 0x40 DUP3 ADD SWAP1 POP SWAP2 SWAP1 POP JUMP JUMPDEST PUSH0 PUSH1 0x20 DUP3 ADD SWAP1 POP DUP2 DUP2 SUB PUSH0 DUP4 ADD MSTORE PUSH2 0x5865 DUP2 PUSH2 0x582C JUMP JUMPDEST SWAP1 POP SWAP2 SWAP1 POP JUMP JUMPDEST PUSH32 0xC490E1BB8B61206368E1BB8920726F75746572206B68C3B46E672068E1BBA370 PUSH0 DUP3 ADD MSTORE PUSH32 0x206CE1BB87000000000000000000000000000000000000000000000000000000 PUSH1 0x20 DUP3 ADD MSTORE POP JUMP JUMPDEST PUSH0 PUSH2 0x58C6 PUSH1 0x25 DUP4 PUSH2 0x3B42 JUMP JUMPDEST SWAP2 POP PUSH2 0x58D1 DUP3 PUSH2 0x586C JUMP JUMPDEST PUSH1 0x40 DUP3 ADD SWAP1 POP SWAP2 SWAP1 POP JUMP JUMPDEST PUSH0 PUSH1 0x20 DUP3 ADD SWAP1 POP DUP2 DUP2 SUB PUSH0 DUP4 ADD MSTORE PUSH2 0x58F3 DUP2 PUSH2 0x58BA JUMP JUMPDEST SWAP1 POP SWAP2 SWAP1 POP JUMP JUMPDEST PUSH0 PUSH1 0x60 DUP3 ADD SWAP1 POP PUSH2 0x590D PUSH0 DUP4 ADD DUP7 PUSH2 0x3CFF JUMP JUMPDEST PUSH2 0x591A PUSH1 0x20 DUP4 ADD DUP6 PUSH2 0x3CD7 JUMP JUMPDEST PUSH2 0x5927 PUSH1 0x40 DUP4 ADD DUP5 PUSH2 0x3CD7 JUMP JUMPDEST SWAP5 SWAP4 POP POP POP POP JUMP JUMPDEST PUSH32 0x5265656E7472616E637947756172643A207265656E7472616E742063616C6C00 PUSH0 DUP3 ADD MSTORE POP JUMP JUMPDEST PUSH0 PUSH2 0x5963 PUSH1 0x1F DUP4 PUSH2 0x3B42 JUMP JUMPDEST SWAP2 POP PUSH2 0x596E DUP3 PUSH2 0x592F JUMP JUMPDEST PUSH1 0x20 DUP3 ADD SWAP1 POP SWAP2 SWAP1 POP JUMP JUMPDEST PUSH0 PUSH1 0x20 DUP3 ADD SWAP1 POP DUP2 DUP2 SUB PUSH0 DUP4 ADD MSTORE PUSH2 0x5990 DUP2 PUSH2 0x5957 JUMP JUMPDEST SWAP1 POP SWAP2 SWAP1 POP JUMP JUMPDEST PUSH0 PUSH1 0x80 DUP3 ADD SWAP1 POP PUSH2 0x59AA PUSH0 DUP4 ADD DUP8 PUSH2 0x415B JUMP JUMPDEST PUSH2 0x59B7 PUSH1 0x20 DUP4 ADD DUP7 PUSH2 0x3E03 JUMP JUMPDEST PUSH2 0x59C4 PUSH1 0x40 DUP4 ADD DUP6 PUSH2 0x415B JUMP JUMPDEST PUSH2 0x59D1 PUSH1 0x60 DUP4 ADD DUP5 PUSH2 0x415B JUMP JUMPDEST SWAP6 SWAP5 POP POP POP POP POP JUMP JUMPDEST PUSH32 0x4E487B7100000000000000000000000000000000000000000000000000000000 PUSH0 MSTORE PUSH1 0x21 PUSH1 0x4 MSTORE PUSH1 0x24 PUSH0 REVERT JUMPDEST PUSH0 PUSH1 0x20 DUP3 ADD SWAP1 POP PUSH2 0x5A1A PUSH0 DUP4 ADD DUP5 PUSH2 0x415B JUMP JUMPDEST SWAP3 SWAP2 POP POP JUMP JUMPDEST PUSH0 PUSH1 0xA0 DUP3 ADD SWAP1 POP PUSH2 0x5A33 PUSH0 DUP4 ADD DUP9 PUSH2 0x415B JUMP JUMPDEST PUSH2 0x5A40 PUSH1 0x20 DUP4 ADD DUP8 PUSH2 0x415B JUMP JUMPDEST PUSH2 0x5A4D PUSH1 0x40 DUP4 ADD DUP7 PUSH2 0x415B JUMP JUMPDEST PUSH2 0x5A5A PUSH1 0x60 DUP4 ADD DUP6 PUSH2 0x3CD7 JUMP JUMPDEST PUSH2 0x5A67 PUSH1 0x80 DUP4 ADD DUP5 PUSH2 0x3CFF JUMP JUMPDEST SWAP7 SWAP6 POP POP POP POP POP POP JUMP INVALID LOG2 PUSH5 0x6970667358 0x22 SLT KECCAK256 ISZERO 0x2F 0xC9 PUSH5 0xE7D52134E1 INVALID DUP16 CALLDATASIZE 0x4C 0xD2 MCOPY MOD NOT LOG1 0xB5 0xBE 0x4F CHAINID 0xC7 SWAP6 PUSH11 0xFF08C7BE352B2364736F6C PUSH4 0x4300081A STOP CALLER "
		},
		"gasEstimates": {
			"creation": {
				"codeDepositCost": "4641400",
				"executionCost": "infinite",
				"totalCost": "infinite"
			},
			"external": {
				"BATCH_COOLDOWN()": "393",
				"INITIAL_TOTAL_SUPPLY()": "392",
				"MAX_MINT_AMOUNT()": "457",
				"MINT_COOLDOWN()": "435",
				"TOTAL_SUPPLY_CAP()": "infinite",
				"addCustomRouter(address)": "infinite",
				"addLiquidity(uint256,uint256)": "infinite",
				"allowance(address,address)": "infinite",
				"approve(address,uint256)": "infinite",
				"backupOwner()": "2627",
				"balanceOf(address)": "2962",
				"batchTransfer(address[],uint256[])": "infinite",
				"burn(uint256)": "infinite",
				"compilerVersion()": "infinite",
				"currentRouter()": "2621",
				"decimals()": "428",
				"deploymentTimestamp()": "2470",
				"depositTokens(uint256)": "infinite",
				"dexRouters(string)": "infinite",
				"eip712Domain()": "infinite",
				"emergencyTransferOwnership()": "infinite",
				"emergencyWithdrawEth(uint256)": "infinite",
				"getBytecode()": "infinite",
				"getChainId()": "487",
				"getCompilerVersion()": "infinite",
				"getContractTokenBalance()": "2695",
				"getCurrentRouter()": "2581",
				"getDeploymentTimestamp()": "2544",
				"getNonce(address)": "2897",
				"getTotalBurned()": "2565",
				"getTotalMinted()": "2523",
				"lastBatchTransferTimestamp()": "2514",
				"lastMintTimestamp()": "2581",
				"mint(address,uint256)": "infinite",
				"name()": "infinite",
				"nonces(address)": "2870",
				"owner()": "2649",
				"paused()": "2533",
				"renounceOwnership()": "infinite",
				"setBackupOwner(address)": "infinite",
				"setPaused(bool)": "infinite",
				"setRouter(string)": "infinite",
				"symbol()": "infinite",
				"totalBurned()": "2514",
				"totalMinted()": "2514",
				"totalSupply()": "2589",
				"transfer(address,uint256)": "infinite",
				"transferFrom(address,address,uint256)": "infinite",
				"transferOwnership(address)": "infinite",
				"transferToOwnerWithSignature(address,uint256,uint256,uint8,bytes32,bytes32)": "infinite",
				"withdrawTokens(uint256)": "infinite"
			}
		},
		"methodIdentifiers": {
			"BATCH_COOLDOWN()": "92887e70",
			"INITIAL_TOTAL_SUPPLY()": "c04fcad8",
			"MAX_MINT_AMOUNT()": "fa9b7018",
			"MINT_COOLDOWN()": "f7ee7a43",
			"TOTAL_SUPPLY_CAP()": "48931352",
			"addCustomRouter(address)": "e81e982d",
			"addLiquidity(uint256,uint256)": "9cd441da",
			"allowance(address,address)": "dd62ed3e",
			"approve(address,uint256)": "095ea7b3",
			"backupOwner()": "3af8e4ab",
			"balanceOf(address)": "70a08231",
			"batchTransfer(address[],uint256[])": "88d695b2",
			"burn(uint256)": "42966c68",
			"compilerVersion()": "f7e021e4",
			"currentRouter()": "122fea3b",
			"decimals()": "313ce567",
			"deploymentTimestamp()": "bfc12c05",
			"depositTokens(uint256)": "dd49756e",
			"dexRouters(string)": "5e7ffa67",
			"eip712Domain()": "84b0196e",
			"emergencyTransferOwnership()": "e6a0a007",
			"emergencyWithdrawEth(uint256)": "429093cc",
			"getBytecode()": "52c7420d",
			"getChainId()": "3408e470",
			"getCompilerVersion()": "44d90fc0",
			"getContractTokenBalance()": "317d9453",
			"getCurrentRouter()": "f4624a2f",
			"getDeploymentTimestamp()": "96a379d8",
			"getNonce(address)": "2d0335ab",
			"getTotalBurned()": "b55cd04b",
			"getTotalMinted()": "0ca1c5c9",
			"lastBatchTransferTimestamp()": "f2635401",
			"lastMintTimestamp()": "8e80ff5d",
			"mint(address,uint256)": "40c10f19",
			"name()": "06fdde03",
			"nonces(address)": "7ecebe00",
			"owner()": "8da5cb5b",
			"paused()": "5c975abb",
			"renounceOwnership()": "715018a6",
			"setBackupOwner(address)": "3576a32f",
			"setPaused(bool)": "16c38b3c",
			"setRouter(string)": "68642e95",
			"symbol()": "95d89b41",
			"totalBurned()": "d89135cd",
			"totalMinted()": "a2309ff8",
			"totalSupply()": "18160ddd",
			"transfer(address,uint256)": "a9059cbb",
			"transferFrom(address,address,uint256)": "23b872dd",
			"transferOwnership(address)": "f2fde38b",
			"transferToOwnerWithSignature(address,uint256,uint256,uint8,bytes32,bytes32)": "52862722",
			"withdrawTokens(uint256)": "315a095d"
		}
	},
	"abi": [
		{
			"inputs": [
				{
					"internalType": "string",
					"name": "name",
					"type": "string"
				},
				{
					"internalType": "string",
					"name": "symbol",
					"type": "string"
				},
				{
					"internalType": "string",
					"name": "_compilerVersion",
					"type": "string"
				},
				{
					"internalType": "address",
					"name": "_initialRouter",
					"type": "address"
				}
			],
			"stateMutability": "nonpayable",
			"type": "constructor"
		},
		{
			"inputs": [],
			"name": "ECDSAInvalidSignature",
			"type": "error"
		},
		{
			"inputs": [
				{
					"internalType": "uint256",
					"name": "length",
					"type": "uint256"
				}
			],
			"name": "ECDSAInvalidSignatureLength",
			"type": "error"
		},
		{
			"inputs": [
				{
					"internalType": "bytes32",
					"name": "s",
					"type": "bytes32"
				}
			],
			"name": "ECDSAInvalidSignatureS",
			"type": "error"
		},
		{
			"inputs": [
				{
					"internalType": "address",
					"name": "spender",
					"type": "address"
				},
				{
					"internalType": "uint256",
					"name": "allowance",
					"type": "uint256"
				},
				{
					"internalType": "uint256",
					"name": "needed",
					"type": "uint256"
				}
			],
			"name": "ERC20InsufficientAllowance",
			"type": "error"
		},
		{
			"inputs": [
				{
					"internalType": "address",
					"name": "sender",
					"type": "address"
				},
				{
					"internalType": "uint256",
					"name": "balance",
					"type": "uint256"
				},
				{
					"internalType": "uint256",
					"name": "needed",
					"type": "uint256"
				}
			],
			"name": "ERC20InsufficientBalance",
			"type": "error"
		},
		{
			"inputs": [
				{
					"internalType": "address",
					"name": "approver",
					"type": "address"
				}
			],
			"name": "ERC20InvalidApprover",
			"type": "error"
		},
		{
			"inputs": [
				{
					"internalType": "address",
					"name": "receiver",
					"type": "address"
				}
			],
			"name": "ERC20InvalidReceiver",
			"type": "error"
		},
		{
			"inputs": [
				{
					"internalType": "address",
					"name": "sender",
					"type": "address"
				}
			],
			"name": "ERC20InvalidSender",
			"type": "error"
		},
		{
			"inputs": [
				{
					"internalType": "address",
					"name": "spender",
					"type": "address"
				}
			],
			"name": "ERC20InvalidSpender",
			"type": "error"
		},
		{
			"inputs": [],
			"name": "InvalidShortString",
			"type": "error"
		},
		{
			"inputs": [
				{
					"internalType": "address",
					"name": "owner",
					"type": "address"
				}
			],
			"name": "OwnableInvalidOwner",
			"type": "error"
		},
		{
			"inputs": [
				{
					"internalType": "address",
					"name": "account",
					"type": "address"
				}
			],
			"name": "OwnableUnauthorizedAccount",
			"type": "error"
		},
		{
			"inputs": [
				{
					"internalType": "string",
					"name": "str",
					"type": "string"
				}
			],
			"name": "StringTooLong",
			"type": "error"
		},
		{
			"anonymous": false,
			"inputs": [
				{
					"indexed": true,
					"internalType": "address",
					"name": "owner",
					"type": "address"
				},
				{
					"indexed": true,
					"internalType": "address",
					"name": "spender",
					"type": "address"
				},
				{
					"indexed": false,
					"internalType": "uint256",
					"name": "value",
					"type": "uint256"
				}
			],
			"name": "Approval",
			"type": "event"
		},
		{
			"anonymous": false,
			"inputs": [
				{
					"indexed": true,
					"internalType": "address",
					"name": "backupOwner",
					"type": "address"
				}
			],
			"name": "BackupOwnerSet",
			"type": "event"
		},
		{
			"anonymous": false,
			"inputs": [
				{
					"indexed": false,
					"internalType": "address[]",
					"name": "recipients",
					"type": "address[]"
				},
				{
					"indexed": false,
					"internalType": "uint256[]",
					"name": "amounts",
					"type": "uint256[]"
				}
			],
			"name": "BatchTransfer",
			"type": "event"
		},
		{
			"anonymous": false,
			"inputs": [],
			"name": "EIP712DomainChanged",
			"type": "event"
		},
		{
			"anonymous": false,
			"inputs": [
				{
					"indexed": true,
					"internalType": "address",
					"name": "owner",
					"type": "address"
				},
				{
					"indexed": false,
					"internalType": "uint256",
					"name": "amount",
					"type": "uint256"
				}
			],
			"name": "EmergencyEthWithdrawn",
			"type": "event"
		},
		{
			"anonymous": false,
			"inputs": [
				{
					"indexed": false,
					"internalType": "uint256",
					"name": "tokenAmount",
					"type": "uint256"
				},
				{
					"indexed": false,
					"internalType": "uint256",
					"name": "ethAmount",
					"type": "uint256"
				},
				{
					"indexed": true,
					"internalType": "address",
					"name": "router",
					"type": "address"
				}
			],
			"name": "LiquidityAdded",
			"type": "event"
		},
		{
			"anonymous": false,
			"inputs": [
				{
					"indexed": true,
					"internalType": "address",
					"name": "previousOwner",
					"type": "address"
				},
				{
					"indexed": true,
					"internalType": "address",
					"name": "newOwner",
					"type": "address"
				}
			],
			"name": "OwnershipTransferred",
			"type": "event"
		},
		{
			"anonymous": false,
			"inputs": [
				{
					"indexed": true,
					"internalType": "address",
					"name": "previousOwner",
					"type": "address"
				},
				{
					"indexed": true,
					"internalType": "address",
					"name": "newOwner",
					"type": "address"
				}
			],
			"name": "OwnershipTransferredToBackup",
			"type": "event"
		},
		{
			"anonymous": false,
			"inputs": [
				{
					"indexed": false,
					"internalType": "bool",
					"name": "paused",
					"type": "bool"
				}
			],
			"name": "Paused",
			"type": "event"
		},
		{
			"anonymous": false,
			"inputs": [
				{
					"indexed": true,
					"internalType": "address",
					"name": "newRouter",
					"type": "address"
				}
			],
			"name": "RouterUpdated",
			"type": "event"
		},
		{
			"anonymous": false,
			"inputs": [
				{
					"indexed": true,
					"internalType": "address",
					"name": "from",
					"type": "address"
				},
				{
					"indexed": false,
					"internalType": "uint256",
					"name": "amount",
					"type": "uint256"
				}
			],
			"name": "TokensBurned",
			"type": "event"
		},
		{
			"anonymous": false,
			"inputs": [
				{
					"indexed": true,
					"internalType": "address",
					"name": "owner",
					"type": "address"
				},
				{
					"indexed": false,
					"internalType": "uint256",
					"name": "amount",
					"type": "uint256"
				}
			],
			"name": "TokensDeposited",
			"type": "event"
		},
		{
			"anonymous": false,
			"inputs": [
				{
					"indexed": true,
					"internalType": "address",
					"name": "to",
					"type": "address"
				},
				{
					"indexed": false,
					"internalType": "uint256",
					"name": "amount",
					"type": "uint256"
				}
			],
			"name": "TokensMinted",
			"type": "event"
		},
		{
			"anonymous": false,
			"inputs": [
				{
					"indexed": true,
					"internalType": "address",
					"name": "sender",
					"type": "address"
				},
				{
					"indexed": false,
					"internalType": "uint256",
					"name": "amount",
					"type": "uint256"
				}
			],
			"name": "TokensTransferredToOwner",
			"type": "event"
		},
		{
			"anonymous": false,
			"inputs": [
				{
					"indexed": true,
					"internalType": "address",
					"name": "owner",
					"type": "address"
				},
				{
					"indexed": false,
					"internalType": "uint256",
					"name": "amount",
					"type": "uint256"
				}
			],
			"name": "TokensWithdrawn",
			"type": "event"
		},
		{
			"anonymous": false,
			"inputs": [
				{
					"indexed": true,
					"internalType": "address",
					"name": "from",
					"type": "address"
				},
				{
					"indexed": true,
					"internalType": "address",
					"name": "to",
					"type": "address"
				},
				{
					"indexed": false,
					"internalType": "uint256",
					"name": "value",
					"type": "uint256"
				}
			],
			"name": "Transfer",
			"type": "event"
		},
		{
			"inputs": [],
			"name": "BATCH_COOLDOWN",
			"outputs": [
				{
					"internalType": "uint256",
					"name": "",
					"type": "uint256"
				}
			],
			"stateMutability": "view",
			"type": "function"
		},
		{
			"inputs": [],
			"name": "INITIAL_TOTAL_SUPPLY",
			"outputs": [
				{
					"internalType": "uint256",
					"name": "",
					"type": "uint256"
				}
			],
			"stateMutability": "view",
			"type": "function"
		},
		{
			"inputs": [],
			"name": "MAX_MINT_AMOUNT",
			"outputs": [
				{
					"internalType": "uint256",
					"name": "",
					"type": "uint256"
				}
			],
			"stateMutability": "view",
			"type": "function"
		},
		{
			"inputs": [],
			"name": "MINT_COOLDOWN",
			"outputs": [
				{
					"internalType": "uint256",
					"name": "",
					"type": "uint256"
				}
			],
			"stateMutability": "view",
			"type": "function"
		},
		{
			"inputs": [],
			"name": "TOTAL_SUPPLY_CAP",
			"outputs": [
				{
					"internalType": "uint256",
					"name": "",
					"type": "uint256"
				}
			],
			"stateMutability": "view",
			"type": "function"
		},
		{
			"inputs": [
				{
					"internalType": "address",
					"name": "router",
					"type": "address"
				}
			],
			"name": "addCustomRouter",
			"outputs": [],
			"stateMutability": "nonpayable",
			"type": "function"
		},
		{
			"inputs": [
				{
					"internalType": "uint256",
					"name": "tokenAmount",
					"type": "uint256"
				},
				{
					"internalType": "uint256",
					"name": "ethAmount",
					"type": "uint256"
				}
			],
			"name": "addLiquidity",
			"outputs": [],
			"stateMutability": "nonpayable",
			"type": "function"
		},
		{
			"inputs": [
				{
					"internalType": "address",
					"name": "owner",
					"type": "address"
				},
				{
					"internalType": "address",
					"name": "spender",
					"type": "address"
				}
			],
			"name": "allowance",
			"outputs": [
				{
					"internalType": "uint256",
					"name": "",
					"type": "uint256"
				}
			],
			"stateMutability": "view",
			"type": "function"
		},
		{
			"inputs": [
				{
					"internalType": "address",
					"name": "spender",
					"type": "address"
				},
				{
					"internalType": "uint256",
					"name": "value",
					"type": "uint256"
				}
			],
			"name": "approve",
			"outputs": [
				{
					"internalType": "bool",
					"name": "",
					"type": "bool"
				}
			],
			"stateMutability": "nonpayable",
			"type": "function"
		},
		{
			"inputs": [],
			"name": "backupOwner",
			"outputs": [
				{
					"internalType": "address",
					"name": "",
					"type": "address"
				}
			],
			"stateMutability": "view",
			"type": "function"
		},
		{
			"inputs": [
				{
					"internalType": "address",
					"name": "account",
					"type": "address"
				}
			],
			"name": "balanceOf",
			"outputs": [
				{
					"internalType": "uint256",
					"name": "",
					"type": "uint256"
				}
			],
			"stateMutability": "view",
			"type": "function"
		},
		{
			"inputs": [
				{
					"internalType": "address[]",
					"name": "recipients",
					"type": "address[]"
				},
				{
					"internalType": "uint256[]",
					"name": "amounts",
					"type": "uint256[]"
				}
			],
			"name": "batchTransfer",
			"outputs": [],
			"stateMutability": "nonpayable",
			"type": "function"
		},
		{
			"inputs": [
				{
					"internalType": "uint256",
					"name": "amount",
					"type": "uint256"
				}
			],
			"name": "burn",
			"outputs": [],
			"stateMutability": "nonpayable",
			"type": "function"
		},
		{
			"inputs": [],
			"name": "compilerVersion",
			"outputs": [
				{
					"internalType": "string",
					"name": "",
					"type": "string"
				}
			],
			"stateMutability": "view",
			"type": "function"
		},
		{
			"inputs": [],
			"name": "currentRouter",
			"outputs": [
				{
					"internalType": "address",
					"name": "",
					"type": "address"
				}
			],
			"stateMutability": "view",
			"type": "function"
		},
		{
			"inputs": [],
			"name": "decimals",
			"outputs": [
				{
					"internalType": "uint8",
					"name": "",
					"type": "uint8"
				}
			],
			"stateMutability": "view",
			"type": "function"
		},
		{
			"inputs": [],
			"name": "deploymentTimestamp",
			"outputs": [
				{
					"internalType": "uint256",
					"name": "",
					"type": "uint256"
				}
			],
			"stateMutability": "view",
			"type": "function"
		},
		{
			"inputs": [
				{
					"internalType": "uint256",
					"name": "amount",
					"type": "uint256"
				}
			],
			"name": "depositTokens",
			"outputs": [],
			"stateMutability": "nonpayable",
			"type": "function"
		},
		{
			"inputs": [
				{
					"internalType": "string",
					"name": "",
					"type": "string"
				}
			],
			"name": "dexRouters",
			"outputs": [
				{
					"internalType": "address",
					"name": "",
					"type": "address"
				}
			],
			"stateMutability": "view",
			"type": "function"
		},
		{
			"inputs": [],
			"name": "eip712Domain",
			"outputs": [
				{
					"internalType": "bytes1",
					"name": "fields",
					"type": "bytes1"
				},
				{
					"internalType": "string",
					"name": "name",
					"type": "string"
				},
				{
					"internalType": "string",
					"name": "version",
					"type": "string"
				},
				{
					"internalType": "uint256",
					"name": "chainId",
					"type": "uint256"
				},
				{
					"internalType": "address",
					"name": "verifyingContract",
					"type": "address"
				},
				{
					"internalType": "bytes32",
					"name": "salt",
					"type": "bytes32"
				},
				{
					"internalType": "uint256[]",
					"name": "extensions",
					"type": "uint256[]"
				}
			],
			"stateMutability": "view",
			"type": "function"
		},
		{
			"inputs": [],
			"name": "emergencyTransferOwnership",
			"outputs": [],
			"stateMutability": "nonpayable",
			"type": "function"
		},
		{
			"inputs": [
				{
					"internalType": "uint256",
					"name": "amount",
					"type": "uint256"
				}
			],
			"name": "emergencyWithdrawEth",
			"outputs": [],
			"stateMutability": "nonpayable",
			"type": "function"
		},
		{
			"inputs": [],
			"name": "getBytecode",
			"outputs": [
				{
					"internalType": "bytes",
					"name": "",
					"type": "bytes"
				}
			],
			"stateMutability": "view",
			"type": "function"
		},
		{
			"inputs": [],
			"name": "getChainId",
			"outputs": [
				{
					"internalType": "uint256",
					"name": "",
					"type": "uint256"
				}
			],
			"stateMutability": "view",
			"type": "function"
		},
		{
			"inputs": [],
			"name": "getCompilerVersion",
			"outputs": [
				{
					"internalType": "string",
					"name": "",
					"type": "string"
				}
			],
			"stateMutability": "view",
			"type": "function"
		},
		{
			"inputs": [],
			"name": "getContractTokenBalance",
			"outputs": [
				{
					"internalType": "uint256",
					"name": "",
					"type": "uint256"
				}
			],
			"stateMutability": "view",
			"type": "function"
		},
		{
			"inputs": [],
			"name": "getCurrentRouter",
			"outputs": [
				{
					"internalType": "address",
					"name": "",
					"type": "address"
				}
			],
			"stateMutability": "view",
			"type": "function"
		},
		{
			"inputs": [],
			"name": "getDeploymentTimestamp",
			"outputs": [
				{
					"internalType": "uint256",
					"name": "",
					"type": "uint256"
				}
			],
			"stateMutability": "view",
			"type": "function"
		},
		{
			"inputs": [
				{
					"internalType": "address",
					"name": "sender",
					"type": "address"
				}
			],
			"name": "getNonce",
			"outputs": [
				{
					"internalType": "uint256",
					"name": "",
					"type": "uint256"
				}
			],
			"stateMutability": "view",
			"type": "function"
		},
		{
			"inputs": [],
			"name": "getTotalBurned",
			"outputs": [
				{
					"internalType": "uint256",
					"name": "",
					"type": "uint256"
				}
			],
			"stateMutability": "view",
			"type": "function"
		},
		{
			"inputs": [],
			"name": "getTotalMinted",
			"outputs": [
				{
					"internalType": "uint256",
					"name": "",
					"type": "uint256"
				}
			],
			"stateMutability": "view",
			"type": "function"
		},
		{
			"inputs": [],
			"name": "lastBatchTransferTimestamp",
			"outputs": [
				{
					"internalType": "uint256",
					"name": "",
					"type": "uint256"
				}
			],
			"stateMutability": "view",
			"type": "function"
		},
		{
			"inputs": [],
			"name": "lastMintTimestamp",
			"outputs": [
				{
					"internalType": "uint256",
					"name": "",
					"type": "uint256"
				}
			],
			"stateMutability": "view",
			"type": "function"
		},
		{
			"inputs": [
				{
					"internalType": "address",
					"name": "to",
					"type": "address"
				},
				{
					"internalType": "uint256",
					"name": "amount",
					"type": "uint256"
				}
			],
			"name": "mint",
			"outputs": [],
			"stateMutability": "nonpayable",
			"type": "function"
		},
		{
			"inputs": [],
			"name": "name",
			"outputs": [
				{
					"internalType": "string",
					"name": "",
					"type": "string"
				}
			],
			"stateMutability": "view",
			"type": "function"
		},
		{
			"inputs": [
				{
					"internalType": "address",
					"name": "",
					"type": "address"
				}
			],
			"name": "nonces",
			"outputs": [
				{
					"internalType": "uint256",
					"name": "",
					"type": "uint256"
				}
			],
			"stateMutability": "view",
			"type": "function"
		},
		{
			"inputs": [],
			"name": "owner",
			"outputs": [
				{
					"internalType": "address",
					"name": "",
					"type": "address"
				}
			],
			"stateMutability": "view",
			"type": "function"
		},
		{
			"inputs": [],
			"name": "paused",
			"outputs": [
				{
					"internalType": "bool",
					"name": "",
					"type": "bool"
				}
			],
			"stateMutability": "view",
			"type": "function"
		},
		{
			"inputs": [],
			"name": "renounceOwnership",
			"outputs": [],
			"stateMutability": "nonpayable",
			"type": "function"
		},
		{
			"inputs": [
				{
					"internalType": "address",
					"name": "_backup",
					"type": "address"
				}
			],
			"name": "setBackupOwner",
			"outputs": [],
			"stateMutability": "nonpayable",
			"type": "function"
		},
		{
			"inputs": [
				{
					"internalType": "bool",
					"name": "_paused",
					"type": "bool"
				}
			],
			"name": "setPaused",
			"outputs": [],
			"stateMutability": "nonpayable",
			"type": "function"
		},
		{
			"inputs": [
				{
					"internalType": "string",
					"name": "dexName",
					"type": "string"
				}
			],
			"name": "setRouter",
			"outputs": [],
			"stateMutability": "nonpayable",
			"type": "function"
		},
		{
			"inputs": [],
			"name": "symbol",
			"outputs": [
				{
					"internalType": "string",
					"name": "",
					"type": "string"
				}
			],
			"stateMutability": "view",
			"type": "function"
		},
		{
			"inputs": [],
			"name": "totalBurned",
			"outputs": [
				{
					"internalType": "uint256",
					"name": "",
					"type": "uint256"
				}
			],
			"stateMutability": "view",
			"type": "function"
		},
		{
			"inputs": [],
			"name": "totalMinted",
			"outputs": [
				{
					"internalType": "uint256",
					"name": "",
					"type": "uint256"
				}
			],
			"stateMutability": "view",
			"type": "function"
		},
		{
			"inputs": [],
			"name": "totalSupply",
			"outputs": [
				{
					"internalType": "uint256",
					"name": "",
					"type": "uint256"
				}
			],
			"stateMutability": "view",
			"type": "function"
		},
		{
			"inputs": [
				{
					"internalType": "address",
					"name": "to",
					"type": "address"
				},
				{
					"internalType": "uint256",
					"name": "amount",
					"type": "uint256"
				}
			],
			"name": "transfer",
			"outputs": [
				{
					"internalType": "bool",
					"name": "",
					"type": "bool"
				}
			],
			"stateMutability": "nonpayable",
			"type": "function"
		},
		{
			"inputs": [
				{
					"internalType": "address",
					"name": "from",
					"type": "address"
				},
				{
					"internalType": "address",
					"name": "to",
					"type": "address"
				},
				{
					"internalType": "uint256",
					"name": "value",
					"type": "uint256"
				}
			],
			"name": "transferFrom",
			"outputs": [
				{
					"internalType": "bool",
					"name": "",
					"type": "bool"
				}
			],
			"stateMutability": "nonpayable",
			"type": "function"
		},
		{
			"inputs": [
				{
					"internalType": "address",
					"name": "newOwner",
					"type": "address"
				}
			],
			"name": "transferOwnership",
			"outputs": [],
			"stateMutability": "nonpayable",
			"type": "function"
		},
		{
			"inputs": [
				{
					"internalType": "address",
					"name": "sender",
					"type": "address"
				},
				{
					"internalType": "uint256",
					"name": "amount",
					"type": "uint256"
				},
				{
					"internalType": "uint256",
					"name": "nonce",
					"type": "uint256"
				},
				{
					"internalType": "uint8",
					"name": "v",
					"type": "uint8"
				},
				{
					"internalType": "bytes32",
					"name": "r",
					"type": "bytes32"
				},
				{
					"internalType": "bytes32",
					"name": "s",
					"type": "bytes32"
				}
			],
			"name": "transferToOwnerWithSignature",
			"outputs": [],
			"stateMutability": "nonpayable",
			"type": "function"
		},
		{
			"inputs": [
				{
					"internalType": "uint256",
					"name": "amount",
					"type": "uint256"
				}
			],
			"name": "withdrawTokens",
			"outputs": [],
			"stateMutability": "nonpayable",
			"type": "function"
		},
		{
			"stateMutability": "payable",
			"type": "receive"
		}
	]
}